:020000040800F2
:1000000008040020C1010008CD110008CF1100082C
:10001000D3110008D7110008DB1100080000000010
:10002000000000000000000000000000E1110008D6
:10003000DF11000800000000E3110008E5110008CE
:10004000E7110008FB110008FD110008FF1100086E
:100050000112000803120008051200080912000826
:100060000B1200080D1200080F12000811120008F0
:1000700013120008151200081712000819120008C0
:100080001B1200081D1200081F1200082112000890
:100090002312000825120008271200082912000860
:1000A0002B1200082D1200082F1200083112000830
:1000B0003312000835120008371200083912000800
:1000C0003B1200083D1200083F12000841120008D0
:1000D00043120008451200084712000849120008A0
:1000E0004B1200084D1200084F1200085112000870
:1000F0005312000855120008571200085912000840
:100100005B1200085D1200085F120008611200080F
:1001100063120008651200086712000869120008DF
:100120006B1200086D1200086F12000871120008AF
:10013000DFF80CD001F0CEF9004800471D1400088C
:100140000804002030BF704720BF704740BF704791
:10015000BFF36F8F7047BFF34F8F7047BFF35F8F51
:10016000704701DF7047EFF31480704780F3148805
:10017000BFF36F8F7047EFF30980704780F30988F2
:100180007047EFF30880704780F30888704762B6C5
:10019000704772B67047EFF31080704771B67047C2
:1001A00061B67047EFF31380704780F31188704792
:1001B000EFF31280704740BA704700BA70470000F2
:1001C00000480047310100081049096801F0380172
:1001D0000E4A1160114609680143116070470B49CE
:1001E000096821F00801094A1160114609680143B4
:1001F000116070470549096821F01001034A116038
:100200001146096801431160704700000020024058
:1002100010B50446C549601A8C422FD009DCC44889
:10022000201810D0B0F5806F16D0B0F5006F4AD10D
:100230001BE0B0F5806F2AD0B0F5006F30D0B0F57C
:10024000406F40D135E00121042000F0F9FA00218F
:10025000042000F0F5FA37E00121082000F0F0FA60
:100260000021082000F0ECFA2EE00121102000F01F
:10027000E7FA0021102000F0E3FA25E00121202018
:1002800000F0DEFA0021202000F0DAFA1CE0012163
:10029000402000F0D5FA0021402000F0D1FA13E010
:1002A0000121802000F0CCFA0021802000F0C8FA63
:1002B0000AE00121080200F0C3FA00214FF4807027
:1002C00000F0BEFA00E000BF00BF10BD10B5012174
:1002D000084600F0B5FA0021012000F0B1FA10BD87
:1002E0002DE9F041024600250026002000230024CD
:1002F000002791F803C00CF00F0591F803C01CF023
:10030000100F03D091F802C04CEA050591F800C027
:10031000BCF1000F31D0146800202BE04FF0010C2D
:100320000CFA00F3B1F800C00CEA03069E4220D19B
:1003300083004FF00F0C0CFA03F7BC4305FA03FCE3
:100340004CEA040491F803C0BCF1280F06D14FF029
:10035000010C0CFA00FCC2F814C00AE091F803C0CA
:10036000BCF1480F05D14FF0010C0CFA00FCC2F8AB
:1003700010C0401C0828D1D31460B1F800C0BCF1F3
:10038000FF0F34DD546800202EE000F1080C4FF020
:10039000010808FA0CF3B1F800C00CEA03069E420B
:1003A00021D183004FF00F0C0CFA03F7BC4305FA80
:1003B00003FC4CEA040491F803C0BCF1280F05D1FA
:1003C00000F1080C08FA0CF8C2F8148091F803C088
:1003D000BCF1480F07D100F1080C4FF0010808FAF2
:1003E0000CF8C2F81080401C0828CED35460BDE839
:1003F000F0814FF6FF710180022181700421C170EC
:1004000070470246002093680B4201D0012000E0B3
:10041000002070470146886880B27047024600207D
:10042000D3680B4201D0012000E000207047014654
:10043000C86880B2704701617047416170470AB176
:10044000016100E041617047C16070474FF4803244
:100450000A438261816182618269826970470246D2
:100460000020344B18684FF68073184040EA0210A1
:100470000843304B186070472F49C8617047F0B58A
:100480000A4600230024002100252A4E7168C0F38B
:10049000034583B200F44016B6F5401F08D121F0A1
:1004A0007061244E766826F07066224F7E6012E0FE
:1004B00000F48016B6F5801F06D1032606FA05F46F
:1004C000A14341F0706106E0460D360103FA06F6DD
:1004D000B14341F0706122B1460D360103FA06F6D0
:1004E0003143144E7160F0BD30B500228B071C0FF4
:1004F0000F2303FA04F20F4B08338C1053F8243007
:1005000093430C4C08348D1044F8253023468C104E
:1005100053F824308C07240F00FA04F42343054CCD
:1005200008348D1044F8253030BD0000001401401F
:1005300000F8FEBF0000014000002042DC480068D7
:1005400040F00100DA49086008464068D94908408F
:10055000D749486008460068D7490840D449086030
:100560000846006820F4802008600846406820F4AF
:10057000FE004860002088607047CD49096821F47A
:100580008031CB4A11601146096821F48021116045
:10059000B0F5803F03D0B0F5802F0ED106E0C449FE
:1005A000096841F48031C24A116007E0C049096816
:1005B00041F4A021BE4A116000E000BF00BF7047B7
:1005C00010B501460022002300204A11012A02D161
:1005D000B74C236806E0022A02D1B54C236A01E039
:1005E000B34C636A01F01F02012494401C4201D005
:1005F000012000E0002010BD38B50020009000244C
:10060000002500BF3120FFF7DBFF05460098401CA6
:1006100000901DB90098B0F5A06FF3D13120FFF71D
:10062000CFFF08B1012400E00024204638BD014678
:1006300000209F4A106820F0F80040EAC1001060D6
:1006400070479E490860704702460020984B5868E2
:1006500020F47C1042EA01031843954B5860704720
:1006600096490866704701460020914A506820F07C
:1006700003000843506070478D48406800F00C004C
:100680007047014600208A4A506820F0F000084375
:100690005060704701460020854A506820F4E060B1
:1006A00008435060704701460020814A506820F49A
:1006B000605040EAC1005060704729B17C4A527ACC
:1006C00002437B4B5A7204E0794A527A8243784B58
:1006D0005A7270477A490860704701460020744A90
:1006E000506820F440400843506070470021754A2C
:1006F00011706F4A82F82010012802D0042808D116
:1007000003E001216F4A117004E005216D4A117068
:1007100000E000BF00BF70476B4908607047644944
:10072000096A0143624A11627047674944390860A7
:10073000704730B500210022002400235C4D6D6815
:1007400005F00C0121B1042905D0082923D105E0C9
:100750005E4D056022E05D4D05601FE0544D6D6803
:1007600005F47012022505EB9242514D6D6805F4B7
:1007700080341CB9564D554305600BE04C4D6D68F7
:1007800015F4003F03D0524D5543056002E04F4D34
:100790005543056002E04D4D056000BF00BF444D6C
:1007A0006D6805F0F00109094A4D6B5C0568DD4094
:1007B00045603F4D6D6805F4E061090A454D6B5C8D
:1007C0004568DD4085603A4D6D6805F46051C90AA1
:1007D000404D6B5C4568DD40C560354D6D6805F486
:1007E0004041890B3C4D6B5CC568B5FBF3F5056179
:1007F00030BD29B12E4A526902432D4B5A6104E0A3
:100800002B4A526982432A4B5A61704729B1284AC0
:1008100092690243264B9A6104E0254A9269824319
:10082000234B9A61704729B1214AD2690243204B78
:10083000DA6104E01E4AD26982431D4BDA617047D7
:1008400029B11B4AD2680243194BDA6004E0184A06
:10085000D2688243164BDA60704729B1144A126994
:100860000243134B1A6104E0114A12698243104B90
:100870001A61704714494039086070470F49C864CD
:1008800070470B49C87170470948406A40F0807052
:1008900007494862704701460020054A92680A42AB
:1008A00001D0012000E000207047014988727047A4
:1008B000001002400000FFF8FFFFF6FE0000424279
:1008C000D8004242201002408004424200127A00C6
:1008D00000093D00481500085815000810B50446E9
:1008E000D749601A8C422BD006DCD648201813D08A
:1008F000B0F5806F38D119E0B0F5806F2AD0B0F52F
:100900006C4F31D101218803FFF79AFF00214FF48A
:100910008040FFF795FF28E001214804FFF79DFF85
:1009200000214FF40030FFF798FF1EE001218804FA
:10093000FFF793FF00214FF48020FFF78EFF14E0B4
:100940000121C804FFF789FF00214FF40020FFF7C1
:1009500084FF0AE001210805FFF77FFF00214FF423
:100960008010FFF77AFF00E000BF00BF10BD2DE947
:10097000F04786B005460E460024A24600BF00BFE1
:1009800000272F462C8A4CF6FF700440F088044361
:100990002C82AC894EF6F3100440B08831890843AC
:1009A000718908430443AC81AC8A4FF6FF40044090
:1009B000B0890443AC8201A8FFF7BBFEA24887427E
:1009C00002D1DDF810A001E0DDF80CA00AEBCA00AE
:1009D00000EB0A1031688900B0FBF1F86420B8FB25
:1009E000F0F004012009642101FB1089322000EBA2
:1009F0000910B0FBF1F000F00F0004432C8106B0A9
:100A0000BDE8F0874FF41651016000218180C1805C
:100A100001810C21418100218181704710B502467E
:100A20000020108A4FF2FF0318400B884C882343A4
:100A30008C882343CC8823431843108210BD0021A7
:100A4000018041808180C180704721B1828942F458
:100A50000052828104E082894DF6FF731A40828140
:100A60007047F0B5034600240026002500201846F4
:100A7000C1F3421401F01F06012707FA06F5012C05
:100A800001D10C3004E0022C01D1103000E0143010
:100A90001AB107682F43076002E00768AF43076099
:100AA000F0BD1AB1838A0B43838202E0838A8B43B1
:100AB00083827047028A4FF6F0731A400282028ADC
:100AC0000A430282704782894FF2FF731A40828183
:100AD00082890A438281704721B1828942F00202F1
:100AE000828104E082894FF6FD731A40828170474B
:100AF000028A4FF6DF731A400282028A0A43028298
:100B0000704721B1028A42F48042028204E0028AE4
:100B10004BF6FF731A4002827047C1F308028280CD
:100B2000704701468888C0F308007047818941F00A
:100B3000010181817047028BD2B20283028B42EAAB
:100B4000012202837047028B02F47F420283028BF0
:100B50000A430283704721B1828A42F020028282D6
:100B600004E0828A4FF6DF731A408282704721B117
:100B7000828A42F01002828204E0828A4FF6EF738A
:100B80001A408282704721B1828A42F00802828232
:100B900004E0828A4FF6F7731A4082827047828A95
:100BA0004FF6FB731A408282828A0A438282704720
:100BB00021B1828A42F00202828204E0828A4FF6E8
:100BC000FD731A40828270470246002013880B4250
:100BD00001D0012000E000207047CA430280704726
:100BE00070B502460B460024002100250020C3F307
:100BF000421503F01F01012606FA01F1012D02D171
:100C00009689314006E0022D02D1168A314001E07A
:100C1000968A31401C12012606FA04F416883440E4
:100C200011B10CB1012000E0002070BD10B5002210
:100C300000230A1201249440A3B2DC43048010BDB7
:100C4000004C004000BCFFBF003801400020411EA6
:100C5000EE4A11606FF07042ED49C1F884204FF008
:100C6000FF314FF0E022C2F880126FF07042E94984
:100C70000A6000BF04E00022E74941F82020401C40
:100C80000F28F8D3704700204FF02061E34A11602D
:100C90000021121D1160E249121D11600021121D78
:100CA0001160121D116000BF05E00022DB49143104
:100CB00041F82020401C0328F7D30021D74A2032D6
:100CC0001160491E121D1160121D1160121D11606C
:100CD0007047D3490143D14A083211607047F0B5DB
:100CE00000210022002300250F24C678002E36D0D4
:100CF000CA4E0836366806F4E066C6F5E066310A84
:100D0000C1F10405CC40467806FA05F18678264004
:100D1000314309010678B607F60EB140BE4E07789A
:100D2000BF1056F827200678B607F70EFF2606FAFA
:100D300007F39A4319400A43B74E0778BF1046F8A5
:100D40002720067806F01F070126BE4007787F118E
:100D50004FF0E02C0CEB8707C7F800610BE006783A
:100D600006F01F070126BE40A84F90F800C04FEACA
:100D70006C1C47F82C60F0BD00210170417081703F
:100D8000C170704710B5FFF704FA10BD10B5FFF73A
:100D9000FEF910BD10B5FFF701FA10BD10B5FFF751
:100DA000FFF910BD10B504462001FFF7FEF910BD94
:100DB00010B5FFF7FDF910BD98480068C0F3093081
:100DC000704710B501460020002201F01F040123E6
:100DD00003FA04F28D4B80334C1153F82430134046
:100DE000934201D1012000E0002010BD8D49086030
:100DF000704700F01F0201219140864A121F4311E3
:100E000042F82310704785480068C0F30900704716
:100E100010B501460020002201F01F04012303FA4F
:100E200004F27C4B7C334C1153F824301340934232
:100E300001D1012000E0002010BD7848001F0068AB
:100E40007047794A0A400243744B1B1D1A60704771
:100E50007348001D71490831086070477048401C94
:100E60006E4908310860704739B16C4A0C3212681B
:100E700002436A4B0C331A6006E0684A0C3212686F
:100E80008243664B0C331A60704710B5002200F0A5
:100E90001F04012303FA04F239B1604B20331B68AD
:100EA00013435E4C2034236006E05C4B20331B6808
:100EB00093435A4C2034236010BDF0B503460C46D2
:100EC00015460020FF2200260021544F08373F68B6
:100ED00007F4E067C7F5E067390AC1F10400CA40CA
:100EE00004FA00F105EA02073943090103F0C000E2
:100EF0008009C3F30122D700B9404FEAC20CFF2793
:100F000007FA0CF6454F143757F82070B743DFF84F
:100F10000CC10CF1140C4CF82070674657F8207087
:100F20000F434CF82070F0BD10B50246002000239E
:100F30000021910A01F00F01012404FA01F1374C5C
:100F40002034246804EA01038B4201D1012000E02F
:100F5000002010BD002100F01F01304A126801235B
:100F60008B401A432D4B1A60704710B5002100F0DA
:100F70001F012A4A12684B1E01249C402243274B22
:100F80001A6010BD10B50246002000230021C2F3F4
:100F90008331012404FA01F1204C2034246804EA4E
:100FA00001038B4201D1012000E0002010BD30B5CB
:100FB0000146002000220023C1F38142C1F3015306
:100FC0001AB9164C2834206811E0012A0CD1134CB0
:100FD00024342468DD0024FA05F0022B02D000F04E
:100FE0000F0004E0C0B202E00C4C2C34206830BD8D
:100FF000014600200022C1F380521AB9074B30335A
:10100000186802E0054B34331868704780E100E04F
:1010100000E100E084E200E000E400E004ED00E034
:101020000000FA0500EF00E080FFFF1F00204649A6
:101030000860091D0860091D0860091D0860434813
:101040004149143108607047817900293ED03E49FA
:101050000968026891433C4A1160111D09680268E1
:101060009143394A121D11600179121F8958026893
:1010700011430279344BD150334908310968026871
:101080009143314A08321160111D09680268914389
:101090002D4A0C321160417910290ED1111F0968B7
:1010A00002681143284A08321160111D096802685C
:1010B0001143254A0C32116010E04179224A8958C7
:1010C000026811434279204BD15007E001791E4A52
:1010D00089580268914302791B4BD1507047002117
:1010E000016001710C214171002181717047164925
:1010F000103109680143144A1032116070470146EB
:101100000020114A143212680A4201D0012000E086
:10111000002070470C4914310860704701460020D8
:101120000022094B1B6803EA0102074B14331B68BA
:101130000B4202D00AB1012000E0002070470249B2
:10114000143108607047000000040140FFFF0700F1
:1011500010B50121C802FFF780FB00214FF40060A9
:10116000FFF77BFB10BD0021164A126822F4C07104
:101170000143144A116070470021124A126822F09C
:101180007F0100F07F0211430E4A11607047012079
:101190000D490860704700F07F010A4A121F116074
:1011A000704740F08001074A121F116070470548E0
:1011B000001D0068C0B2704700200249091D086088
:1011C00070470000042C0040A4800542704700BF17
:1011D000FEE700BFFEE700BFFEE700BFFEE7704787
:1011E00070477047704710B57F20FFF7D4FFFFF7B7
:1011F000E3FF20A000F080F910BD704770477047F2
:101200007047704700BFFEE77047704770477047F0
:101210007047704770477047704770477047704716
:101220007047704770477047704770477047704706
:1012300070477047704770477047704770477047F6
:1012400070477047704770477047704770477047E6
:1012500070477047704770477047704770477047D6
:1012600070477047704770477047704770477047C6
:10127000704700000D0A205468652057696E646F3E
:10128000777320576174636820446F4720686173E7
:10129000206265656E2072657365742062792057DF
:1012A000574447200D0A000010B54FF4C070FFF7F7
:1012B0005AFF7F20FFF775FFFFF77EFFFFF767FFFD
:1012C00010BD1FB54FF4165000900020ADF804007B
:1012D000ADF80600ADF80800ADF80C000C20ADF834
:1012E0000A0069466348FFF742FB01216148FFF7A6
:1012F000ACFB1FBD1CB50120009000208DF8040040
:101300000C208DF8050001208DF806006846FFF7D7
:101310009BFE1CBD08B50120ADF8000048208DF8EB
:10132000030069465448FEF7DBFF00210846FFF73B
:10133000DBF84FF40070ADF8000018208DF80300C2
:1013400003208DF8020069464B48FEF7C9FF4FF4B1
:101350008060ADF8000004208DF80300694646481F
:10136000FEF7BEFF08BD08B54FF4A060FFF7B1FC63
:1013700006208DF8000000208DF801008DF8020095
:1013800001208DF803006846FFF7A9FC00208DF8C6
:10139000000001208DF8010000208DF80200684651
:1013A000FFF79DFC08BD10B5FFF7C8F84FF480307B
:1013B000FFF7E3F8FFF720F90446012C24D10020C1
:1013C000FFF75FF90020FFF75CF9A002FFF759F97A
:1013D0000220FEF7F9FE1020FEF70CFF4FF4E0119B
:1013E0002004FFF731F90120FFF73AF900BF392057
:1013F000FFF7E6F80028FAD00220FFF734F900BF23
:10140000FFF73AF90828FBD10121C802FFF7FEF9DE
:10141000012144F20400FFF7F9F910BDFFF7C3FF03
:10142000FFF7A1FFFFF776FFFFF764FFFFF749FF24
:101430007E20FFF7C5F828B110A000F05DF8FFF797
:1014400023FA04E0FFF730FF16A000F055F800BFC4
:10145000FEE770B504460D46E1B20648FFF75DFBB6
:1014600000BF40210348FFF7AFFB0028F9D020461A
:1014700070BD000000380140000801400D0A2054F2
:1014800068652053544D333220686173206265656E
:101490006E20726573657420627920575744472027
:1014A0000D0A00000D0A205468652053544D333254
:1014B000206861732774206265656E2072657365AC
:1014C000742062792057574447206265666F7265C1
:1014D000200D0A00064C074D06E0E06840F00103CD
:1014E00094E8070098471034AC42F6D3FEF724FE88
:1014F0005C1500087C150008014A024900F013B889
:10150000531400080000002002E008C8121F08C1A0
:10151000002AFAD170477047002001E001C1121F74
:10152000002AFBD170472DE9F04116460F460446CC
:10153000002503E03946B0476D1C641C2078002864
:10154000F8D12846BDE8F081000000000102030444
:101550000102030406070809020406087C150008B6
:101560000000002004000000081500088015000895
:10157000040000200404000018150008000000000A
:0400000508000131BD
:00000001FF
