:020000040800F2
:1000000010050020C10100082D1300082F1300085F
:1000100033130008371300083B13000800000000EA
:100020000000000000000000000000004113000874
:100030003F130008000000004313000845130008A8
:1000400051130008531300085513000857130008F4
:10005000591300085B1300085D1300085F130008C4
:100060006113000863130008651300086713000894
:10007000691300086B1300086D1300086F13000864
:100080007113000887130008891300088B130008F8
:100090008D1300088F1300089113000893130008B4
:1000A0009513000897130008991300089B13000884
:1000B0009D1300089F130008A1130008A313000854
:1000C000A5130008A7130008A9130008AB13000824
:1000D000AD130008AF130008B1130008B3130008F4
:1000E000B5130008B7130008B9130008BB130008C4
:1000F000BD130008BF130008C1130008C313000894
:10010000C5130008C7130008C9130008CB13000863
:10011000CD130008CF130008D1130008D313000833
:10012000D5130008D7130008D9130008DB13000803
:10013000DFF80CD001F0EEFA004800476315000824
:100140001005002030BF704720BF704740BF704788
:10015000BFF36F8F7047BFF34F8F7047BFF35F8F51
:10016000704701DF7047EFF31480704780F3148805
:10017000BFF36F8F7047EFF30980704780F30988F2
:100180007047EFF30880704780F30888704762B6C5
:10019000704772B67047EFF31080704771B67047C2
:1001A00061B67047EFF31380704780F31188704792
:1001B000EFF31280704740BA704700BA70470000F2
:1001C00000480047310100081049096801F0380172
:1001D0000E4A1160114609680143116070470B49CE
:1001E000096821F00801094A1160114609680143B4
:1001F000116070470549096821F01001034A116038
:100200001146096801431160704700000020024058
:1002100010B50446C549601A8C422FD009DCC44889
:10022000201810D0B0F5806F16D0B0F5006F4AD10D
:100230001BE0B0F5806F2AD0B0F5006F30D0B0F57C
:10024000406F40D135E00121042000F0F9FA00218F
:10025000042000F0F5FA37E00121082000F0F0FA60
:100260000021082000F0ECFA2EE00121102000F01F
:10027000E7FA0021102000F0E3FA25E00121202018
:1002800000F0DEFA0021202000F0DAFA1CE0012163
:10029000402000F0D5FA0021402000F0D1FA13E010
:1002A0000121802000F0CCFA0021802000F0C8FA63
:1002B0000AE00121080200F0C3FA00214FF4807027
:1002C00000F0BEFA00E000BF00BF10BD10B5012174
:1002D000084600F0B5FA0021012000F0B1FA10BD87
:1002E0002DE9F041024600250026002000230024CD
:1002F000002791F803C00CF00F0591F803C01CF023
:10030000100F03D091F802C04CEA050591F800C027
:10031000BCF1000F31D0146800202BE04FF0010C2D
:100320000CFA00F3B1F800C00CEA03069E4220D19B
:1003300083004FF00F0C0CFA03F7BC4305FA03FCE3
:100340004CEA040491F803C0BCF1280F06D14FF029
:10035000010C0CFA00FCC2F814C00AE091F803C0CA
:10036000BCF1480F05D14FF0010C0CFA00FCC2F8AB
:1003700010C0401C0828D1D31460B1F800C0BCF1F3
:10038000FF0F34DD546800202EE000F1080C4FF020
:10039000010808FA0CF3B1F800C00CEA03069E420B
:1003A00021D183004FF00F0C0CFA03F7BC4305FA80
:1003B00003FC4CEA040491F803C0BCF1280F05D1FA
:1003C00000F1080C08FA0CF8C2F8148091F803C088
:1003D000BCF1480F07D100F1080C4FF0010808FAF2
:1003E0000CF8C2F81080401C0828CED35460BDE839
:1003F000F0814FF6FF710180022181700421C170EC
:1004000070470246002093680B4201D0012000E0B3
:10041000002070470146886880B27047024600207D
:10042000D3680B4201D0012000E000207047014654
:10043000C86880B2704701617047416170470AB176
:10044000016100E041617047C16070474FF4803244
:100450000A438261816182618269826970470246D2
:100460000020344B18684FF68073184040EA0210A1
:100470000843304B186070472F49C8617047F0B58A
:100480000A4600230024002100252A4E7168C0F38B
:10049000034583B200F44016B6F5401F08D121F0A1
:1004A0007061244E766826F07066224F7E6012E0FE
:1004B00000F48016B6F5801F06D1032606FA05F46F
:1004C000A14341F0706106E0460D360103FA06F6DD
:1004D000B14341F0706122B1460D360103FA06F6D0
:1004E0003143144E7160F0BD30B500228B071C0FF4
:1004F0000F2303FA04F20F4B08338C1053F8243007
:1005000093430C4C08348D1044F8253023468C104E
:1005100053F824308C07240F00FA04F42343054CCD
:1005200008348D1044F8253030BD0000001401401F
:1005300000F8FEBF0000014000002042DC480068D7
:1005400040F00100DA49086008464068D94908408F
:10055000D749486008460068D7490840D449086030
:100560000846006820F4802008600846406820F4AF
:10057000FE004860002088607047CD49096821F47A
:100580008031CB4A11601146096821F48021116045
:10059000B0F5803F03D0B0F5802F0ED106E0C449FE
:1005A000096841F48031C24A116007E0C049096816
:1005B00041F4A021BE4A116000E000BF00BF7047B7
:1005C00010B501460022002300204A11012A02D161
:1005D000B74C236806E0022A02D1B54C236A01E039
:1005E000B34C636A01F01F02012494401C4201D005
:1005F000012000E0002010BD38B50020009000244C
:10060000002500BF3120FFF7DBFF05460098401CA6
:1006100000901DB90098B0F5A06FF3D13120FFF71D
:10062000CFFF08B1012400E00024204638BD014678
:1006300000209F4A106820F0F80040EAC1001060D6
:1006400070479E490860704702460020984B5868E2
:1006500020F47C1042EA01031843954B5860704720
:1006600096490866704701460020914A506820F07C
:1006700003000843506070478D48406800F00C004C
:100680007047014600208A4A506820F0F000084375
:100690005060704701460020854A506820F4E060B1
:1006A00008435060704701460020814A506820F49A
:1006B000605040EAC1005060704729B17C4A527ACC
:1006C00002437B4B5A7204E0794A527A8243784B58
:1006D0005A7270477A490860704701460020744A90
:1006E000506820F440400843506070470021754A2C
:1006F00011706F4A82F82010012802D0042808D116
:1007000003E001216F4A117004E005216D4A117068
:1007100000E000BF00BF70476B4908607047644944
:10072000096A0143624A11627047674944390860A7
:10073000704730B500210022002400235C4D6D6815
:1007400005F00C0121B1042905D0082923D105E0C9
:100750005E4D056022E05D4D05601FE0544D6D6803
:1007600005F47012022505EB9242514D6D6805F4B7
:1007700080341CB9564D554305600BE04C4D6D68F7
:1007800015F4003F03D0524D5543056002E04F4D34
:100790005543056002E04D4D056000BF00BF444D6C
:1007A0006D6805F0F00109094A4D6B5C0568DD4094
:1007B00045603F4D6D6805F4E061090A454D6B5C8D
:1007C0004568DD4085603A4D6D6805F46051C90AA1
:1007D000404D6B5C4568DD40C560354D6D6805F486
:1007E0004041890B3C4D6B5CC568B5FBF3F5056179
:1007F00030BD29B12E4A526902432D4B5A6104E0A3
:100800002B4A526982432A4B5A61704729B1284AC0
:1008100092690243264B9A6104E0254A9269824319
:10082000234B9A61704729B1214AD2690243204B78
:10083000DA6104E01E4AD26982431D4BDA617047D7
:1008400029B11B4AD2680243194BDA6004E0184A06
:10085000D2688243164BDA60704729B1144A126994
:100860000243134B1A6104E0114A12698243104B90
:100870001A61704714494039086070470F49C864CD
:1008800070470B49C87170470948406A40F0807052
:1008900007494862704701460020054A92680A42AB
:1008A00001D0012000E000207047014988727047A4
:1008B000001002400000FFF8FFFFF6FE0000424279
:1008C000D8004242201002408004424200127A00C6
:1008D00000093D00CC180008DC1800080020411E6B
:1008E000EE4A11606FF07042ED49C1F884204FF07C
:1008F000FF314FF0E022C2F880126FF07042E949F8
:100900000A6000BF04E00022E74941F82020401CB3
:100910000F28F8D3704700204FF02061E34A1160A0
:100920000021121D1160E249121D11600021121DEB
:100930001160121D116000BF05E00022DB49143177
:1009400041F82020401C0328F7D30021D74A203249
:100950001160491E121D1160121D1160121D1160DF
:100960007047D3490143D14A083211607047F0B54E
:1009700000210022002300250F24C678002E36D047
:10098000CA4E0836366806F4E066C6F5E066310AF7
:10099000C1F10405CC40467806FA05F18678264078
:1009A000314309010678B607F60EB140BE4E07780E
:1009B000BF1056F827200678B607F70EFF2606FA6E
:1009C00007F39A4319400A43B74E0778BF1046F819
:1009D0002720067806F01F070126BE4007787F1102
:1009E0004FF0E02C0CEB8707C7F800610BE00678AE
:1009F00006F01F070126BE40A84F90F800C04FEA3E
:100A00006C1C47F82C60F0BD0021017041708170B2
:100A1000C170704710B5FFF7BCFB10BD10B5FFF7F4
:100A2000B6FB10BD10B5FFF7B9FB10BD10B5FFF751
:100A3000B7FB10BD10B504462001FFF7B6FB10BD93
:100A400010B5FFF7B5FB10BD98480068C0F309303A
:100A5000704710B501460020002201F01F04012359
:100A600003FA04F28D4B80334C1153F824301340B9
:100A7000934201D1012000E0002010BD8D490860A3
:100A8000704700F01F0201219140864A121F431156
:100A900042F82310704785480068C0F3090070478A
:100AA00010B501460020002201F01F04012303FAC3
:100AB00004F27C4B7C334C1153F8243013409342A6
:100AC00001D1012000E0002010BD7848001F00681F
:100AD0007047794A0A400243744B1B1D1A607047E5
:100AE0007348001D71490831086070477048401C08
:100AF0006E4908310860704739B16C4A0C3212688F
:100B000002436A4B0C331A6006E0684A0C321268E2
:100B10008243664B0C331A60704710B5002200F018
:100B20001F04012303FA04F239B1604B20331B6820
:100B300013435E4C2034236006E05C4B20331B687B
:100B400093435A4C2034236010BDF0B503460C4645
:100B500015460020FF2200260021544F08373F6829
:100B600007F4E067C7F5E067390AC1F10400CA403D
:100B700004FA00F105EA02073943090103F0C00055
:100B80008009C3F30122D700B9404FEAC20CFF2706
:100B900007FA0CF6454F143757F82070B743DFF8C3
:100BA0000CC10CF1140C4CF82070674657F82070FB
:100BB0000F434CF82070F0BD10B502460020002312
:100BC0000021910A01F00F01012404FA01F1374CD0
:100BD0002034246804EA01038B4201D1012000E0A3
:100BE000002010BD002100F01F01304A12680123CF
:100BF0008B401A432D4B1A60704710B5002100F04E
:100C00001F012A4A12684B1E01249C402243274B95
:100C10001A6010BD10B50246002000230021C2F367
:100C20008331012404FA01F1204C2034246804EAC1
:100C300001038B4201D1012000E0002010BD30B53E
:100C40000146002000220023C1F38142C1F3015379
:100C50001AB9164C2834206811E0012A0CD1134C23
:100C600024342468DD0024FA05F0022B02D000F0C1
:100C70000F0004E0C0B202E00C4C2C34206830BD00
:100C8000014600200022C1F380521AB9074B3033CD
:100C9000186802E0054B34331868704780E100E0C3
:100CA00000E100E084E200E000E400E004ED00E0A8
:100CB0000000FA0500EF00E080FFFF1F016821F04F
:100CC000010101600021016041608160C160864ACC
:100CD000811A90425BD012DC844AA0EB0201904260
:100CE0003AD007DC824941181BD0142922D0282988
:100CF0007AD128E0142938D0282975D13EE0B1F501
:100D00006C7F5BD006DCB1F5627F49D0B1F5677FBF
:100D10006AD14CE0B1F5717F57D0B1F5767F63D1E0
:100D20005BE072494439496841F00F016F4A443A27
:100D300051605AE06D494439496841F0F0016B4A0D
:100D4000443A516051E069494439496841F470615D
:100D5000664A443A516048E064494439496841F47C
:100D60007041624A443A51603FE060494439496801
:100D700041F470215D4A443A516036E05B494439A0
:100D8000496841F47001594A443A51602DE057498D
:100D90004439496841F07061544A443A516024E052
:100DA0005449096841F00F01524A11601DE0514950
:100DB000096841F0F0014F4A116016E04D49096899
:100DC00041F470614B4A11600FE04A49096841F4EF
:100DD0007041484A116008E006E04649096841F45C
:100DE0007021444A116000E000BF00BF704710B599
:100DF0000022026847F6F0739A430C6A8B6823431B
:100E00000C6923434C6923438C692343CC692343F6
:100E10004C6A23438C6A23431A430260CB684360C5
:100E20000B6883604B68C36010BD002101604160A6
:100E30008160C160016141618161C16101624162A2
:100E40008162704721B1026842F00102026003E052
:100E5000026822F00102026070471AB103680B4376
:100E6000036002E003688B430360704701464868F3
:100E700080B2704701460020002211F0805F03D04D
:100E80001C4B1B1F1A6802E0184B443B1A680A42AD
:100E900001D0012000E00020704710F0805F02D0F8
:100EA0001449086002E0114944394860704701461E
:100EB0000020002211F0805F03D00E4B1B1F1A6828
:100EC00002E00A4B443B1A680A4201D0012000E0CC
:100ED0000020704710F0805F02D00649086002E0F1
:100EE0000249443948607047800002404400024093
:100EF000F8FFFDBF04040240042808D14FF0E021B0
:100F0000096941F004014FF0E022116107E04FF060
:100F1000E021096921F004014FF0E02211617047DE
:100F20004FF0E02148617047012808D14FF0E021DF
:100F3000096941F001014FF0E02211610EE0811CCE
:100F400008D14FF0E021096921F001014FF0E022C2
:100F5000116103E000214FF0E0229161704740B140
:100F60004FF0E021096941F002014FF0E0221161E8
:100F700007E04FF0E021096921F002014FF0E02283
:100F8000116170474FF0E0208069704710B501464D
:100F9000002200230020CB10022B03D14FF0E024CD
:100FA000226902E04FF0E024E26901248C401442FF
:100FB00001D0012000E0002010BD000010B5044663
:100FC000D749601A8C422BD006DCD648201813D0A3
:100FD000B0F5806F38D119E0B0F5806F2AD0B0F548
:100FE0006C4F31D101218803FFF72AFC00214FF417
:100FF0008040FFF725FC28E001214804FFF72DFC85
:1010000000214FF40030FFF728FC1EE00121880486
:10101000FFF723FC00214FF48020FFF71EFC14E0B3
:101020000121C804FFF719FC00214FF40020FFF74D
:1010300014FC0AE001210805FFF70FFC00214FF422
:101040008010FFF70AFC00E000BF00BF10BD2DE9D3
:10105000F04786B005460E460024A24600BF00BFFA
:1010600000272F462C8A4CF6FF700440F08804437A
:101070002C82AC894EF6F3100440B08831890843C5
:10108000718908430443AC81AC8A4FF6FF400440A9
:10109000B0890443AC8201A8FFF74BFBA24887420A
:1010A00002D1DDF810A001E0DDF80CA00AEBCA00C7
:1010B00000EB0A1031688900B0FBF1F86420B8FB3E
:1010C000F0F004012009642101FB1089322000EBBB
:1010D0000910B0FBF1F000F00F0004432C8106B0C2
:1010E000BDE8F0874FF41651016000218180C18076
:1010F00001810C21418100218181704710B5024698
:101100000020108A4FF2FF0318400B884C882343BD
:101110008C882343CC8823431843108210BD0021C0
:10112000018041808180C180704721B1828942F471
:101130000052828104E082894DF6FF731A40828159
:101140007047F0B50346002400260025002018460D
:10115000C1F3421401F01F06012707FA06F5012C1E
:1011600001D10C3004E0022C01D1103000E0143029
:101170001AB107682F43076002E00768AF430760B2
:10118000F0BD1AB1838A0B43838202E0838A8B43CA
:1011900083827047028A4FF6F0731A400282028AF5
:1011A0000A430282704782894FF2FF731A4082819C
:1011B00082890A438281704721B1828942F002020A
:1011C000828104E082894FF6FD731A408281704764
:1011D000028A4FF6DF731A400282028A0A430282B1
:1011E000704721B1028A42F48042028204E0028AFE
:1011F0004BF6FF731A4002827047C1F308028280E7
:10120000704701468888C0F308007047818941F023
:10121000010181817047028BD2B20283028B42EAC4
:10122000012202837047028B02F47F420283028B09
:101230000A430283704721B1828A42F020028282EF
:1012400004E0828A4FF6DF731A408282704721B130
:10125000828A42F01002828204E0828A4FF6EF73A3
:101260001A408282704721B1828A42F0080282824B
:1012700004E0828A4FF6F7731A4082827047828AAE
:101280004FF6FB731A408282828A0A438282704739
:1012900021B1828A42F00202828204E0828A4FF601
:1012A000FD731A40828270470246002013880B4269
:1012B00001D0012000E000207047CA43028070473F
:1012C00070B502460B460024002100250020C3F320
:1012D000421503F01F01012606FA01F1012D02D18A
:1012E0009689314006E0022D02D1168A314001E094
:1012F000968A31401C12012606FA04F416883440FE
:1013000011B10CB1012000E0002070BD10B5002229
:1013100000230A1201249440A3B2DC43048010BDD0
:10132000004C004000BCFFBF00380140704700BFC8
:10133000FEE700BFFEE700BFFEE700BFFEE7704725
:101340007047704725480068401C24490860704772
:1013500070477047704770477047704770477047D5
:1013600070477047704770477047704770477047C5
:1013700010B51B48FFF77AFD1A4908804FF480101A
:10138000FFF7A8FD10BD7047704770477047704762
:101390007047704770477047704770477047704795
:1013A0007047704770477047704770477047704785
:1013B0007047704770477047704770477047704775
:1013C0007047704770477047704770477047704765
:1013D000704770477047704770477047040000209F
:1013E0006C0002400000002010B56FF00400FFF711
:1013F00083FD0920FFF794FD0120FFF795FD0120F3
:10140000FFF7ADFD10BD00B58BB08648FFF756FC69
:10141000854800908548019000200290202003908C
:101420004020049080200590000107900020089043
:101430004FF40050099040000A9069467948FFF740
:10144000D6FC012202217748FFF707FD7548FFF718
:101450000DFD774908800BB000BD1FB54FF4165045
:1014600000900020ADF80400ADF80600ADF80800CB
:10147000ADF80C000C20ADF80A0069466D48FFF786
:10148000E6FD01216B48FFF750FE1FBD08B54FF484
:101490000070ADF8000018208DF8030003208DF8CF
:1014A00002004FF48060ADF8000004208DF80300C6
:1014B00069466148FEF714FF08BD08B500214FF0EA
:1014C0000060FFF706FB4FF4E060FFF74AFA1020D8
:1014D0008DF8000000208DF801008DF80200012039
:1014E0008DF803006846FFF742FA08BD10B5FFF714
:1014F00025F84FF48030FFF740F8FFF77DF80446F9
:10150000012C24D10020FFF7BCF80020FFF7B9F828
:10151000A002FFF7B6F80220FEF756FE1020FEF7F5
:1015200069FE4FF4E0112004FFF78EF80120FFF769
:1015300097F800BF3920FFF743F80028FAD00220BF
:10154000FFF791F800BFFFF797F80828FBD10121BA
:1015500044F20400FFF75AF901210846FFF749F960
:1015600010BD0024002500BFFFF7C0FFFFF7A5FF57
:10157000FFF78CFFFFF771FFFFF745FFFFF734FF21
:1015800000202E49086000BF07E0274850F82400DB
:10159000264941F82400601CC4B2202CF5DB274802
:1015A0000068C5B2002405E00020204941F824006D
:1015B000601CC4B2202CF7DB002020490860012108
:1015C0001848FFF73FFC00BF194800880028FBD1EE
:1015D0001A48006820221549134800F075F818B918
:1015E00017A000F0A9F802E01BA000F0A5F829461A
:1015F0001FA000F0A1F8294628A000F09DF800BF28
:10160000FEE770B504460D46E1B20A48FFF7F5FD66
:1016100000BF40210748FFF747FE0028F9D02046C9
:1016200070BD00006C000240080000208C0000200B
:1016300000000020003801400008014004000020A4
:101640000D0A5472616E736D69742053756363651E
:10165000737321200D0A00000D0A5472616E736DC0
:101660006974204661756C7421200D0A0000000029
:101670000D0A54686520435055207472616E73667C
:1016800065722C74696D6520636F6E73756D653A54
:101690002564757321200A0D000000000D0A5468AE
:1016A0006520444D41207472616E736665722C74BE
:1016B000696D6520636F6E73756D653A256475732A
:1016C00021200A0D0000000030B505460020034629
:1016D00000E05B1C934205D2EC5CC85C201A01D18F
:1016E000002CF6D130BD30B50B460146002020223B
:1016F000012409E021FA02F59D4205D303FA02F51F
:10170000491B04FA02F52844151EA2F10102F1DC7E
:1017100030BD0000064C074D06E0E06840F00103D4
:1017200094E8070098471034AC42F6D3FEF704FD66
:10173000E0180008001900080FB4054B10B503A904
:10174000044A029800F018F810BC5DF814FB000081
:10175000031600088800002002E008C8121F08C114
:10176000002AFAD170477047002001E001C1121F22
:10177000002AFBD1704700002DE9FF4F89B09B463E
:101780000446002597E0252833D10027641C4E49E4
:10179000B84601222378203B02FA03F0084202D027
:1017A0000743641CF6E720782E2819D114F8010F9E
:1017B00047F004072A280ED06FF02F022078A0F1FE
:1017C000300109290CD808EB880102EB410100EB3C
:1017D0000108641CF2E70A98641C50F8048B0A9014
:1017E000207800286BD0642808D0692806D0752896
:1017F00020D05A460B9990476D1C5BE00A994FF038
:101800000A0901C90A91002804DAC0F100004FF06A
:101810002D0102E0390504D52B218DF8201001217E
:1018200003E0F90704D02021F7E78A4608AE0EE06E
:101830000021FAE70A994FF00A0901C90A91F7E76E
:101840004946FFF750FF01F1300106F8011D00285D
:10185000F6D1ADEB060000F12009780701D44FF076
:101860000108C84502DDA8EB090000E00020804621
:10187000002706E008A85A46C05D0B9990476D1CEA
:101880007F1C5745F6DB04E030205A460B99904701
:101890006D1CB8F10001A8F10108F5DC05E016F8AF
:1018A000010B5A460B9990476D1CB9F10001A9F143
:1018B0000109F4DC641C207800287FF464AF0DB0CB
:1018C0002846BDE8F08F0000092801000000000054
:1018D00001020304010203040607080902040608C2
:1018E00000190008000000208C00000058170008B4
:1018F0008C1900088C000020840400006817000880
:1019000000000000000000000403020108070605B3
:101910000C0B0A09100F0E0D1413121118171615BF
:101920001C1B1A19201F1E1D2423222128272625AF
:101930002C2B2A29302F2E2D34333231383736359F
:101940003C3B3A39403F3E3D444242414847464590
:101950004C4B4A49504F4E4D545252515857565580
:101960005C5B5A59605F5E5D646262616867666570
:101970006C6B6A69706F6E6D74737271787776755F
:0C1980007C7B7A7980EF767D000000000F
:0400000508000131BD
:00000001FF
