:020000040800F2
:100000000804002045010008D50B0008D70B0008A4
:10001000DB0B0008DF0B0008E30B0008000000000A
:10002000000000000000000000000000E90B0008D4
:10003000E70B000800000000EB0B0008ED0B0008C8
:10004000EF0B0008F10B0008F30B0008F50B00089C
:10005000F70B0008F90B0008FB0B0008FD0B00086C
:10006000FF0B0008010C0008030C0008050C000839
:10007000070C0008090C00080B0C00080D0C000808
:100080000F0C0008110C0008130C0008150C0008D8
:10009000170C0008190C00081B0C00081D0C0008A8
:1000A0001F0C0008210C0008230C0008250C000878
:1000B000270C0008290C00082B0C00082D0C000848
:1000C0002F0C0008310C0008330C0008350C000818
:1000D000370C0008390C00083B0C00083D0C0008E8
:1000E0003F0C0008410C0008430C0008450C0008B8
:1000F000470C0008490C00084B0C00084D0C000888
:100100004F0C0008510C0008530C0008550C000857
:10011000570C0008590C00085B0C00085D0C000827
:100120005F0C0008610C0008630C0008650C0008F7
:10013000DFF80CD000F056FE004800473F0D0008E5
:1001400008040020004800473101000810490968F0
:1001500001F038010E4A116011460968014311602F
:1001600070470B49096821F00801094A11601146DE
:1001700009680143116070470549096821F01001C1
:10018000034A11601146096801431160704700007D
:100190000020024010B50446C649601A8C422FD098
:1001A00009DCC548204480B1B0F5806F16D0B0F5A9
:1001B000006F4AD11BE0B0F5806F2AD0B0F5006F18
:1001C00030D0B0F5406F40D135E00121042000F07F
:1001D000FFFA0021042000F0FBFA37E0012108209B
:1001E00000F0F6FA0021082000F0F2FA2EE00121DA
:1001F000102000F0EDFA0021102000F0E9FA25E0CF
:100200000121202000F0E4FA0021202000F0E0FA93
:100210001CE00121402000F0DBFA0021402000F02A
:10022000D7FA13E00121802000F0D2FA00218020CB
:1002300000F0CEFA0AE00121080200F0C9FA00211C
:100240004FF4807000F0C4FA00E000BF00BF10BDA2
:1002500010B50121084600F0BBFA0021012000F092
:10026000B7FA10BD2DE9F041024600250026002016
:1002700000230024002791F803C00CF00F0591F82B
:1002800003C00CF0100CBCF1000F03D091F802C0B9
:100290004CEA050591F800C0BCF1000F31D014689C
:1002A00000202BE04FF0010C0CFA00F3B1F800C075
:1002B0000CEA03069E4220D183004FF00F0C0CFA8B
:1002C00003F7BC4305FA03FC4CEA040491F803C0AD
:1002D000BCF1280F06D14FF0010C0CFA00FCC2F85B
:1002E00014C00AE091F803C0BCF1480F05D14FF0EB
:1002F000010C0CFA00FCC2F810C0401C0828D1D335
:100300001460B1F800C0BCF1FF0F34DD5468002068
:100310002EE000F1080C4FF0010808FA0CF3B1F8D8
:1003200000C00CEA03069E4221D183004FF00F0C5F
:100330000CFA03F7BC4305FA03FC4CEA040491F8F9
:1003400003C0BCF1280F05D100F1080C08FA0CF825
:10035000C2F8148091F803C0BCF1480F07D100F136
:10036000080C4FF0010808FA0CF8C2F81080401C85
:100370000828CED35460BDE8F0814FF6FF710180AC
:10038000022181700421C1707047024600209368E9
:100390000B400BB1012000E0002070470146886847
:1003A00080B2704702460020D3680B400BB1012099
:1003B00000E0002070470146C86880B270470161C4
:1003C0007047416170470AB1016100E041617047C7
:1003D000C16070474FF480320A438261816182615B
:1003E00082698269704702460020344B18684FF6D4
:1003F0008073184040EA02100843304B1860704781
:100400002F49C8617047F0B50A4600230024002137
:1004100000252A4E7168C0F3034583B200F44016EC
:10042000B6F5401F08D121F07061244E766826F0A1
:100430007066224F7E6012E000F48016B6F5801FD1
:1004400006D1032606FA05F4A14341F0706106E0E7
:10045000460D360103FA06F6B14341F0706122B150
:10046000460D360103FA06F63143144E7160F0BDB5
:1004700030B500228B071C0F0F2303FA04F20F4B39
:1004800008338C1053F8243093430C4C08348D10EF
:1004900044F8253023468C1053F824308C07240F61
:1004A00000FA04F42343054C08348D1044F8253039
:1004B00030BD00000014014000F8FEBF0000014004
:1004C00000002042DE48006840F00100DC4908607E
:1004D00008464068DB490840D9494860084600683A
:1004E000D9490840D64908600846006820F48020B1
:1004F00008600846406820F4FE00486000208860DC
:100500007047CF49096821F48031CD4A1160114606
:10051000096821F480211160B0F5803F03D0B0F567
:10052000802F0ED106E0C649096841F48031C44AE3
:10053000116007E0C249096841F4A021C04A116076
:1005400000E000BF00BF704710B501460022002345
:1005500000204A11012A02D1B94C236806E0022A80
:1005600002D1B74C236A01E0B54C636A01F01F0267
:10057000012494401C400CB1012000E0002010BD7B
:1005800038B5002000900024002500BF3120FFF77F
:10059000DBFF05460098401C00901DB90098B0F59F
:1005A000A06FF3D13120FFF7CFFF08B1012400E0A5
:1005B0000024204638BD01460020A14A106820F0E2
:1005C000F80040EAC10010607047A0490860704719
:1005D000024600209A4B586820F47C1042EA01033E
:1005E0001843974B58607047984908667047014612
:1005F0000020934A506820F0030008435060704781
:100600008F48406800F00C007047014600208C4A7B
:10061000506820F0F0000843506070470146002009
:10062000874A506820F4E0600843506070470146F4
:100630000020834A506820F4605040EAC1005060B6
:10064000704729B17E4A527A02437D4B5A7204E0C8
:100650007B4A527A82437A4B5A7270477B49D8312F
:100660000860704701460020754A506820F44040F9
:100670000843506070470021714A20321170704A5F
:1006800082F82010012802D004280AD104E00121B8
:100690006B4A2032117005E00521694A2032117041
:1006A00000E000BF00BF70476949086070476449B7
:1006B000096A0143624A116270476549443908601A
:1006C000704730B500210022002400235C4D6D6886
:1006D00005F00C0121B1042905D0082923D105E03A
:1006E0005C4D056022E05B4D05601FE0544D6D6878
:1006F00005F47012022505EB9242514D6D6805F428
:1007000080341CB9544D554305600BE04C4D6D6869
:1007100005F400351DB1504D5543056002E04D4DC7
:100720005543056002E04B4D056000BF00BF444DDE
:100730006D6805F0F0010909484D6B5C0568DD4006
:1007400045603F4D6D6805F4E061090A434D6B5CFF
:100750004568DD4085603A4D6D6805F46051C90A11
:100760003E4D6B5C4568DD40C560354D6D6805F4F8
:100770004041890B3A4D6B5CC568B5FBF3F50561EB
:1007800030BD29B12E4A526902432D4B5A6104E013
:100790002B4A526982432A4B5A61704729B1284A31
:1007A00092690243264B9A6104E0254A926982438A
:1007B000234B9A61704729B1214AD2690243204BE9
:1007C000DA6104E01E4AD26982431D4BDA61704748
:1007D00029B11B4AD2680243194BDA6004E0184A77
:1007E000D2688243164BDA60704729B1144A126905
:1007F0000243134B1A6104E0114A12698243104B01
:100800001A61704712494039086070470F49C8643F
:1008100070470B49C87170470948406A40F08070C2
:1008200007494862704701460020054A92680A401D
:100830000AB1012000E0002070470149887270472A
:10084000001002400000FFF8FFFFF6FE00004242E9
:100850008004424200127A0000093D00580E000850
:10086000680E000810B50446D749601A8C422BD098
:1008700006DCD648204498B1B0F5806F38D119E035
:10088000B0F5806F2AD0B0F56C4F31D101218803CB
:10089000FFF79EFF00214FF48040FFF799FF28E00B
:1008A00001214804FFF7A1FF00214FF40030FFF7BA
:1008B0009CFF1EE001218804FFF797FF00214FF401
:1008C0008020FFF792FF14E00121C804FFF78DFF9D
:1008D00000214FF40020FFF788FF0AE001210805FE
:1008E000FFF783FF00214FF48010FFF77EFF00E049
:1008F00000BF00BF10BD2DE9F04786B005460E468B
:100900000024A24600BF00BF00272F462C8A4CF6C9
:10091000FF700440F08804432C82AC894EF6F3103B
:100920000440B08831890843718908430443AC818D
:10093000AC8A4FF6FF400440B0890443AC8201A862
:10094000FFF7BFFEA248874202D1DDF810A001E008
:10095000DDF80CA00AEBCA0000EB0A103168890030
:10096000B0FBF1F86420B8FBF0F004012009642129
:1009700001FB1089322000EB0910B0FBF1F000F010
:100980000F0004432C8106B0BDE8F0874FF41651E8
:10099000016000218180C18001810C214181002101
:1009A0008181704710B502460020108A4FF2FF0384
:1009B00018400B884C8823438C882343CC882343DE
:1009C0001843108210BD0021018041808180C180C8
:1009D000704721B1828942F40052828104E0828909
:1009E0004DF6FF731A4082817047F0B5034600242C
:1009F0000026002500201846C1F3421401F01F060E
:100A0000012707FA06F5012C01D10C3004E0022C75
:100A100001D1103000E014301AB107682F4307608D
:100A200002E00768AF430760F0BD1AB1838A0B4349
:100A3000838202E0838A8B4383827047028A4FF667
:100A4000F0731A400282028A0A4302827047828946
:100A50004FF2FF731A40828182890A438281704774
:100A600021B1828942F00202828104E082894FF63C
:100A7000FD731A4082817047028A4FF6DF731A4075
:100A80000282028A0A430282704721B1028A42F43A
:100A90008042028204E0028A4BF6FF731A4002820F
:100AA0007047C1F308028280704701468888C0F30E
:100AB00008007047818941F0010181817047028BF4
:100AC000D2B20283028B42EA012202837047028B78
:100AD00002F47F420283028B0A430283704721B1F2
:100AE000828A42F02002828204E0828A4FF6DF731B
:100AF0001A408282704721B1828A42F010028282BB
:100B000004E0828A4FF6EF731A408282704721B167
:100B1000828A42F00802828204E0828A4FF6F773EA
:100B20001A4082827047828A4FF6FB731A40828293
:100B3000828A0A438282704721B1828A42F002028D
:100B4000828204E0828A4FF6FD731A4082827047E7
:100B50000246002013880B400BB1012000E000206A
:100B60007047CA430280704770B502460B460024A6
:100B7000002100250020C3F3421503F01F010126C8
:100B800006FA01F1012D02D19689314006E0022DCD
:100B900002D1168A314001E0968A31401C120126AA
:100BA00006FA04F41688344011B10CB1012000E0BB
:100BB000002070BD10B5002200230A1201249440C9
:100BC000A3B2DC43048010BD004C004000BCFFBF5A
:100BD00000380140704700BFFEE700BFFEE700BFDE
:100BE000FEE700BFFEE770477047704770477047E9
:100BF000704770477047704770477047704770473D
:100C0000704770477047704770477047704770472C
:100C1000704770477047704770477047704770471C
:100C2000704770477047704770477047704770470C
:100C300070477047704770477047704770477047FC
:100C400070477047704770477047704770477047EC
:100C500070477047704770477047704770477047DC
:100C600070477047704700001FB54FF41650009052
:100C70000020ADF80400ADF80600ADF80800ADF8AE
:100C80000C000C20ADF80A0069464A48FFF733FE15
:100C900001214848FFF79DFE1FBD08B54FF40070C5
:100CA000ADF8000018208DF8030003208DF8020035
:100CB00069464148FFF7D6FA4FF48060ADF800006E
:100CC00004208DF8030069463B48FFF7CBFA08BDC6
:100CD00010B5FFF7F7FB4FF48030FFF712FCFFF77A
:100CE0004FFC0446012C24D10020FFF78EFC00208D
:100CF000FFF78BFCA002FFF788FC0220FFF726FA23
:100D00001020FFF739FA4FF4E0112004FFF760FCE0
:100D10000120FFF769FC00BF3920FFF715FC002810
:100D2000FAD00220FFF763FC00BFFFF769FC082838
:100D3000FBD1012144F20400FFF730FD10BD08B5DE
:100D400000200090FFF7C4FFFFF7A7FFFFF78CFF1D
:100D50001EE040F225511748FFF7FAFE012814D192
:100D60001448FFF7A2FE044621461248FFF799FEF9
:100D70000020009004E0BDF80000401C80B200900C
:100D8000BDF80000B0F5FA7FF5DB0CA000F03CF8F0
:100D9000DFE770B504460D46E1B20648FFF781FE75
:100DA00000BF40210348FFF7D3FE0028F9D02046BA
:100DB00070BD000000380140000801400D0A576571
:100DC0006C636F6D6520746F2043455041524B201A
:100DD00053544D333220446576656C6F70204B69F7
:100DE000740D0A00064C074D06E0E06840F0010370
:100DF00094E8070098471034AC42F6D3FFF79CF90B
:100E00006C0E00088C0E0008014A024900F013B86D
:100E1000930D00080000002002E008C8121F08C15E
:100E2000002AFAD170477047002001E001C1121F6B
:100E3000002AFBD170472DE9F04116460F460446C3
:100E4000002503E03946B047641C6D1C207800285B
:100E5000F8D12846BDE8F08100000000010203043B
:100E60000102030406070809020406088C0E0008A4
:100E70000000002004000000180E0008900E00087A
:100E80000400002004040000280E000800000000F8
:0400000508000131BD
:00000001FF
