:020000040800F2
:1000000060080020B1010008AF090008B10900082C
:10001000B5090008B9090008BD0900080000000082
:10002000000000000000000000000000C3090008FC
:10003000C109000800000000C5090008C709000840
:10004000C9090008CB090008CD090008CF0900083C
:10005000D1090008D3090008D5090008D70900080C
:10006000D9090008DB090008DD090008DF090008DC
:10007000E1090008E3090008E5090008E7090008AC
:10008000E9090008EB090008ED090008EF0900087C
:10009000F1090008F3090008F5090008F70900084C
:1000A000F9090008FB090008FD090008FF0900081C
:1000B000010A0008030A0008050A0008070A0008E8
:1000C000090A00080B0A00080D0A00080F0A0008B8
:1000D000110A0008130A0008150A0008170A000888
:1000E000190A00081B0A00081D0A00081F0A000858
:1000F000210A0008230A0008250A0008270A000828
:10010000290A00082B0A00082D0A00082F0A0008F7
:10011000310A0008330A0008350A0008370A0008C7
:10012000390A00083B0A00083D0A00083F0A000897
:1001300000F002F800F02CF80AA090E8000C8244CD
:100140008344AAF10107DA4501D100F021F8AFF2AA
:10015000090EBAE80F0013F0010F18BFFB1A43F0A5
:1001600001031847680A0000780A000000230024F1
:1001700000250026103A28BF78C1FBD8520728BFB7
:1001800030C148BF0B6070471FB51FBD10B510BD13
:1001900000F0DBFC1146FFF7F7FF00F0B8FC00F0C1
:1001A000F9FC03B4FFF7F2FF03BC00F0FDFC000014
:1001B0000348004703480449044A054B70470000C0
:1001C0003101000860000020600800206004002069
:1001D000600400201049096801F038010E4A1160DE
:1001E000114609680143116070470B49096821F005
:1001F0000801094A116011460968014311607047FE
:100200000549096821F01001034A11601146096887
:1002100001431160704700000020024010B5044601
:10022000C649601A8C422FD009DCC548204480B1F1
:10023000B0F5806F16D0B0F5006F4AD11BE0B0F575
:10024000806F2AD0B0F5006F30D0B0F5406F40D14C
:1002500035E00121042000F0FFFA0021042000F025
:10026000FBFA37E00121082000F0F6FA002108200F
:1002700000F0F2FA2EE00121102000F0EDFA00214A
:10028000102000F0E9FA25E00121202000F0E4FA36
:100290000021202000F0E0FA1CE00121402000F0C5
:1002A000DBFA0021402000F0D7FA13E00121802082
:1002B00000F0D2FA0021802000F0CEFA0AE00121FD
:1002C000080200F0C9FA00214FF4807000F0C4FA6F
:1002D00000E000BF00BF10BD10B50121084600F0CE
:1002E000BBFA0021012000F0B7FA10BD2DE9F04162
:1002F000024600250026002000230024002791F854
:1003000003C00CF00F0591F803C00CF0100CBCF109
:10031000000F03D091F802C04CEA050591F800C027
:10032000BCF1000F31D0146800202BE04FF0010C1D
:100330000CFA00F3B1F800C00CEA03069E4220D18B
:1003400083004FF00F0C0CFA03F7BC4305FA03FCD3
:100350004CEA040491F803C0BCF1280F06D14FF019
:10036000010C0CFA00FCC2F814C00AE091F803C0BA
:10037000BCF1480F05D14FF0010C0CFA00FCC2F89B
:1003800010C0401C0828D1D31460B1F800C0BCF1E3
:10039000FF0F34DD546800202EE000F1080C4FF010
:1003A000010808FA0CF3B1F800C00CEA03069E42FB
:1003B00021D183004FF00F0C0CFA03F7BC4305FA70
:1003C00003FC4CEA040491F803C0BCF1280F05D1EA
:1003D00000F1080C08FA0CF8C2F8148091F803C078
:1003E000BCF1480F07D100F1080C4FF0010808FAE2
:1003F0000CF8C2F81080401C0828CED35460BDE829
:10040000F0814FF6FF710180022181700421C170DB
:1004100070470246002093680B400BB1012000E0BA
:10042000002070470146886880B27047024600206D
:10043000D3680B400BB1012000E00020704701465B
:10044000C86880B2704701617047416170470AB166
:10045000016100E041617047C16070474FF4803234
:100460000A438261816182618269826970470246C2
:100470000020344B18684FF68073184040EA021091
:100480000843304B186070472F49C8617047F0B57A
:100490000A4600230024002100252A4E7168C0F37B
:1004A000034583B200F44016B6F5401F08D121F091
:1004B0007061244E766826F07066224F7E6012E0EE
:1004C00000F48016B6F5801F06D1032606FA05F45F
:1004D000A14341F0706106E0460D360103FA06F6CD
:1004E000B14341F0706122B1460D360103FA06F6C0
:1004F0003143144E7160F0BD30B500228B071C0FE4
:100500000F2303FA04F20F4B08338C1053F82430F6
:1005100093430C4C08348D1044F8253023468C103E
:1005200053F824308C07240F00FA04F42343054CBD
:1005300008348D1044F8253030BD0000001401400F
:1005400000F8FEBF0000014000002042DE480068C5
:1005500040F00100DC49086008464068DB4908407B
:10056000D949486008460068D9490840D64908601A
:100570000846006820F4802008600846406820F49F
:10058000FE004860002088607047CF49096821F468
:100590008031CD4A11601146096821F48021116033
:1005A000B0F5803F03D0B0F5802F0ED106E0C649EC
:1005B000096841F48031C44A116007E0C249096802
:1005C00041F4A021C04A116000E000BF00BF7047A5
:1005D00010B501460022002300204A11012A02D151
:1005E000B94C236806E0022A02D1B74C236A01E025
:1005F000B54C636A01F01F02012494401C400CB109
:10060000012000E0002010BD38B50020009000243B
:10061000002500BF3120FFF7DBFF05460098401C96
:1006200000901DB90098B0F5A06FF3D13120FFF70D
:10063000CFFF08B1012400E00024204638BD014668
:100640000020A14A106820F0F80040EAC1001060C4
:100650007047A04908607047024600209A4B5868CE
:1006600020F47C1042EA01031843974B586070470E
:1006700098490866704701460020934A506820F068
:1006800003000843506070478F48406800F00C003A
:100690007047014600208C4A506820F0F000084363
:1006A0005060704701460020874A506820F4E0609F
:1006B00008435060704701460020834A506820F488
:1006C000605040EAC1005060704729B17E4A527ABA
:1006D00002437D4B5A7204E07B4A527A82437A4B42
:1006E0005A7270477B49D831086070470146002034
:1006F000754A506820F4404008435060704700211C
:10070000714A20321170704A82F82010012802D0FC
:1007100004280AD104E001216B4A2032117005E05F
:100720000521694A2032117000E000BF00BF704708
:100730006949086070476449096A0143624A116265
:100740007047654944390860704730B50021002280
:10075000002400235C4D6D6805F00C0121B10429D3
:1007600005D0082923D105E05C4D056022E05B4DF2
:1007700005601FE0544D6D6805F47012022505EB0D
:100780009242514D6D6805F480341CB9544D554367
:1007900005600BE04C4D6D6805F400351DB1504D02
:1007A0005543056002E04D4D5543056002E04B4D59
:1007B000056000BF00BF444D6D6805F0F0010909F8
:1007C000484D6B5C0568DD4045603F4D6D6805F444
:1007D000E061090A434D6B5C4568DD4085603A4D38
:1007E0006D6805F46051C90A3E4D6B5C4568DD409B
:1007F000C560354D6D6805F44041890B3A4D6B5C21
:10080000C568B5FBF3F5056130BD29B12E4A5269C3
:1008100002432D4B5A6104E02B4A526982432A4B12
:100820005A61704729B1284A92690243264B9A615E
:1008300004E0254A92698243234B9A61704729B1AB
:10084000214AD2690243204BDA6104E01E4AD26990
:1008500082431D4BDA61704729B11B4AD2680243BB
:10086000194BDA6004E0184AD2688243164BDA600A
:10087000704729B1144A12690243134B1A6104E00C
:10088000114A12698243104B1A617047124940396C
:10089000086070470F49C86470470B49C8717047BA
:1008A0000948406A40F08070074948627047014635
:1008B0000020054A92680A400AB1012000E00020A9
:1008C0007047014988727047001002400000FFF82D
:1008D000FFFFF6FE000042428004424200127A000E
:1008E00000093D00B60B0008C60B0008042808D11B
:1008F0004FF0E021096941F004014FF0E02211615D
:1009000007E04FF0E021096921F004014FF0E022F7
:10091000116170474FF0E02148617047012808D10C
:100920004FF0E021096941F001014FF0E02211612F
:100930000EE0811C41B94FF0E021096921F001016D
:100940004FF0E022116103E000214FF0E0229161BD
:10095000704740B14FF0E021096941F002014FF0CA
:10096000E022116107E04FF0E021096921F0020166
:100970004FF0E022116170474FF0E020806970472E
:1009800010B50146002200230020CB10022B03D11A
:100990004FF0E024226902E04FF0E024E2690124F4
:1009A0008C4014400CB1012000E0002010BD7047C5
:1009B00000BFFEE700BFFEE700BFFEE700BFFEE7A7
:1009C000704770477047704770477047704770476F
:1009D000704770477047704770477047704770475F
:1009E000704770477047704770477047704770474F
:1009F000704770477047704770477047704770473F
:100A0000704770477047704770477047704770472E
:100A1000704770477047704770477047704770471E
:100A2000704770477047704770477047704770470E
:100A300070477047704770477047704770477047FE
:100A400010B50120FFF76AFF00BF1020FFF798FFE5
:100A50000028FAD06FF00100FFF760FF0020FFF7D9
:100A60005DFF10BD10B56FF00100FFF757FF6FF08D
:100A70000400FFF73BFF0020FFF750FF2F48FFF770
:100A800049FF10BD08B51020ADF8000003208DF817
:100A9000020010208DF8030069462948FFF726FC64
:100AA00008BD10B5FFF752FD4FF48030FFF76DFD24
:100AB000FFF7AAFD0446012C24D10020FFF7E9FD31
:100AC0000020FFF7E6FDA002FFF7E3FD0220FFF79D
:100AD00081FB1020FFF794FB4FF4E0112004FFF797
:100AE000BBFD0120FFF7C4FD00BF3920FFF770FDFB
:100AF0000028FAD00220FFF7BEFD00BFFFF7C4FDBB
:100B00000828FBD101210420FFF78CFE10BDFFF760
:100B1000C8FFFFF7B7FFFFF7A5FF0DE0102108485A
:100B2000FFF784FCC0F10100C4B222461021044842
:100B3000FFF78DFCFFF784FFF0E7000040548900C9
:100B400000080140704770477047754600F028F86C
:100B5000AE4605006946534620F00700854618B0AA
:100B600020B5FFF727FBBDE820404FF000064FF00F
:100B700000074FF000084FF0000B21F00701AC46D2
:100B8000ACE8C009ACE8C009ACE8C009ACE8C009F1
:100B90008D4670470446AFF300802046FFF701FB07
:100BA000004870470000002001491820ABBEFEE756
:100BB0002600020070470000000001020304010249
:100BC000030406070809020406080000DC0B0008FD
:0C0BD00000000020600800006C0100081C
:0400000508000131BD
:00000001FF
