:020000040800F2
:1000000060040020C1010008DD120008DF120008B2
:10001000E3120008E7120008EB12000800000000DD
:10002000000000000000000000000000F1120008C5
:10003000EF12000800000000F3120008F51200089B
:10004000F7120008F9120008FB120008FD12000860
:100050001513000817130008191300081B130008D4
:100060001D1300081F1300082113000823130008A4
:100070002513000827130008291300082B13000874
:100080002D1300082F130008311300083313000844
:100090003513000837130008391300083B13000814
:1000A0003D1300083F1300084113000843130008E4
:1000B0004513000847130008491300084B130008B4
:1000C0004D1300084F130008511300085313000884
:1000D0005513000857130008591300085B13000854
:1000E0005D1300085F130008611300086313000824
:1000F0006513000867130008691300086B130008F4
:100100006D1300086F1300087113000873130008C3
:100110007513000877130008791300087B13000893
:100120007D1300087F130008811300088313000863
:10013000DFF80CD001F038FB00480047A515000897
:100140006004002030BF704720BF704740BF704739
:10015000BFF36F8F7047BFF34F8F7047BFF35F8F51
:10016000704701DF7047EFF31480704780F3148805
:10017000BFF36F8F7047EFF30980704780F30988F2
:100180007047EFF30880704780F30888704762B6C5
:10019000704772B67047EFF31080704771B67047C2
:1001A00061B67047EFF31380704780F31188704792
:1001B000EFF31280704740BA704700BA70470000F2
:1001C000004800473101000810B50446D749601ABD
:1001D0008C422BD006DCD648201813D0B0F5806FA7
:1001E00038D119E0B0F5806F2AD0B0F56C4F31D11D
:1001F0000121880300F0DCFC00214FF4804000F076
:10020000D7FC28E00121480400F0DFFC00214FF476
:10021000003000F0DAFC1EE00121880400F0D5FC7B
:1002200000214FF4802000F0D0FC14E00121C8042C
:1002300000F0CBFC00214FF4002000F0C6FC0AE0E7
:100240000121080500F0C1FC00214FF4801000F0EE
:10025000BCFC00E000BF00BF10BD2DE9F04786B038
:1002600005460E460024A24600BF00BF00272F46C9
:100270002C8A4CF6FF700440F08804432C82AC8931
:100280004EF6F3100440B088318908437189084361
:100290000443AC81AC8A4FF6FF400440B08904436C
:1002A000AC8201A800F0FDFBA248874202D1DDF834
:1002B00010A001E0DDF80CA00AEBCA0000EB0A1068
:1002C00031688900B0FBF1F86420B8FBF0F004015C
:1002D0002009642101FB1089322000EB0910B0FBDA
:1002E000F1F000F00F0004432C8106B0BDE8F08768
:1002F0004FF41651016000218180C18001810C21E1
:10030000418100218181704710B502460020108A8A
:100310004FF2FF0318400B884C8823438C882343FB
:10032000CC8823431843108210BD002101804180F6
:100330008180C180704721B1828942F4005282815C
:1003400004E082894DF6FF731A4082817047F0B550
:10035000034600240026002500201846C1F342145D
:1003600001F01F06012707FA06F5012C01D10C3018
:1003700004E0022C01D1103000E014301AB10768FB
:100380002F43076002E00768AF430760F0BD1AB172
:10039000838A0B43838202E0838A8B438382704784
:1003A000028A4FF6F0731A400282028A0A430282DE
:1003B000704782894FF2FF731A40828182890A4313
:1003C0008281704721B1828942F00202828104E079
:1003D00082894FF6FD731A4082817047028A4FF678
:1003E000DF731A400282028A0A430282704721B1F7
:1003F000028A42F48042028204E0028A4BF6FF73D2
:100400001A4002827047C1F3080282807047014699
:100410008888C0F308007047818941F0010181811B
:100420007047028BD2B20283028B42EA012202831E
:100430007047028B02F47F420283028B0A430283DD
:10044000704721B1828A42F02002828204E0828ACF
:100450004FF6DF731A408282704721B1828A42F0E0
:100460001002828204E0828A4FF6EF731A40828281
:10047000704721B1828A42F00802828204E0828AB7
:100480004FF6F7731A4082827047828A4FF6FB73E9
:100490001A408282828A0A438282704721B1828A0C
:1004A00042F00202828204E0828A4FF6FD731A4013
:1004B000828270470246002013880B4201D001203F
:1004C00000E000207047CA430280704770B50246C2
:1004D0000B460024002100250020C3F3421503F041
:1004E0001F01012606FA01F1012D02D19689314042
:1004F00006E0022D02D1168A314001E0968A314091
:100500001C12012606FA04F41688344011B10CB10D
:10051000012000E0002070BD10B5002200230A1267
:1005200001249440A3B2DC43048010BD004C004081
:1005300000BCFFBF003801401049096801F03801D4
:100540000E4A1160114609680143116070470B495A
:10055000096821F00801094A116011460968014340
:10056000116070470549096821F01001034A1160C4
:1005700011460968014311607047000000200240E5
:1005800010B50446C549601A8C422FD009DCC44816
:10059000201810D0B0F5806F16D0B0F5006F4AD19A
:1005A0001BE0B0F5806F2AD0B0F5006F30D0B0F509
:1005B000406F40D135E00121042000F0F9FA00211C
:1005C000042000F0F5FA37E00121082000F0F0FAED
:1005D0000021082000F0ECFA2EE00121102000F0AC
:1005E000E7FA0021102000F0E3FA25E001212020A5
:1005F00000F0DEFA0021202000F0DAFA1CE00121F0
:10060000402000F0D5FA0021402000F0D1FA13E09C
:100610000121802000F0CCFA0021802000F0C8FAEF
:100620000AE00121080200F0C3FA00214FF48070B3
:1006300000F0BEFA00E000BF00BF10BD10B5012100
:10064000084600F0B5FA0021012000F0B1FA10BD13
:100650002DE9F04102460025002600200023002459
:10066000002791F803C00CF00F0591F803C01CF0AF
:10067000100F03D091F802C04CEA050591F800C0B4
:10068000BCF1000F31D0146800202BE04FF0010CBA
:100690000CFA00F3B1F800C00CEA03069E4220D128
:1006A00083004FF00F0C0CFA03F7BC4305FA03FC70
:1006B0004CEA040491F803C0BCF1280F06D14FF0B6
:1006C000010C0CFA00FCC2F814C00AE091F803C057
:1006D000BCF1480F05D14FF0010C0CFA00FCC2F838
:1006E00010C0401C0828D1D31460B1F800C0BCF180
:1006F000FF0F34DD546800202EE000F1080C4FF0AD
:10070000010808FA0CF3B1F800C00CEA03069E4297
:1007100021D183004FF00F0C0CFA03F7BC4305FA0C
:1007200003FC4CEA040491F803C0BCF1280F05D186
:1007300000F1080C08FA0CF8C2F8148091F803C014
:10074000BCF1480F07D100F1080C4FF0010808FA7E
:100750000CF8C2F81080401C0828CED35460BDE8C5
:10076000F0814FF6FF710180022181700421C17078
:1007700070470246002093680B4201D0012000E040
:10078000002070470146886880B27047024600200A
:10079000D3680B4201D0012000E0002070470146E1
:1007A000C86880B2704701617047416170470AB103
:1007B000016100E041617047C16070474FF48032D1
:1007C0000A4382618161826182698269704702465F
:1007D0000020344B18684FF68073184040EA02102E
:1007E0000843304B186070472F49C8617047F0B517
:1007F0000A4600230024002100252A4E7168C0F318
:10080000034583B200F44016B6F5401F08D121F02D
:100810007061244E766826F07066224F7E6012E08A
:1008200000F48016B6F5801F06D1032606FA05F4FB
:10083000A14341F0706106E0460D360103FA06F669
:10084000B14341F0706122B1460D360103FA06F65C
:100850003143144E7160F0BD30B500228B071C0F80
:100860000F2303FA04F20F4B08338C1053F8243093
:1008700093430C4C08348D1044F8253023468C10DB
:1008800053F824308C07240F00FA04F42343054C5A
:1008900008348D1044F8253030BD000000140140AC
:1008A00000F8FEBF0000014000002042DC48006864
:1008B00040F00100DA49086008464068D94908401C
:1008C000D749486008460068D7490840D4490860BD
:1008D0000846006820F4802008600846406820F43C
:1008E000FE004860002088607047CD49096821F407
:1008F0008031CB4A11601146096821F480211160D2
:10090000B0F5803F03D0B0F5802F0ED106E0C4498A
:10091000096841F48031C24A116007E0C0490968A2
:1009200041F4A021BE4A116000E000BF00BF704743
:1009300010B501460022002300204A11012A02D1ED
:10094000B74C236806E0022A02D1B54C236A01E0C5
:10095000B34C636A01F01F02012494401C4201D091
:10096000012000E0002010BD38B5002000900024D8
:10097000002500BF3120FFF7DBFF05460098401C33
:1009800000901DB90098B0F5A06FF3D13120FFF7AA
:10099000CFFF08B1012400E00024204638BD014605
:1009A00000209F4A106820F0F80040EAC100106063
:1009B00070479E490860704702460020984B58686F
:1009C00020F47C1042EA01031843954B58607047AD
:1009D00096490866704701460020914A506820F009
:1009E00003000843506070478D48406800F00C00D9
:1009F0007047014600208A4A506820F0F000084302
:100A00005060704701460020854A506820F4E0603D
:100A100008435060704701460020814A506820F426
:100A2000605040EAC1005060704729B17C4A527A58
:100A300002437B4B5A7204E0794A527A8243784BE4
:100A40005A7270477A490860704701460020744A1C
:100A5000506820F440400843506070470021754AB8
:100A600011706F4A82F82010012802D0042808D1A2
:100A700003E001216F4A117004E005216D4A1170F5
:100A800000E000BF00BF70476B49086070476449D1
:100A9000096A0143624A1162704767494439086034
:100AA000704730B500210022002400235C4D6D68A2
:100AB00005F00C0121B1042905D0082923D105E056
:100AC0005E4D056022E05D4D05601FE0544D6D6890
:100AD00005F47012022505EB9242514D6D6805F444
:100AE00080341CB9564D554305600BE04C4D6D6884
:100AF00015F4003F03D0524D5543056002E04F4DC1
:100B00005543056002E04D4D056000BF00BF444DF8
:100B10006D6805F0F00109094A4D6B5C0568DD4020
:100B200045603F4D6D6805F4E061090A454D6B5C19
:100B30004568DD4085603A4D6D6805F46051C90A2D
:100B4000404D6B5C4568DD40C560354D6D6805F412
:100B50004041890B3C4D6B5CC568B5FBF3F5056105
:100B600030BD29B12E4A526902432D4B5A6104E02F
:100B70002B4A526982432A4B5A61704729B1284A4D
:100B800092690243264B9A6104E0254A92698243A6
:100B9000234B9A61704729B1214AD2690243204B05
:100BA000DA6104E01E4AD26982431D4BDA61704764
:100BB00029B11B4AD2680243194BDA6004E0184A93
:100BC000D2688243164BDA60704729B1144A126921
:100BD0000243134B1A6104E0114A12698243104B1D
:100BE0001A61704714494039086070470F49C8645A
:100BF00070470B49C87170470948406A40F08070DF
:100C000007494862704701460020054A92680A4237
:100C100001D0012000E00020704701498872704730
:100C2000001002400000FFF8FFFFF6FE0000424205
:100C3000D8004242201002408004424200127A0052
:100C400000093D00601900087019000810B5012066
:100C5000FFF7C8FF0020FFF7C5FF10BD224908605D
:100C600070472149091F086070471F498431086097
:100C70007047014600201D4A10884FF67F42104001
:100C800008431A4A1080704701460020174A10880E
:100C90004FF6807210400843144A10807047134A80
:100CA0002C3A81527047014610482C38085A704738
:100CB0000D489C300068C0B270470C48083000886E
:100CC00040F0010009490831088070470648A0300B
:100CD0000068C0B2704705480830008840F0020044
:100CE000024908310880704704860D422C6C004090
:100CF00029B14F4A128802434D4B1A8004E04C4AF6
:100D0000128882434A4B1A8070474948001D008868
:100D100040F010004649091D088070474448001DF6
:100D200000884FF6EF7108404149091D088070475F
:100D300000213F481C300188001F008841EA004024
:100D4000704700B50246FFF7E0FF100C3849183134
:100D50000880091D0A80FFF7E1FF00BD00B50246CB
:100D6000FFF7D3FFC2F30340314908310880091D62
:100D70000A80FFF7D3FF00BD00B50246FFF7C5FFAD
:100D8000100C2B4920310880091D0A80FFF7C6FF8F
:100D900000BD00202649103109880907080B2449A5
:100DA000143109880843704700BF2148001D00889E
:100DB00010F0200FF9D070471D48001D00884FF635
:100DC000F77108401A49091D088000BF1848001D26
:100DD000008810F0080FF9D0704701460020144A2F
:100DE000121D12880A4201D0012000E00020704745
:100DF0000F49091D098881430D4A121D1180704752
:100E0000014600200A4A121D12880A40D0B2084A40
:100E100012880A4202D008B1012000E00020704789
:100E20000349091D09888143014A121D1180704739
:100E3000002800400020411EEE4A11606FF0704211
:100E4000ED49C1F884204FF0FF314FF0E022C2F8A5
:100E500080126FF07042E9490A6000BF04E000228E
:100E6000E74941F82020401C0F28F8D370470020A4
:100E70004FF02061E34A11600021121D1160E24928
:100E8000121D11600021121D1160121D116000BFA2
:100E900005E00022DB49143141F82020401C0328E2
:100EA000F7D30021D74A20321160491E121D11606C
:100EB000121D1160121D11607047D3490143D14AC0
:100EC000083211607047F0B5002100220023002590
:100ED0000F24C678002E36D0CA4E0836366806F47F
:100EE000E066C6F5E066310AC1F10405CC404678FB
:100EF00006FA05F186782640314309010678B607DF
:100F0000F60EB140BE4E0778BF1056F8272006787F
:100F1000B607F70EFF2606FA07F39A4319400A436D
:100F2000B74E0778BF1046F82720067806F01F074F
:100F30000126BE4007787F114FF0E02C0CEB8707AD
:100F4000C7F800610BE0067806F01F070126BE40D7
:100F5000A84F90F800C04FEA6C1C47F82C60F0BD19
:100F60000021017041708170C170704710B5FFF7AA
:100F700010F910BD10B5FFF70AF910BD10B5FFF755
:100F80000DF910BD10B5FFF70BF910BD10B50446F3
:100F90002001FFF70AF910BD10B5FFF709F910BDE0
:100FA00098480068C0F30930704710B5014600202A
:100FB000002201F01F04012303FA04F28D4B803359
:100FC0004C1153F824301340934201D1012000E02A
:100FD000002010BD8D490860704700F01F020121FC
:100FE0009140864A121F431142F8231070478548EA
:100FF0000068C0F30900704710B5014600200022C8
:1010000001F01F04012303FA04F27C4B7C334C11E2
:1010100053F824301340934201D1012000E0002016
:1010200010BD7848001F00687047794A0A400243A3
:10103000744B1B1D1A6070477348001D71490831BD
:10104000086070477048401C6E490831086070475E
:1010500039B16C4A0C32126802436A4B0C331A6085
:1010600006E0684A0C3212688243664B0C331A6001
:10107000704710B5002200F01F04012303FA04F2A8
:1010800039B1604B20331B6813435E4C203423601E
:1010900006E05C4B20331B6893435A4C203423609A
:1010A00010BDF0B503460C4615460020FF22002671
:1010B0000021544F08373F6807F4E067C7F5E06741
:1010C000390AC1F10400CA4004FA00F105EA020736
:1010D0003943090103F0C0008009C3F30122D7009E
:1010E000B9404FEAC20CFF2707FA0CF6454F1437F8
:1010F00057F82070B743DFF80CC10CF1140C4CF812
:101100002070674657F820700F434CF82070F0BDF0
:1011100010B50246002000230021910A01F00F01C2
:10112000012404FA01F1374C2034246804EA010355
:101130008B4201D1012000E0002010BD002100F011
:101140001F01304A126801238B401A432D4B1A604D
:10115000704710B5002100F01F012A4A12684B1E8B
:1011600001249C402243274B1A6010BD10B5024653
:10117000002000230021C2F38331012404FA01F18D
:10118000204C2034246804EA01038B4201D1012061
:1011900000E0002010BD30B50146002000220023F1
:1011A000C1F38142C1F301531AB9164C28342068A7
:1011B00011E0012A0CD1134C24342468DD0024FAF8
:1011C00005F0022B02D000F00F0004E0C0B202E0F4
:1011D0000C4C2C34206830BD014600200022C1F3A5
:1011E00080521AB9074B3033186802E0054B34338C
:1011F0001868704780E100E000E100E084E200E070
:1012000000E400E004ED00E00000FA0500EF00E07B
:1012100080FFFF1F10B501210807FFF7D6FC002152
:101220004FF08050FFF7D1FC10BD2849086270478D
:1012300026490861704701460020254A106820F0C1
:10124000E00008431060704722490860704770B59D
:1012500005460E4600241E48046824F003042C436F
:1012600004601D48006840F004001B490860012E1E
:1012700002D1FEF767FF01E0FEF766FF70BD10B513
:101280001348006840F004001149086008460068EF
:1012900040F0020008601048006840F004000E4969
:1012A0000860FEF74FFF10BD01460020084A526853
:1012B0000A4201D0012000E000207047044909687B
:1012C00041EA8001024A11607047000000000E42AE
:1012D00000700040A0000E4210ED00E0704700BF1B
:1012E000FEE700BFFEE700BFFEE700BFFEE7704776
:1012F00070477047704770477047704710B50120BE
:10130000FFF77EFD28B10120FFF78AFD01201D496E
:10131000086010BD7047704770477047704770474E
:101320007047704770477047704770477047704705
:1013300070477047704770477047704770477047F5
:1013400070477047704770477047704770477047E5
:1013500070477047704770477047704770477047D5
:1013600070477047704770477047704770477047C5
:1013700070477047704770477047704770477047B5
:10138000704770470000002073B5054601A800F0C3
:10139000C5F90446606900F26C7060612C22214638
:1013A000284600F093F97CBD10B5FFF7C1FC10BDD5
:1013B00010B58CB0002490480068F0B1FFF7F4FF3E
:1013C0000446214601A8FFF7DFFF2C2201A98B4824
:1013D00000F07CF98948006888494968874A926822
:1013E000CDE9002102908548C3680269416984A063
:1013F00000F0ECF90020804908600CB010BD0FB47B
:1014000010B50798A0F26C70079002A800F00EF9D2
:1014100010BC5DF814FB10B50446FFF7C5FC204670
:10142000FFF78FFCFFF7C0FC10BD0FB410B588B0FC
:101430001C220EA9684600F049F90AA80FC8FFF758
:10144000DEFF0446FFF7E7FF08B010BC5DF814FBB1
:1014500010B50120FFF7E9FEFFF7F8FB0120FFF7C9
:10146000FDFA00BF4120FFF763FA0028FAD04FF4DD
:101470008070FFF70CFB0120FFF70FFBFFF79CFCD0
:10148000FFF792FC01210846FFF732FCFFF78CFCC6
:1014900047F6FF70FFF762FCFFF786FC10BD1FB533
:1014A0004FF4165000900020ADF80400ADF808008D
:1014B000ADF80C000C20ADF80A0069465948FEF75B
:1014C000CCFE01215748FEF736FF1FBD08B54FF48B
:1014D0000070ADF8000018208DF8030003208DF88F
:1014E000020069465048FFF7B3F84FF48060ADF84A
:1014F000000004208DF8030069464B48FFF7A8F868
:1015000008BD08B54FF4C060FFF7D7FC03208DF885
:10151000000001208DF8010000208DF8020001205C
:101520008DF803006846FFF7CEFC08BD10B5FFF745
:10153000BDF94FF48030FFF7D8F9FFF715FA0446EC
:10154000012C24D10020FFF754FA0020FFF751FAB4
:10155000A002FFF74EFA0220FEF7EEFF1020FFF781
:1015600001F84FF4E0112004FFF726FA0120FFF7FD
:101570002FFA00BF3920FFF7DBF90028FAD002204C
:10158000FFF729FA00BFFFF72FFA0828FBD1012146
:101590004FF0C050FFF7FFFA012144F20400FFF7BB
:1015A000EDFA10BD88B0FFF7C1FFFFF7AAFFFFF704
:1015B0008DFFFFF774FFFFF74BFF1C220F4910311F
:1015C000684600F083F80D480FC8FFF72EFF01E0D2
:1015D000FFF7EEFEFCE770B504460D46E1B2114898
:1015E000FEF711FF00BF40210E48FEF763FF002801
:1015F000F9D0204670BD000000000020040000204B
:101600000D0A54696D653A2025642D2025642D202E
:1016100025642C2025643A2025643A2025640D0A8F
:1016200000000000003801400008014038B5D0E952
:101630000221491E01EB410102EBC1014268C1EBED
:10164000011102EB81010268C1EB011102EB810380
:10165000D0E9042101EB410102EB8101A1F55271B6
:10166000302491FBF4F2154D04FB1211554303EBAA
:10167000C51300931A2902DB114A1A4400920C2365
:1016800091FBF3F20F4C009D544303FB121105EB49
:10169000C4140D4B009408E0491E40F2A3245A5C88
:1016A0006243009C04EBC21200920029F4DC014664
:1016B000684600F039F8009838BD00003F0C0F0074
:1016C0008051010067C203007419000840EA010359
:1016D0009B0703D009E008C9121F08C0042AFAD2E8
:1016E00003E011F8013B00F8013B521EF9D27047AC
:1016F00030B50B46014600202022012409E021FAE2
:1017000002F59D4205D303FA02F5491B04FA02F5DE
:101710002844151EA2F10102F1DC30BD014900F0A0
:1017200003B800003400002030B503683C22B3FB4E
:10173000F2F002FB10330B60B0FBF2F302FB13007C
:1017400018244860B3FBF4F004FB10328A60021DD9
:101750000723B2FBF3F403FB14228A61820002F632
:101760006C3240F2B555B2FBF5F404F14400034687
:10177000486105FB14208008C8613B2802D39A0702
:1017800000D0401C0022074C13460A61E25C8242F2
:1017900003D8801A5B1C0B61F8E7401CC860084640
:1017A00030BD000080190008064C074D06E0E068D7
:1017B00040F0010394E8070098471034AC42F6D398
:1017C000FEF7BAFC8C190008AC1900080FB4054BE1
:1017D00010B503A9044A029800F018F810BC5DF88F
:1017E00014FB0000D71500083000002002E008C8F4
:1017F000121F08C1002AFAD170477047002001E08B
:1018000001C1121F002AFBD1704700002DE9FF4FD4
:1018100089B09B460446002597E0252833D1002750
:10182000641C4E49B84601222378203B02FA03F09B
:10183000084202D00743641CF6E720782E2819D10D
:1018400014F8010F47F004072A280ED06FF02F027A
:101850002078A0F1300109290CD808EB880102EBAF
:10186000410100EB0108641CF2E70A98641C50F87F
:10187000048B0A90207800286BD0642808D069284F
:1018800006D0752820D05A460B9990476D1C5BE016
:101890000A994FF00A0901C90A91002804DAC0F137
:1018A00000004FF02D0102E0390504D52B218DF801
:1018B0002010012103E0F90704D02021F7E78A4630
:1018C00008AE0EE00021FAE70A994FF00A0901C9B3
:1018D0000A91F7E74946FFF70BFF01F1300106F8DF
:1018E000011D0028F6D1ADEB060000F120097807B4
:1018F00001D44FF00108C84502DDA8EB090000E063
:1019000000208046002706E008A85A46C05D0B99D3
:1019100090476D1C7F1C5745F6DB04E030205A468B
:101920000B9990476D1CB8F10001A8F10108F5DC96
:1019300005E016F8010B5A460B9990476D1CB9F15A
:101940000001A9F10109F4DC641C207800287FF46F
:1019500064AF0DB02846BDE8F08F000009280100F3
:101960000000000001020304010203040607080945
:10197000020406081F1C1F1E1F1E1F1F1E1F1E1FE6
:101980001F1D1F1E1F1E1F1F1E1F1E1FAC1900081C
:101990000000002034000000EC170008E0190008E7
:1019A000340000202C040000FC1700080000000098
:1019B000DB07000002000000080000000200000039
:1019C0001400000000000000000000000000000003
:1019D0000000000000000000000000000000000007
:0400000508000131BD
:00000001FF
