:020000040800F2
:10000000880900200D0100081101000813010008F3
:100010001501000817010008190100080000000080
:100020000000000000000000000000001B010008AC
:100030001D010008000000001F0100082101000848
:100040002301000823010008230100082301000800
:1000500023010008230100082301000823010008F0
:1000600023010008230100082301000823010008E0
:1000700023010008230100082301000823010008D0
:1000800023010008230100082301000823010008C0
:1000900023010008230100082301000823010008B0
:1000A0002301000893190008230100082301000818
:1000B0002301000823010008230100082301000890
:1000C0002301000823010008230100082301000880
:1000D0002301000823010008D114000823010008AF
:1000E000230100082301000823010008DFF80CD0D9
:1000F00005F08CFC00480047290100088809002011
:1001000030BF72B662B680F3088870470548004772
:10011000FEE7FEE7FEE7FEE7FEE7FEE7FEE7FEE7B7
:10012000FEE7FEE7ED00000808B5092000F003FA3D
:10013000482000F0A3F8022000F0E8F9012000F0C8
:10014000E5F900F019FB232144F61F6000F050FE92
:1001500044F250603E490880091D0880091D08804E
:10016000091D088043F63F01312000F0CDFD00F06D
:10017000CDFA00F001FB00F0FCFC4FF4E131482027
:1001800000F05CFA4FF41651242001F02FF900F032
:10019000A7FE04F0B4FD04F0C6FD58E02D48007839
:1001A000012801D104F02DFE2B48007801284ED102
:1001B0002849087000212948006805F0EFFA11D29B
:1001C00027492648006804F0FFFF054605F084FA39
:1001D00004460C2003232246282100902D2000F005
:1001E0005CFC0CE01D48006805F076FA04460C2023
:1001F00003232246282100902D2000F04EFC1949AF
:100200001948006805F038F8054605F065FA044617
:100210000C200323224628210090002000F03DFC02
:1002200010491248006805F027F8054605F054FA11
:1002300004460C200323224632210090002000F0C7
:100240002CFC0B48B0F904100AA005F043FCA5E70C
:10025000340800400000002002000020A800002018
:100260000000B4430000C8422000002030000020FD
:10027000980000202534640D0A0000004FF0E021B2
:10028000096921F004014FF0E0221161C21700EB6F
:100290005272C2F3C702234B1A701946097801EB58
:1002A0004102C2EBC1114FF6FF7202EAC1011E4AC0
:1002B0001180704701461B4A12784A434FF0E023F1
:1002C0005A6100229A6101221A6100BF4FF0E022B8
:1002D000106900F001021AB100F48032002AF5D052
:1002E00000224FF0E0231A619A61704701460E4ADE
:1002F00012884A434FF0E0235A6100229A6101229A
:100300001A6100BF4FF0E022106900F001021AB13B
:1003100000F48032002AF5D000224FF0E0231A6169
:100320009A617047580000205A000020A34A0A40F2
:100330000243A34B1A6070470146072323EA0102D8
:1003400012029F4B1B1D18684FF6FF0318409D4B70
:10035000184310439A4B1B1D186070472DE9F0415C
:100360000746884614461D462846FFF7E5FFC5F1B7
:10037000040007FA00F60F20284100EA08000643AF
:1003800006F00F06E21704EBD2625211920002F15E
:10039000E022D2F800212146E31704EBD3635B117E
:1003A000A4EB431C012303FA0CF31A432046E31782
:1003B00004EBD3635B119B0003F1E023C3F800213E
:1003C0008148005D40EA06107F490855BDE8F0818C
:1003D00070B504460B46CE1701EB9676C6F3870040
:1003E000CE1701EB9676B610A1EB8606B606350E53
:1003F000764B9B6943F00103744EB3614FEAB63309
:1004000053F820300F26AE40B343714E46F82030EB
:10041000334653F8203004FA05F61E436C4B43F87C
:1004200020606C4B1B6801268E403343694E33605D
:1004300002F0010343B1674B0C331B6801268E4069
:100440003343644E0C36336002F0020343B1614B18
:1004500008331E6801238B401E435E4B08331E6029
:1004600070BD00B5002059490861C860142048617A
:1004700000208861C8610846006840F001000860FB
:10048000084640685449084050494860084600689A
:10049000524908404D4908600846006820F4802011
:1004A00008600846406820F4FE004860002088602C
:1004B00000214FF00060FFF739FF00BD10B5404844
:1004C0000830006840F004003D49083108603F48AA
:1004D000C06940F080503D49C8614148406840F4DF
:1004E00080703F4948600846006840F0040008609A
:1004F0000846006840F002000860FFF701FE10BDEA
:100500003048001D2E49091D086070470146490604
:100510002E4A926942F001022C4B9A612C4A083A09
:10052000526822F0E0622A4B083B5A601A46526831
:100530000A435A60704730B504460025FFF791FF23
:100540002248006840F480302049086000BF1F48FE
:100550000068400C0028FAD04FF480601B494860C6
:10056000A01EC4B20846406840EA8440486008467D
:10057000406840F4803048601A48006840F032001B
:10058000184908601148006840F080700F49086001
:1005900000BF0E480068400E0028FAD00B484068A3
:1005A00040F002000949486005E008484068C0F38F
:1005B000870505F00305022DF7D130BD80FFFF1F31
:1005C00008ED00E00000FA0500E400E00010024041
:1005D00008000140000401400000FFF8FFFFF6FEA4
:1005E0000070004000200240014600BF7047414AB1
:1005F0001278012A0BD100BF3F4A128802F0400254
:10060000002AF9D0C2B23C4B1B1D1A800AE000BF81
:100610003A4A128802F04002002AF9D0C2B2374B9F
:100620001B1D1A8070473549091D088000BF3349DA
:10063000098801F040010029F9D070472DE9F05FE9
:1006400005460E46300105F018F881462C4905FB99
:1006500001F005F012F88246494604F03FFE0746D5
:10066000384605F039F884B2204605F006F883468E
:10067000394604F0FEFD82464FF0834104F0FCFD54
:10068000814605F029F880464FF6FF7000EA041411
:1006900004EB080084B21B48806940F0040019494B
:1006A00088610846806940F4804088611648006887
:1006B00020F47F60144908600846006840F40B602D
:1006C00008601048C06840F480400E49C860084681
:1006D000C06820F48040C860084808300480001DCD
:1006E000008842F20C01084304490C310880BDE83F
:1006F000F09F00000100002000440040003801404D
:1007000040420F0000100240040801401548806973
:1007100040F00400134988611348006820F00F007E
:10072000114908600846006840F0030008600E4860
:100730000830006840F480700B4908310860704749
:100740000A490968491C094A1160814208D10849CF
:100750000968C943074AC2F8A0110021034A116081
:1007600070470000001002400408014060000020B3
:10077000A0012142000021423C48806940F0040071
:100780003A4988613A48006820F07040384908606A
:100790000846006840F000400860354808300068AE
:1007A00040F4004032490831086070470146314842
:1007B000006828B93048007810B901202E4A10701E
:1007C0002E480078B0B92C480078012807D12C4871
:1007D0000078401C2A4A10700120284A10702848CE
:1007E0000078022806D10020254A1070254A108082
:1007F000022070471F480068012804D100201E4ACB
:1008000010701E4A10701E48007801280ED11D4835
:100810000088401C80B21B4A1080884206DD002000
:10082000174A1070174A10800120E2E70020E0E725
:1008300010B51548007880B10E48006868B90620E8
:10084000FFF754FD1048007868B10A48006850B9B5
:1008500000200D490870012010BD064800680128DD
:1008600001D1094908700020F6E70000001002409D
:10087000040801403C012142640000206500002082
:1008800066000020680000206A00002010B50A46BB
:100890001AB10123FE4C236002E00023FC4C2360CC
:1008A000002114E00023FB4C236000F080031BB107
:1008B0000123241D236003E00023F64C241D236044
:1008C0000123F44C23604306180E4B1CD9B20829AF
:1008D000E8DB0123EE4C236010BD30B500241CE0A2
:1008E00004F1B001C8B20021FFF7D0FF0021084693
:1008F000FFF7CCFF00211020FFF7C8FF002508E01C
:10090000E54901EBC501085D0121FFF7BFFF681C48
:10091000C5B2802DF4DB601CC4B2082CE0DB30BD16
:1009200000B500218D20FFF7B1FF00211420FFF753
:10093000ADFF0021AF20FFF7A9FF00BD00B50021EA
:100940008D20FFF7A3FF00211020FFF79FFF00215C
:10095000AE20FFF79BFF00BD30B500240CE0002562
:1009600006E00020CC4901EBC5010855681CC5B262
:10097000802DF6DB601CC4B2082CF0DBFFF7ADFF66
:1009800030BDF0B5144600267F2801DC3F2900DD8C
:10099000F0BD0B46CF1701EB5777FF10C7F10707E4
:1009A000FAB2CF1701EB5777FF10A1EBC707FDB2E3
:1009B000C5F107070123BB40DEB24CB1B64B03EBD8
:1009C000C0039B5C3343B44F07EBC007BB5408E044
:1009D000B14B03EBC0039B5CB343AF4F07EBC007C6
:1009E000BB5400BFD4E72DE9F04F80460C461546B6
:1009F0001E46A346A5F12000C5B200273EE00C2EFE
:100A000007D105EB4500A54901EB800010F80790E0
:100A100004E0A34800EB051010F807904FF0000A1F
:100A200026E009F0800028B121464046099AFFF7E8
:100A3000A8FF09E0099808B9012000E0002002465B
:100A400021464046FFF79DFF4FEA49604FEA106993
:100A5000601CC4B2A4EB0B00B04205D15C4608F1A7
:100A6000010000F0FF0806E00AF1010000F0FF0AB3
:100A7000BAF1080FD5DB00BF781CC7B2B742BEDBA6
:100A8000BDE8F08F10B50246012000E050430B0096
:100A9000A1F10104E1B2F9D110BD2DE9FF4F81B000
:100AA000074691461E460E9D4FF0000A002439E08D
:100AB000301B401EC1B20A20FFF7E4FFB9FBF0F083
:100AC0000A21B0FBF1F201FB1208BAF1000F16D1B6
:100AD000701EA04213DDB8F1000F0ED10120AB460D
:100AE00005EBDB71491001FB04710090C8B22B4685
:100AF00020220299FFF777FF12E04FF0010A012050
:100B0000AB4605EBDB71491001FB04710090C8B2E4
:100B100008F13001CAB22B460299FFF764FF00BF0B
:100B2000601CC4B2B442C3DB05B0BDE8F08F78B539
:100B300005460E46144618E07A2D03DD002506F121
:100B40001000C6B23A2E04DD002005460646FFF727
:100B500003FF0120009022780C2331462846FFF73E
:100B600042FF05F10800C5B2641C20780028E3D1DB
:100B700078BD10B54B48806940F00800494988614C
:100B80004948006820F47F0047490860084600682B
:100B900040F4081008604348806940F01000414963
:100BA00088610846806940F0010088613F484068DC
:100BB00020F07F403D4948600846406840F00850BA
:100BC00048603B48006840F4807039490860354807
:100BD000006A20F00100334908623648008820F09E
:100BE0000100344908803248006820F480703049A0
:100BF000086000202649091D08606420FFF776FB85
:100C000001202D49C1F8BC010021AE20FFF73EFEB6
:100C10000021D520FFF73AFE00215020FFF736FED5
:100C20000021A820FFF732FE00213F20FFF72EFE13
:100C30000021D320FFF72AFE00210846FFF726FEF9
:100C400000214020FFF722FE00218D20FFF71EFE2D
:100C500000211420FFF71AFE00212020FFF716FEC6
:100C600000210220FFF712FE0021A120FFF70EFE57
:100C70000021C020FFF70AFE0021DA20FFF706FE60
:100C800000211220FFF702FE0021812016E0000063
:100C9000B8012242B0812142E0000020B86500087E
:100CA0002C6A000800100240040C014000100140B2
:100CB00000700040306C004000002242FFF7E6FD6B
:100CC0000021EF20FFF7E2FD0021D920FFF7DEFD34
:100CD0000021F120FFF7DAFD0021DB20FFF7D6FD30
:100CE00000213020FFF7D2FD0021A420FFF7CEFD28
:100CF0000021A620FFF7CAFD0021AF20FFF7C6FDA7
:100D0000FFF72AFE10BD000070B505460C463548B9
:100D1000806940F400603349886133480580001FD2
:100D2000048031482038008840F001002E492039E5
:100D300008800846008840F0400008802A482C3887
:100D4000008840F0010028492C390880022319222C
:100D500003210120FFF702FB70BD70B504460D466C
:100D60002048C06940F001001E49C86108468069FA
:100D700040F0040088611D48006820F47F401B4952
:100D800008600846006840F402400860C804848592
:100D90000585808B40F48070C90488830846808B69
:100DA00088830846808B88830846008C0884084620
:100DB000008C40F4805008840846808940F0100080
:100DC00088810846808940F00100888108460088B3
:100DD00040F00100088001231C2203211846FFF780
:100DE000BDFA70BD001002402C2C014000080140EB
:100DF000384AD26942F00402364BDA611A469269E7
:100E000042F008029A61344A126822F07F42324B63
:100E10001A601A46126842F03B421A601A1D1268A4
:100E200022F0FF021B1D1A601A46126842F0BB0234
:100E30001A602A4A1080121F1180284A143A128818
:100E400042F4E042254B143B1A801A46128842F0C5
:100E500070021A801A1D128842F4E0421B1D1A808B
:100E60001A46128842F070021A801A1F128842F441
:100E700000621B1F1A801A46128842F008021A806C
:100E80001A1D128842F400621B1D1A801A4612882D
:100E900042F008021A801A1D128842F010021B1D2F
:100EA0001A801A46128842F001021A801A461288E5
:100EB00042F480521A801A46128842F480721A80D4
:100EC000DA13064B2C3B1A801A46128842F00102B4
:100ED0001A80704700100240000C01402C080040AE
:100EE000F748806940F00800F5498861F5480068D6
:100EF00020F47F40F34908600846006840F44C50F5
:100F00000860704710B5EF48006820F47040ED4964
:100F100008600846006840F4405008600120EA4933
:100F20000860EA48D0F82C0108B9002010BD012063
:100F3000E549091F0860FFF7BDF90020E349C1F842
:100F4000AC01E1488038006808B10020EEE70120DC
:100F5000FFF7B0F90020DC49091F08600120E5E730
:100F600010B5D848006820F47040D649086008469B
:100F7000006840F4405008600020D349091F086011
:100F8000D249C1F8AC010120FFF794F90120CE4904
:100F9000091F0860CD49C1F8AC01FFF78BF910BDFE
:100FA00010B50024C748006820F47040C5490860A7
:100FB0000846006840F4004008600120C24908600B
:100FC000FFF778F90120C149C1F8A801FFF772F9CC
:100FD0000AE0601CC4B2322C03DDFFF7C1FF002021
:100FE00010BD0120FFF766F9B74880380068002877
:100FF000EFD1B549091F08600120F1E710B50020C5
:10100000B149091F0860AF48006820F47040AD493D
:1010100008600846006840F4405008600020AB4972
:10102000C1F8AC010120FFF745F90120A649091FCD
:101030000860FFF73FF90020A449C1F8A80110BDDE
:1010400010B50020A049091F08609E48006820F4E0
:1010500070409C4908600846006840F440500860B1
:1010600001209A49C1F8AC01FFF724F90120964903
:10107000091F0860FFF71EF900209449C1F8A80174
:1010800010BD70B504468F48006820F470408D494B
:1010900008600846006840F44050086000208A4913
:1010A000091F0860002516E0E0098749086060060E
:1010B000040E0120FFF7FEF801208449C1F8A801C1
:1010C000FFF7F8F800208049091F08600120FFF7AA
:1010D000F1F8681CC5B2082DE6DB70BD2DE9F041C2
:1010E00005460E4617469846FFF70CFF10B901203B
:1010F000BDE8F0816906080EFFF7C3FFFFF750FF58
:1011000018B9FFF72DFF0120F2E73046FFF7B9FFCE
:10111000FFF746FF00240BE018F80400FFF7B1FFCB
:10112000FFF73EFF18B9FFF71BFF0020E0E7641C44
:10113000BC42F1DBFFF714FF0020D9E770B505468C
:1011400000246048006820F470405E49086008464A
:10115000006840F400400860002617E000205A496B
:10116000091F08600220FFF7A5F801205749C1F8C0
:10117000A8016006040E54488038006808B1601C5D
:10118000C4B20220FFF796F8701CC6B2082EE5DB49
:1011900015B1FFF733FF01E0FFF752FF204670BDA6
:1011A0002DE9F04106460F4614461D46FFF7AAFEFC
:1011B00010B90120BDE8F0817106080EFFF761FF4C
:1011C000FFF7EEFE18B9FFF7CBFE0120F2E7384635
:1011D000FFF757FFFFF7E4FEFFF794FE012101EB55
:1011E0004601C8B2FFF74DFFFFF7DAFE0DE0012C14
:1011F00004D10020FFF7A2FF287003E00120FFF7D1
:101200009DFF28706D1C601EC4B2002CEFD1FFF74B
:10121000A7FE0020CEE770B505460E460024FFF776
:1012200071FE2846FFF72DFF641CFFF7B9FE30461C
:10123000FFF727FF641CFFF7B3FEFFF763FE691C8F
:10124000C8B2FFF71EFF641CFFF7AAFE0020FFF7DD
:1012500075FF0446FFF784FE204670BD2DE9F0417E
:101260000746884615461E460024FFF74BFE3846C3
:10127000FFF707FFFFF794FE4046FFF702FFFFF777
:101280008FFEFFF73FFE791CC8B2FFF7FAFEFFF7AB
:1012900087FE00BF0DE0681EA04204D00120FFF7CA
:1012A0004DFF305503E00020FFF748FF3055601C2C
:1012B000C4B2AC42EFDBFFF753FE2046BDE8F0813D
:1012C00000100240040C0140AC8121420080214208
:1012D0002DE9F04180460D4616461F460024FFF7D3
:1012E00011FE4046FFF7CDFEFFF75AFE2846FFF7F6
:1012F000C8FEFFF755FE00BF06E0385DFFF7C1FEF0
:10130000FFF74EFE601CC4B2B442F6DBFFF728FEC6
:101310000120BDE8F08170B505460E461446314601
:101320002846FFF778FF2070012070BD37B50446CE
:101330000D4602AB012229462046FFF7C9FF3EBDFC
:101340002DE9F8430746884614461D46089E6A461E
:1013500041463846FFF7DFFF28B3601CFF2101FA42
:1013600000F0C4F108012944491EFF220A4110433C
:1013700000F0FF09C5F1080006FA00F0C6B2C4F19A
:10138000070006419DF8000000EA090000909DF862
:101390000000304300909DF8002041463846FFF79A
:1013A000C5FFBDE8F8830020FBE7F8B506460F4609
:1013B00014461D466A4639463046FFF7ACFF2DB14C
:1013C0000120A0409DF80010084305E00120A04046
:1013D0009DF8001021EA0000C0B200909DF80020A6
:1013E00039463046FFF7A2FFF8BD00002DE9F05F57
:1013F00005460E46300104F040F98146F44905FBEC
:1014000001F004F03AF98246494603F067FF0746C7
:10141000384604F061F984B2204604F02EF9834680
:10142000394603F026FF82464FF0834103F024FF44
:10143000814604F051F980464FF6FF7000EA04142B
:1014400004EB080084B2E348806940F00400E149FD
:1014500088610846C06940F40030C861DE48006811
:1014600020F47F40DC4908600846006840F40B40E7
:101470000860D9480C30006840F00400D6490C31AF
:101480000860D448006940F40030D2490861084639
:10149000006920F400300861D0480480001D0088F5
:1014A00042F20C010843CD49091D08800846008816
:1014B00040F4807008800846008840F020000880D2
:1014C0000223262203210846FEF748FFBDE8F09FCD
:1014D0002DE9F041C1480838008800F020000028BC
:1014E0007ED0BE48001F0088C4B2A4F161001A2853
:1014F00077D2DFE800F00D1D2D2E4C793D618EA3D3
:10150000B3C3C976DBFEFD76FC76CFD576FBFAF960
:10151000B3490968A1F1320004F0A6F8B1490860A6
:10152000AF480068323004F09FF8AF4908604AE1E4
:10153000AB480068323004F097F8AA490860A8491F
:101540000968A1F1320004F08FF8A74908603AE178
:1015500039E1A649A648006804F020F907D24FF007
:101560007E51A448006803F02FFEA24908602AE1DA
:1015700000219F48006804F01BF907D24FF07E510C
:101580009C48006803F072FE9A4908601BE19A4982
:101590009A48006804F002F90DD29848006804F0F7
:1015A000CEF80546964A974B03F0D6FE074604F060
:1015B000D9F89249086006E100219048006804F0DB
:1015C000F7F810D28D48006804F0B9F805468C4A47
:1015D0008C4B03F062FF074604F0C4F8874901E032
:1015E000F3E0EFE00860EEE080498748006804F02F
:1015F000D5F80DD28548006804F0A1F80546844A64
:10160000844B03F0A9FE074604F0ACF87F4908605C
:10161000D9E000217C48006804F0CAF80DD27B486C
:10162000006804F08CF80546794A7A4B03F035FFE0
:10163000074604F097F875490860C4E068490968EE
:10164000A1F1320004F010F87349086064480068A2
:10165000323004F009F871490860B4E0604800686D
:10166000323004F001F86C4908605D490968A1F165
:10167000320003F0F9FF69490860A4E06848008877
:101680000A30674908809EE055480068401C54496C
:10169000086098E052480068401E5149086092E096
:1016A0004F4800680A304E4908608CE05D48006889
:1016B00018BB5B48001F008844F2286188421CDC8C
:1016C0005748001F008828305549091F0880081D09
:1016D00000882830091D0880081D00882830091D51
:1016E0000880081D008805E051E056E05BE048E016
:1016F00017E012E02830091D08804A4800680128D8
:101700000AD13748006844F22861884204DC344832
:10171000006814303249086055E0012041490860F2
:1017200051E040480068E0B93D48001F008843F69A
:10173000A861884215DB3A48001F008828383849DC
:10174000091F0880081D00882838091D0880081D09
:1017500000882838091D0880081D00882838091DC0
:1017600008803048006801280AD11D48006843F607
:10177000A861884204DB1A480068143818490860D8
:1017800021E0174800680A38154908601BE0144832
:101790000068401D1249086015E011480068401FAC
:1017A0000F4908600FE000201E49086044F25060B5
:1017B0001B49091F0880091D0880091D0880091D93
:1017C000088000E000BF00BF00BFBDE8F08100005E
:1017D00040420F0000100240000801400844004051
:1017E0001C00002010000020140000200000C8424F
:1017F00024000020200000200000A041280000203C
:101800009A9999999999B93F3400002030000020A5
:101810007B14AE47E17A843F080000200C000020D2
:1018200038080040180000200146002901DA48422B
:1018300000E00846704730B505460C462846FFF7DD
:10184000F3FFFE4908802046FFF7EEFFFB49091D24
:1018500008801046FFF7E8FFF8490831088018466D
:10186000FFF7E2FFF5490C31088030BD70B5F44850
:101870000068F44909684418F1480068F1490968AA
:10188000451A284603F0F0FE0646EF480168304648
:1018900003F08EFF04D2284603F0E6FEEA49086012
:1018A000204603F0E1FE0646E7480168304603F0B3
:1018B00075FF04D2204603F0D7FEE34908602846AE
:1018C00003F0D2FE0646E1480168304603F070FF9F
:1018D00004D2284603F0C8FEDC490860204603F025
:1018E000C3FE0646D9480168304603F057FF04D2CC
:1018F000204603F0B9FED5490860284603F0B4FE3F
:101900000646D3480168304603F052FF04D2284609
:1019100003F0AAFECE490860204603F0A5FE064665
:10192000CB480168304603F039FF04D2204603F06B
:101930009BFEC7490860284603F096FE0646C54848
:101940000168304603F034FF04D2284603F08CFED1
:10195000C0490860204603F087FE0646BD4801687E
:10196000304603F01BFF04D2204603F07DFEB94948
:10197000086070BD10B5FEF75BFF0446012C07D16F
:10198000B548007808B9012000E00020B24908708D
:1019900010BD2DE9F047B148008800F00100002893
:1019A0007DD0AE48008820F00100AC490880FFF7E8
:1019B000E1FFAB480068012871D1AA48B0F90000E6
:1019C00040F6B831884205DCA648B0F9000049422B
:1019D000884204DAA448008800B2A2490880A148DD
:1019E000B0F9020040F6B831884205DC9D48B0F9F4
:1019F00002004942884204DA9C48008800B29949B2
:101A000048809848B0F90000974908609548B0F9B7
:101A10000200964908609349B1F9000003F032FED4
:101A200006464FF06632924B03F0AFFD044603F0DA
:101A300067FE00B28B490880B1F9020003F022FE74
:101A400006464FF066328A4B03F09FFD044603F0D2
:101A500057FE00B283494880B1F9040003F012FE3A
:101A600006464FF06632824B03F08FFD044603F0CA
:101A700047FE00B27B4988807E497F48006803F0BA
:101A800097FE05D37D497C48006803F087FE02D2AB
:101A900000207B49086077497A48006800E030E11F
:101AA00003F086FE05D375497648006803F076FE9C
:101AB00002D20020744908607448016870480068C8
:101AC00003F0DAFB80466749B1F9020003F0CCFD70
:101AD00007466F480168384603F0CEFB05460021F3
:101AE0006548006803F070FB82466A48016850460A
:101AF00003F0C2FB07465248006803F0B5FD81467B
:101B0000394603F0B3FB0646294603F0AFFB044613
:101B1000414603F0ABFB4C4908605C4801685848FB
:101B2000006803F0A9FB80464E49B1F9020003F0BA
:101B30009BFD074656480168384603F09DFB054665
:101B400000214D48006803F03FFB82465148016880
:101B5000504603F091FB07463948006803F084FDC6
:101B60008146394603F030FB0646294603F02CFB3C
:101B70000446414603F028FB3449086046480168A2
:101B80004148006803F078FB80463649B1F900000F
:101B900003F06AFD074641480168384603F06CFBD4
:101BA000054600213748006803F060FB82463C4848
:101BB0000168504603F060FB07462148006803F0C7
:101BC00053FD8146394603F0FFFA0646294603F0E5
:101BD000FBFA0446414603F0F7FA1D4908602E4817
:101BE00001682948006803F047FB80461D49B1F9A8
:101BF000000003F039FD074628480168384603F025
:101C00003BFB054600211F48006803F02FFB82467E
:101C100023480168504603F02FFB07460848006838
:101C200003F022FD8146394603F020FB0646294693
:101C300003F01CFB0446414634E000003408004039
:101C40001C00002048000020080000200C0000209C
:101C5000100000201400002002000020102C014081
:101C600018000020980000204000002044000020C0
:101C7000666630400000A040A80000200000A0C020
:101C800028000020AC0000202C000020B400002020
:101C90003000002020000020B80000203400002088
:101CA0002400002003F0E2FA264908602648016873
:101CB0002648006803F088FA24490860244801682F
:101CC0002448006803F080FA22490860FFF7CEFD3F
:101CD0001C48006803F0E7FC04461F48006803F056
:101CE000E2FC05461D48006803F0DDFC06461C4882
:101CF000006803F0D8FC074623462A463146FFF722
:101D00009AFDBDE8F08710B516490F48006803F04A
:101D100045FD11D314490C48006803F049FD0BD36D
:101D200010490B48006803F039FD05D30E490848F7
:101D3000006803F03DFD01D2012400E000242046AC
:101D400010BD000014000020A8000020B4000020F6
:101D5000AC000020B8000020100000200C00002083
:101D6000080000200000A0C20000A04238B50446D0
:101D7000FB4890F82400C0B114B10220009001E0AB
:101D800000200090F64A1268D17BF54A526810781C
:101D90006B460122FFF7A2F910B14FF0FF3038BDBA
:101DA0009DF80010EE48417423E0ED48807A10B9A8
:101DB0004FF0FF30F3E724B1E948407C08B1002040
:101DC000EDE714B10120009001E000200090E44A0A
:101DD0001268D17BE24A526810786B460122FFF705
:101DE0007DF910B14FF0FF30D9E79DF80010DC48C5
:101DF00041740020D3E738B5002419E0D8480068C2
:101E0000C07AA04204D0D6480068407DA04200D1EC
:101E10000CE0D349496808786B4601222146FFF758
:101E2000BFF910B14FF0FF3038BD00BF601CC4B225
:101E3000CB4840680079A042E0DC0020F4E770B5B0
:101E400004460D46C6480068C07AA04204D0C44883
:101E50000068407DA04202D14FF0FF3070BDC04805
:101E600040680079A04202DC4FF0FF30F6E7BC4941
:101E7000496808782B4601222146FFF791F9EDE7E2
:101E800038B50446B64890F82300A04201D100209E
:101E900038BD14B13020009001E000200090B0481F
:101EA000807C20B19DF8000040F002000090AC481A
:101EB00090F8220020B19DF8000040F080000090D2
:101EC000A74A1268117DA64A526810786B46012213
:101ED000FFF704F910B14FF0FF30D9E7A04880F8C0
:101EE00023400020D4E738B5044604F0700010B158
:101EF0000120009005E014B10020009001E0402096
:101F00000090974A1268917C954A526810786B4607
:101F10000122FFF7E3F820B1002191488172481EA9
:101F200038BD9DF8000020F040018D48017300206D
:101F3000009004F0400020B99DF8000040F004003B
:101F4000009004F0200020B99DF8000040F002004D
:101F5000009004F0100020B99DF8000040F001004E
:101F6000009004F0080020B99DF8000040F038000F
:101F700000907B4A1268D17C794A526810786B468F
:101F80000122FFF7ABF820B1002175488172481E8D
:101F9000C6E724B1082C02D00020FFF771FF70487B
:101FA0008472002101753220FEF7A0F90020B7E706
:101FB00038B504466A48807CA04201D1002038BD73
:101FC000002C46D0664A12681179654A526810782A
:101FD0006B460122FFF7E4F810B14FF0FF30EEE757
:101FE0009DF8000020F0200000905D4A12681179F1
:101FF0005B4A526810786B460122FFF76FF810B108
:102000004FF0FF30DBE70320FEF770F9022000906D
:10201000534890F8220020B19DF8000040F0800065
:1020200000904F4890F8230020B19DF8000040F048
:10203000300000904A4A1268117D494A526810786F
:102040006B460122FFF74AF8002851D04FF0FF30CD
:10205000B5E7434A12681179414A526810786B46D5
:102060000122FFF79DF810B14FF0FF30A7E73C4881
:10207000807A00F0010028B19DF8000040F02000B7
:10208000009004E09DF8000020F020000090344A09
:1020900012681179324A526810786B460122FFF7B4
:1020A0001DF810B14FF0FF3089E70320FEF71EF94D
:1020B0002B4890F8220010B18020009001E0002011
:1020C0000090274890F8230020B19DF8000040F0D0
:1020D00030000090224A1268117D214A526810781F
:1020E0006B460122FEF7FAFF10B14FF0FF3066E7B2
:1020F0001B488474002062E708B51948807A10B93B
:102100004FF0FF3008BD00200090154A1268D17BC7
:10211000134A526810786B460122FEF7DFFF10B1B8
:102120004FF0FF30EEE70E4A126851790C4A5268C0
:1021300010786B460122FEF7D1FF10B14FF0FF304F
:10214000E0E7074A12681179054A526810786B4631
:102150000122FEF7C3FF28B14FF0FF30D2E70000A5
:102160006C000020F74890F82400002850D00C2084
:102170000090F44A12681179F24A526810786B465E
:102180000122FEF7ABFF10B14FF0FF30BAE7C020DD
:102190000090EC48807A00F0010020B19DF800002A
:1021A00040F020000090E74A12681179E54A526831
:1021B00010786B460122FEF791FF10B14FF0FF300F
:1021C000A0E7E048407C10B10220009001E0002030
:1021D0000090DC4A1268D17BDA4A526810786B466C
:1021E0000122FEF77BFF10B14FF0FF308AE700209D
:1021F0000090D44A12685179D24A526810786B46DE
:102200000122FEF76BFF002852D04FF0FF3079E734
:1022100004200090CB4A12681179CA4A526810789B
:102220006B460122FEF75AFF10B14FF0FF3069E70D
:10223000C448807C20B9C348807A00F0010010B9FE
:102240004020009001E060200090BE4A12681179A1
:10225000BC4A526810786B460122FEF73FFF10B16E
:102260004FF0FF304EE7B748407C10B1012000909E
:1022700001E000200090B34A1268D17BB14A526855
:1022800010786B460122FEF729FF10B14FF0FF30A6
:1022900038E7AC4A12685179AA4A52681078A94BBB
:1022A00010330122FEF71AFF10B14FF0FF3029E77B
:1022B000002027E770B50446002624F00104A14859
:1022C00090F8240008B1002070BD9E48807A10B9B3
:1022D0004FF0FF30F8E79B48057C807A2040994911
:1022E00008740846007CA04202D04FF0FF3600E0A0
:1022F000002614B99348007D18B10120FFF736FD80
:1023000002E00020FFF732FD3CB1FFF7F5FE20B1FF
:102310008C4805744FF0FF30D6E73046D4E738B527
:1023200004468848807A10B94FF0FF3038BDBC2C85
:1023300002DB0120009015E0622C02DB02200090FD
:1023400010E02A2C02DB032000900BE0142C02DBAF
:102350000420009006E00A2C02DB0520009001E03A
:10236000062000907748C07A9DF80010884201D17D
:102370000020DBE7734A12689178724A526810783D
:102380006B460122FEF7AAFE10B14FF0FF30CDE7F9
:102390009DF800106B48C1720020C7E738B50446AD
:1023A000282C02DD4FF0FF3038BDDCB90020FFF7EC
:1023B00067FD00208DF8000007208DF80100614ABC
:1023C0001268917C5F4A526810786B460222FEF7D1
:1023D00085FE10B14FF0FF30E6E700215948017546
:1023E0000020E1E70120FFF74BFD20208DF80000E1
:1023F000012C06D100208DF801000520FFF78FFF8A
:1024000017E0052C06DC01208DF801000520FFF700
:1024100086FF0EE0142C06DC02208DF801000A2055
:10242000FFF77DFF05E003208DF801001420FFF782
:1024300076FF9DF80100072101EB8010C0B28DF8F6
:102440000100404A1268917C3E4A526810786B46FF
:102450000222FEF743FE10B14FF0FF30A4E708213F
:102460003848817200210173012101750020FFF7B6
:1024700021FF002098E738B504463248807A10B929
:102480004FF0FF3038BD2F4890F8240010B14FF0C6
:10249000FF30F7E72B48007D50B134B1282C04DC25
:1024A000E0B2FFF77BFF0020ECE70020FFF776FFAC
:1024B000042C01DA042404E0B4F57A7F01DD4FF442
:1024C0007A744FF47A7090FBF4F0401EC0B2009022
:1024D0001C4A126851781B4A526810786B460122D8
:1024E000FEF7FCFD10B14FF0FF30CBE79DF8000088
:1024F000401C4FF47A7191FBF0F081B21148C18118
:102500000146C9894810FFF70AFF0020BAE738B52D
:1025100004460C48807A10B94FF0FF3038BD022CC9
:1025200006D0042C07D0082C08D0102C0FD10BE0BB
:10253000002000900EE0082000900BE0102000909A
:1025400008E000006C0000201820009002E04FF02E
:10255000FF30E3E700BFF948407A9DF80010B0EB88
:10256000E10F01D10020D9E7F44A1268D179F34A8A
:10257000526810786B460122FEF7B0FD10B14FF0A3
:10258000FF30CBE79DF80000C110EC4841720020FD
:10259000C4E738B50446E948807A10B94FF0FF30F7
:1025A00038BDFA2C09D0B4F5FA7F09D0B4F57A7F9A
:1025B00009D0B4F5FA6F0CD108E0002000900BE0D0
:1025C0000820009008E01020009005E018200090FE
:1025D00002E04FF0FF30E3E700BFD848007A9DF8F3
:1025E0000010B0EBE10F01D10020D9E7D34A126807
:1025F0009179D24A526810786B460122FEF76EFD3F
:1026000010B14FF0FF30CBE79DF80000C010CB4970
:1026100008720020C4E71CB580208DF80000C74A6E
:102620001268917CC54A526810786B460122FEF709
:1026300055FD10B14FF0FF301CBD6420FDF756FE74
:1026400000208DF80000BD4A1268917CBB4A526898
:1026500010786B460122FEF741FD10B14FF0FF30BC
:10266000EAE7B64A1268917DB44A526810786B4620
:102670000622FEF795FD10B14FF0FF30DCE79DF824
:102680000500C007400F9DF8031001F0010140EA6A
:1026900041009DF8011001F0010140EA010494B1EC
:1026A000012C03D10121A548C17431E0022C03D1D2
:1026B0000021A248C1742BE02146A1A003F00AFA30
:1026C0004FF0FF30B8E79D4A1268D1789B4A5268B4
:1026D00010786B460122FEF763FD10B14FF0FF301A
:1026E000AAE79DF8000000F00F042CB99E4803F003
:1026F000F1F94FF0FF309FE7042C06D19BA003F0C7
:10270000E9F901218D48C17402E000218B48C174B0
:10271000FF218A488172FF2088490872FF2187487B
:102720004172C1724FF6FF71C181FF210174817442
:102730000121017380F82210002180F823104175D7
:1027400001751630016041608160163880F82410F0
:1027500080F82510C1844FF4FA60FFF71AFF10B11A
:102760004FF0FF3068E70220FFF7D1FE10B14FF0C5
:10277000FF3061E72A20FFF7D2FD10B14FF0FF30A4
:102780005AE73220FFF777FE10B14FF0FF3053E7E2
:102790000020FFF78FFD10B14FF0FF304CE7002015
:1027A000FFF706FC10B14FF0FF3045E70020FFF7C0
:1027B0009AFB002040E770477CB504460D465F4811
:1027C000807A00F0700010B94FF0FF307CBD5B4A9A
:1027D0001268117B594A526810786B460622FEF740
:1027E000DFFC10B14FF0FF30F0E79DF801009DF8DD
:1027F000001040EA012000B220809DF803009DF8FF
:10280000021040EA012000B260809DF805009DF8AA
:10281000041040EA012000B2A08015B12846FFF75D
:10282000CAFF0020D2E77CB504460D464348807AB3
:1028300000F0080010B94FF0FF307CBD3F4A12682D
:10284000517B3E4A526810786B460622FEF7A8FC80
:1028500010B14FF0FF30F0E79DF801009DF8001037
:1028600040EA012000B220809DF803009DF802108C
:1028700040EA012000B260809DF805009DF8041038
:1028800040EA012000B2A08015B12846FFF793FF6F
:102890000020D2E72DE9FE4F05460C462748807AF6
:1028A00018B94FF0FF30BDE8FE8F244A1268917BC3
:1028B000224A5268107802AB0222FEF771FC10B176
:1028C0004FF0FF30EFE79DF809009DF8081040EA4F
:1028D000012006B214B12046FFF76DFF1749496881
:1028E000C88802F0CAFE154901904968B1F908008C
:1028F00002F0BAFE8346304602F0B6FE594600901A
:1029000002F0B4FC8246019902F0E8FC81461F49BE
:1029100002F05AFC80464FF08F4102F0ADFC0746B2
:1029200002F0C1FE28600020BDE710B588B0044663
:102930001CB94FF0FF3008B010BD29E06C0000203A
:10294000556E737570706F7274656420736F667402
:10295000776172652070726F64756374207265763A
:102960002025642E0A000000587D000848616C662E
:102970002073656E73697469766974792070617209
:102980007420666F756E642E0D0A000000000C4204
:10299000206830B9606820B9A06810B9002008B07C
:1029A00010BDFA494968087806AB03221146FEF7C4
:1029B000F7FB10B14FF0FF30F1E79DF81800082148
:1029C00001EB201000F00F00ADF800009DF8190099
:1029D00001EB201000F00F00ADF802009DF81A0086
:1029E00001EB201000F00F00ADF80400206841005A
:1029F000BDF90000403091FBF0F000B2ADF81000DE
:102A000060684100BDF90200403091FBF0F000B277
:102A1000ADF81200A0684100BDF90400403091FB00
:102A2000F0F000B2ADF81400D8494968087806AB58
:102A300006221146FEF7B4FB10B14FF0FF30AEE7AF
:102A40009DF819009DF8181040EA012000B2ADF879
:102A500008009DF81B009DF81A1040EA012000B202
:102A6000ADF80A009DF81D009DF81C1040EA0120F9
:102A700000B2ADF80C00BDF81000BDF80810084415
:102A800000B2ADF81000BDF81200BDF80A100844FD
:102A900000B2ADF81200BDF81400BDF80C100844E7
:102AA00000B2ADF81400BDF81000000A8DF818004F
:102AB000BDF81000C0B28DF81900BDF81200000A70
:102AC0008DF81A00BDF81200C0B28DF81B00BDF8D9
:102AD0001400000A8DF81C00BDF81400C0B28DF877
:102AE0001D00AA494968087806AB06221146FEF780
:102AF000F5FA10B14FF0FF3051E700204FE70146E3
:102B0000A248007A30B1012807D0022809D0032852
:102B10000FD10AE0FA2008800EE04FF4FA70088026
:102B20000AE04FF47A70088006E04FF4FA600880FB
:102B300002E00020088000BF00BF0020704701466F
:102B40009248407A30B1012807D0022808D00328E3
:102B50000CD108E0022008700BE00420087008E0A7
:102B60000820087005E01020087002E04FF0FF30E8
:102B7000704700BF8548C07C18B108784006000E39
:102B800008700020F4E701468048C07A082817D270
:102B9000DFE800F01704070A0D101318BC200880A6
:102BA00013E06220088010E02A2008800DE0142045
:102BB00008800AE00A20088007E00520088004E079
:102BC00000BF00BF0020088000BF00BF002070478A
:102BD00001466E4890F8240010B14FF0FF30704766
:102BE0006A48C08908800020F9E701460020088073
:102BF000401E704701464FF0FF3070470146634862
:102C0000007A30B1012807D0022808D003280CD15F
:102C100008E05F4808600BE05E48086008E05E4836
:102C2000086005E05D48086002E04FF0FF30704743
:102C300000BF0020FBE701465448407A30B101282C
:102C400008D002280AD0032810D10BE04FF48040AE
:102C500008800EE041F69C7008800AE04FF4805036
:102C6000088006E04FF40060088002E04FF0FF307B
:102C7000704700BF4548C07C10B1088840100880EC
:102C80000020F5E701464148007C087000207047AD
:102C900001463E48807A10B10120087001E0002012
:102CA00008700020704738B504463848807A10B95B
:102CB0004FF0FF3038BD354A1268117C334A5268F4
:102CC00010786B460222FEF76BFA10B14FF0FF301E
:102CD000F0E79DF801009DF8001040EA012000B2E5
:102CE00020800020E6E72DE9FE4F07468846924601
:102CF0001D46DDF830B000260024244890F824005A
:102D000010B1601EBDE8FE8F002028701F48807A39
:102D100010B94FF0FF30F5E71C48007C10B94FF0B8
:102D2000FF30EFE71948007C00F0400008B1B01C0C
:102D3000C6B21648007C00F0200008B1B01CC6B234
:102D40001248007C00F0100008B1B01CC6B20F4859
:102D5000007C00F0080008B1B01DC6B20B4A126832
:102D6000917A0A4A526810786B460222FEF718FAE6
:102D700010B14FF0FF30C5E79DF801009DF800103D
:102D800040EA0129B1450BDA0020BBE76C000020C6
:102D90000000034300008342333303423333834153
:102DA000FC4840684088B9EB600F17DDF94A1268AB
:102DB000517CF84A526810786B460122FEF7F0F910
:102DC00010B14FF0FF309DE79DF8000000F01000BB
:102DD00020B1FFF791F96FF0010093E75046FFF73C
:102DE000EAFCEC4A1268D17AEA4A526810786B46DB
:102DF0003246FEF7D5F910B14FF0FF3082E799FB6C
:102E0000F6F0401E8BF8000000202870B4422AD053
:102E1000E048007C00F0080028B3601C1DF80000AA
:102E20001DF8041040EA012000B2A8F80000E01CE0
:102E30001DF80010A01C1DF8000041EA002000B29F
:102E4000A8F80200601D1DF80010201D1DF80000EC
:102E500041EA002000B2A8F80400287840F00800F9
:102E60002870A01D84B2B44213D0CA48007C00F080
:102E7000400070B1601C1DF800001DF8041040EA0D
:102E8000012000B23880287840F040002870A01C53
:102E900084B2B44213D0BF48007C00F0200070B16F
:102EA000601C1DF800001DF8041040EA012000B26B
:102EB0007880287840F020002870A01C84B2B442AA
:102EC00013D0B448007C00F0100070B1601C1DF8F5
:102ED00000001DF8041040EA012000B2B8802878F4
:102EE00040F010002870A01C84B200200AE7F8B55A
:102EF00004460F461646A74890F8240010B94FF034
:102F0000FF30F8BDA348807A10B94FF0FF30F8E7E2
:102F1000A04A1268917A9F4A526810786B46022242
:102F2000FEF73EF910B14FF0FF30EAE79DF80100DF
:102F30009DF8001040EA0125A54203DA0020307018
:102F4000401EDEE7934840684088B5EB600F17DD10
:102F5000904A1268517C8F4A526810786B46012261
:102F6000FEF71EF910B14FF0FF30CAE79DF80000E0
:102F700000F0100020B1FFF7BFF86FF00100C0E7CC
:102F8000E2B2844B1B68D97A824B5B6818783B4667
:102F9000FEF706F910B14FF0FF30B2E795FBF4F001
:102FA000401E30700020ACE701467A4880F82210BD
:102FB000002070477CB5054676494968087801AB22
:102FC00004220D21FEF7ECF808B107207CBD9DF826
:102FD0000700C0F301109DF8041001F0E00140EA81
:102FE000E1008DF800009DF80700C0F381009DF816
:102FF000051001F0E00140EAE1008DF801009DF8C4
:10300000070000F003009DF8061001F0E00140EA1F
:10301000E1008DF8020000241CE01DF8040018B93E
:10302000002045F8240013E05B4845F8240006E042
:1030300055F82400594902F01FF945F824001DF8FD
:103040000400401EC0B20DF804000028F0D100BFFB
:10305000601CC4B2032CE0DB0020B7E72DE9FE4F73
:1030600006460F4600256846FFF7A4FF002442E00D
:1030700056F8240057F82410A0EB010ABAF1000F0B
:1030800001DB514601E0CAF10001084602F0ECFA0A
:1030900083464FF08F4102F021F980465DF824000D
:1030A000002102F07BFB16D05DF82410404602F0B0
:1030B00015F982464FF07E5102F0D8F8814629F08A
:1030C000004A3748416A504602F072FB12D2012092
:1030D000A04005430EE03248C169404602F05EFB65
:1030E00005D32F48016A404602F062FB02D201205C
:1030F000A0400543641C032CBADB2846BDE8FE8FC4
:103100002DE9FC5F06460F460025224949680878EC
:1031100001AB03220D21FEF743F810B10720BDE8F3
:10312000FC9F9DF8040000F01F008DF804009DF83E
:10313000050000F01F008DF805009DF8060000F066
:103140001F008DF80600002462E056F8240057F8AE
:103150002410A0EB010BBBF1000F01DB594601E08D
:10316000CBF10001084602F07FFA4FF08F4100904A
:1031700002F0B4F8814601A8005DC0B308490868B0
:1031800002F07BFA83465946064802F0A7F88046CB
:103190000FE000006C0000207B14AE3E1D5A843FFF
:1031A0004470000800B04C45FE49404602F064F807
:1031B000804601A8005D401EC0B201A90855002844
:1031C000F2D14146484602F089F883464FF07E51DD
:1031D00002F04CF882462AF0004BF34881695846C9
:1031E00002F0E6FA13D20120A04005430FE0FFE70A
:1031F000ED480169484602F0D1FA05D3EA48416931
:10320000484602F0D5FA02D20120A0400543641CD2
:10321000032C9ADB284682E72DE9F04F87B005465C
:103220000C46914601208DF8100000208DF8110009
:10323000DE4A1268917CDD4A5268107804AB0222A3
:10324000FDF74CFF20B14FF0FF3007B0BDE8F08F25
:10325000C820FDF74BF800208DF81000D34A126803
:10326000D17BD24A5268107804AB0122FDF736FFB9
:1032700010B14FF0FF30E8E7CC4A12685179CB4AE1
:103280005268107804AB0122FDF728FF10B14FF00F
:10329000FF30DAE7C54A1268917CC44A5268107858
:1032A00004AB0122FDF71AFF10B14FF0FF30CCE75D
:1032B000BE4A1268D17DBD4A5268107804AB012223
:1032C000FDF70CFF10B14FF0FF30BEE7B74A1268B0
:1032D0001179B64A5268107804AB0122FDF7FEFE60
:1032E00010B14FF0FF30B0E70C208DF81000AF4A5E
:1032F00012681179AD4A5268107804AB0122FDF7CB
:10330000EDFE10B14FF0FF309FE70F20FCF7EEFF0E
:10331000A648806A407A8DF81000A44A1268917815
:10332000A24A5268107804AB0122FDF7D7FE10B113
:103330004FF0FF3089E79D48806A007A8DF81000D1
:103340009A4A12685178994A5268107804AB01225F
:10335000FDF7C4FE10B14FF0FF3076E7B9F1000F72
:1033600007D09248806A807A40F0E0008DF8100023
:1033700004E08E48806A807A8DF810008B4A1268CB
:1033800091798A4A5268107804AB0122FDF7A6FEB3
:1033900010B14FF0FF3058E7B9F1000F07D0834864
:1033A000806AC07A40F0E0008DF8100003E07E48AB
:1033B000C07A8DF810007D4A1268D1797B4A526834
:1033C000107804AB0122FDF789FE10B14FF0FF30F9
:1033D0003BE7B9F1000F02D0C820FCF787FF40207F
:1033E0008DF81000714A12681179704A526810788D
:1033F00004AB0122FDF772FE10B14FF0FF3024E75D
:1034000078208DF81000694A12685179674A52682D
:10341000107804AB0122FDF761FE10B14FF0FF30D0
:1034200013E761498889FCF761FF00208DF81000DF
:103430005E4A126851795D4A5268107804AB0122E5
:10344000FDF74CFE10B14FF0FF30FEE6574A126810
:10345000917A564A5268107804AB0222FDF7A0FE1A
:1034600010B14FF0FF30F0E69DF811009DF81010FC
:1034700040EA012B0C209BFBF0F0C6B20020A860B4
:1034800068602860A06060602060824665E0474A0E
:103490001268D17A454A5268107804AB0C22FDF7C5
:1034A0007FFE10B14FF0FF30CFE69DF811009DF880
:1034B000101040EA012000B2ADF808009DF813009A
:1034C0009DF8121040EA012000B2ADF80A009DF804
:1034D00015009DF8141040EA012000B2ADF80C0070
:1034E000BDF90810206808442060BDF90A10606822
:1034F00008446060BDF90C10A0680844A0609DF805
:1035000017009DF8161040EA012000B2ADF8000047
:103510009DF819009DF8181040EA012000B2ADF89E
:1035200002009DF81B009DF81A1040EA012000B22D
:10353000ADF80400BDF90010286808442860BDF902
:103540000210686808446860BDF90410A86808445F
:10355000A8600AF1010000F0FF0AB24597DB1248AB
:10356000D0F800C02868C117090441EA10410704D7
:1035700062460023384601F0D7FD32460023CDE9EC
:10358000020101F0D1FD28600748D0F800C068684A
:10359000C117090441EA1041070462460023384676
:1035A00006E0000054E3853F447000086C000020F2
:1035B00001F0BAFD32460023CDE9020101F0B4FD6D
:1035C0006860FE48D0F800C0A868C117090441EA45
:1035D0001041070462460023384601F0A5FD32463B
:1035E0000023CDE9020101F09FFDA860F348D0F867
:1035F00004C02168C817000440EA11480F0462465D
:1036000000233846414601F08FFD32460023CDE9C4
:10361000020101F089FD2060E848D0F804C060682C
:10362000C117090441EA10410704624600233846E5
:1036300001F07AFD32460023CDE9020101F074FD6C
:103640006060DE48D0F804C0A068C117090441EAF0
:103650001041070462460023384601F065FD3246FA
:103660000023CDE9020101F05FFDA060A068002801
:1036700004DDA068A0F58030A06003E0A06800F53C
:103680008030A0600020E0E538B50446CC4890F8D2
:103690002400A04201D1002038BD24B3C84890F8CE
:1036A000250010B94FF0FF30F6E70020FEF75EFB73
:1036B0000020FEF77DFCC249C88CFEF7DCFE00202E
:1036C0000090BF49496808786B4601222321FDF725
:1036D00005FD0121BA4880F824100120FEF746FBC1
:1036E000FEF70AFD13E00020FEF740FBB448007C23
:1036F0000090B349496808786B4601222321FDF701
:10370000EDFC0021AE4880F82410FEF7F5FC002007
:10371000C2E72DE9F04F8DB083460F4602200C9092
:10372000A74890F8240020B10020FFF7ADFF012644
:1037300000E0002603A8FFF7E2F905A8FFF7FFF96C
:1037400001A8FFF720FA02A8FFF742FA9C4890F878
:103750000AA004A8FFF796FA002407E000223946E1
:103760005846FFF759FD00B902E0641C022CF5DB56
:1037700000BF022C01D1002528E0002407E001222F
:1037800006A909A8FFF748FD00B902E0641C022C55
:10379000F5DB00BF022C01D1002517E006A9384651
:1037A000FFF75CFC00F0FF0809A95846FFF7A8FCEA
:1037B00000F0FF090025B9F1000F01D145F0010526
:1037C000B8F1000F01D145F0020500BFFF207C4990
:1037D0000872FF217A484172C1724FF6FF71C181B0
:1037E000FF218172017401210173BDF80C00FEF705
:1037F000D0FE9DF81400FEF78AFEBDF80400FEF727
:103800008EFDBDF80800FEF736FE5046FEF76BFB56
:103810009DF81000FEF74EFD16B10120FFF734FFB2
:1038200028460DB0BDE8F08FF8B504460D461646A3
:1038300016B94FF0FF30F8BD6148807A10B94FF0EB
:10384000FF30F8E720128DF80000E0B28DF801009B
:103850009DF8010028445A4949684989884202DD97
:103860004FF0FF30E7E7564A1268117E544A52681B
:1038700010786B460222FDF731FC10B14FF0FF309B
:10388000D9E7EAB24E4B1B68597D4D4B5B681878FF
:103890003346FDF723FC10B14FF0FF30CBE700209B
:1038A000C9E7F8B504460D46164616B94FF0FF3085
:1038B000F8BD4348807A10B94FF0FF30F8E7201286
:1038C0008DF80000E0B28DF801009DF80100284459
:1038D0003B4949684989884202DD4FF0FF30E7E7FC
:1038E000374A1268117E364A526810786B460222B7
:1038F000FDF7F4FB10B14FF0FF30D9E7EAB2304BDF
:103900001B68597D2E4B5B6818783346FDF748FCE1
:1039100010B14FF0FF30CBE70020C9E72DE9F043AD
:1039200085B005460E4690469946254890F82500F4
:1039300020B14FF0FF3005B0BDE8F08316B94FF06D
:10394000FF30F8E7002423E0281B102801DD1020B9
:1039500000E0281B87B2321939462046FFF764FF82
:1039600010B14FF0FF30E6E701AA39462046FFF7D5
:1039700098FF10B14FF0FF30DDE730193A4601A94A
:1039800001F015FC10B16FF00100D4E7E01984B22A
:10399000AC42D9DB4FEA28208DF8000008F0FF0088
:1039A0008DF80100064A1268917E054A5268107827
:1039B0006B460222FDF792FB38B103E04470000829
:1039C0006C0000204FF0FF30B5E701218A4880F8F5
:1039D0002510A0F826900020ADE70146864890F813
:1039E000240008700020704702464FF0FF307047F7
:1039F00001464FF0FF307047F8B505460F461446B4
:103A0000002C70D0B5F5FF5F01DDFF2605E0202D0D
:103A100001DA012601E0C5F3471607B90127282C72
:103A200002DD4FF0FF30F8BD7348407D28BB72487F
:103A300090F8240038B10020FFF726FE01216E48DF
:103A400080F8201003E000216B4880F820106A48BD
:103A50001630FFF754F868481830FFF770F86648DA
:103A60001A30FFF790F864481C30FFF7B1F862484D
:103A7000817A81771F30FFF705F90020FEF776F98C
:103A80000020FEF78BFC00208DF800005A4A1268D7
:103A90009178594A526810786B460122FDF71EFB57
:103AA00010B14FF0FF30BEE740208DF80000524AC1
:103AB0001268D17B504A526810786B460122FDF79C
:103AC0000DFB00B165E08DF800608DF801704A4A89
:103AD0001268117A484A526810786B460222FDF744
:103AE000FDFA08B155E047E00520FCF7FFFB42482E
:103AF000407A072101EBC000C0B28DF800003E4AB9
:103B00001268D1793C4A526810786B460122FDF761
:103B1000E5FA00B13DE020208DF80000012C03D132
:103B200000208DF801000EE0052C03DC01208DF84B
:103B3000010008E0142C03DC02208DF8010002E0F3
:103B400003208DF801009DF80100072101EB801092
:103B5000C0B28DF80100284A1268917C264A52684A
:103B600010786B460222FDF7B9FA00B111E001218D
:103B700021484175002056E71F4A1632002103E014
:103B8000505C00B105E0491C0C29F9D34FF0FF301F
:103B900049E7FF2018490872FF2117484172C17296
:103BA0004FF6FF71C181FF21817201740121017300
:103BB0000146887FFEF797F90F49C88AFEF7E9FCAE
:103BC0000D49087EFEF7A3FC0B49488BFEF7A7FBC7
:103BD0000949888BFEF74FFC0749C87FFEF76AFB4F
:103BE000054890F8200010B10120FFF74DFD00219D
:103BF00001484175002016E76C00002010B5C8236D
:103C00004FF48062F74940F6F630FFF787FE10BDAB
:103C100010B586B00446F4A000680390F3A00068D5
:103C20000290F3A000680190F2A00068009004F0F8
:103C3000030003A9085C8DF8140003A8C4F3C101B4
:103C4000405C8DF8150003A8C4F38111405C8DF829
:103C5000160004F0030002A9085C8DF8100002A809
:103C6000C4F3C101405C8DF8110002A8C4F38111B6
:103C7000405C8DF8120005AA032140F22640FFF7B0
:103C8000D3FD18B14FF0FF3006B010BD04AA0321D8
:103C900040F22A40FFF7C8FD10B14FF0FF30F3E7C4
:103CA000019805900098049004F0040058B19DF824
:103CB000140040F001008DF814009DF8100040F051
:103CC00001008DF8100004F0200058B19DF8150097
:103CD00040F001008DF815009DF8110040F0010042
:103CE0008DF8110004F4807058B19DF8160040F072
:103CF00001008DF816009DF8120040F001008DF8CB
:103D0000120005AA03214FF48860FFF78DFD10B162
:103D10004FF0FF30B8E704AA032140F23140FFF72B
:103D200083FD10B14FF0FF30AEE7B34804810020AF
:103D3000AAE71FB50446B048007A00F0030054F823
:103D400020000190AC48007A00F0040010B1019806
:103D500040420190A848007AC0F3C10054F8200006
:103D60000290A548007A00F0200010B1029840426D
:103D70000290A148007AC0F3811054F8200003900B
:103D80009D48008900F4807010B103984042039070
:103D90009A49019880FB0101800F40EA810001905F
:103DA0009649029880FB0110820042EA91700290CD
:103DB0009249039880FB0110820042EA91700390BF
:103DC0000198000E8DF800000198000C8DF801009C
:103DD0000198000A8DF802000198C0B28DF8030026
:103DE0006A4604214FF47470FFF71EFD18B14FF0BE
:103DF000FF3004B010BD0298000E8DF8000002984C
:103E0000000C8DF801000298000A8DF8020002985B
:103E1000C0B28DF803006A4604214FF47570FFF7B5
:103E200003FD10B14FF0FF30E3E70398000E8DF86B
:103E300000000398000C8DF801000398000A8DF82B
:103E400002000398C0B28DF803006A4604214FF4C3
:103E50007670FFF7E9FCCCE770B588B0064601A89C
:103E6000FEF7E9FEBDF804000021C90341EA504510
:103E7000C4036148007A00F0030056F82000059062
:103E80005D48007A00F0040010B1059840420590AA
:103E90005948007AC0F3C10056F8200006905648F1
:103EA000007A00F0200010B1069840420690524877
:103EB000007AC0F3811056F8200007904E48008920
:103EC00000F4807010B10798404207900598C11720
:103ED000A0FB042301FB043100FB0510810041EA33
:103EE000927005900698C117A0FB042301FB0431D2
:103EF00000FB0510810041EA927006900798C117F7
:103F0000A0FB042301FB043100FB0510810041EA02
:103F1000927007900598000E8DF808000598000C27
:103F20008DF809000598000A8DF80A000598C0B2BE
:103F30008DF80B000698000E8DF80C000698000C0A
:103F40008DF80D000698000A8DF80E000698C0B294
:103F50008DF80F000798000E8DF810000798000CE0
:103F60008DF811000798000A8DF812000798C0B26A
:103F70008DF8130002AA0C214FF42570FFF754FCB2
:103F800008B070BD30B585B004461DA207CA02ABAB
:103F900007C3C82C03DD4FF0FF3005B030BDC8208B
:103FA00090FBF4F0401E85B2280A8DF80000E8B2BC
:103FB0008DF801006A46022140F21620FFF734FC1A
:103FC00010B14FF0FF30E8E702AA0C2140F6C12003
:103FD000FFF72AFC10B14FF0FF30DEE7064884817E
:103FE0000020DAE76C7000084CCD6C000CC92C0086
:103FF0003656760026466600E004002009E3CA0231
:10400000FEF2ABC4AAF1DFDFBBAFDFDF0146FC4845
:1040100080890880002070472DE9FC4706460F463E
:1040200006F0070010B1B7F5C86F03DD4FF0FF30A1
:10403000BDE8FC87384601F020FB8146F14901F0DC
:104040004DF980466846FEF77AFD9DF8000002288B
:1040500006D0042816D0082826D0102848D135E0EC
:104060004FF08D41404601F007F9814601F034FBE5
:1040700084B2E549404601F0FFF8814601F02CFB8F
:1040800085B238E04FF08C41404601F0F5F88146AA
:1040900001F022FB84B2DD49404601F0EDF8814693
:1040A00001F01AFB85B226E04FF08B41404601F04B
:1040B000E3F8814601F010FB84B2D549404601F097
:1040C000DBF8814601F008FB85B214E04FF08A412D
:1040D000404601F0D1F8814601F0FEFA84B2CD49A4
:1040E000404601F0C9F8814601F0F6FA85B202E0D7
:1040F0004FF0FF309CE700BF20128DF80400E0B2C3
:104100008DF8050028128DF80600E8B28DF807003A
:1041100006F00100A0B101AA02214FF4EA70FFF7F6
:1041200083FB10B14FF0FF3082E70DF10602022150
:104130004FF49270FFF778FB10B14FF0FF3077E744
:1041400006F00200A0B101AA02214FF4EC70FFF7C3
:104150006BFB10B14FF0FF306AE70DF10602022150
:104160004FF49470FFF760FB10B14FF0FF305FE742
:1041700006F00400A0B101AA02214FF4EE70FFF78F
:1041800053FB10B14FF0FF3052E70DF10602022150
:104190004FF49670FFF748FB10B14FF0FF3047E740
:1041A000002045E738B504460020009004F00100E7
:1041B00020B19DF8000040F03000009004F00200B3
:1041C00020B19DF8000040F00C00009004F00400C5
:1041D00020B19DF8000040F0030000906A460121E4
:1041E0004FF4A470FFF720FB38BD38B50446012C0E
:1041F00001DA012402E0042C00DD0424601EC0B2B8
:1042000000906A46012140F24F10FFF70DFB38BDC8
:1042100038B50446052094FBF0F085B228128DF8DD
:104220000000E8B28DF801006A4602214FF4EF70F9
:10423000FFF7FAFA38BD38B50446052094FBF0F0D4
:1042400085B228128DF80000E8B28DF801006A46A8
:1042500002214FF4ED70FFF7E7FA38BDF8B50546D7
:104260000E464FF47A7095FBF0F000FB06F4200E3A
:104270008DF80000200C8DF80100200A8DF8020056
:10428000E0B28DF803006A4604214FF4AE70FFF7E8
:10429000CBFAF8BD38B50446052094FBF0F084B2A3
:1042A00020128DF80000E0B28DF801006A4602216C
:1042B0004FF4AD70FFF7B8FA38BD38B504460520A5
:1042C00094FBF0F084B220128DF80000E0B28DF87B
:1042D00001006A4602214FF4AC70FFF7A5FA38BD21
:1042E00038B5044614B94FF0FF3038BD6A46042192
:1042F0004FF45870FFF7D5FA10B14FF0FF30F4E7E4
:104300009DF8000000069DF8011040EA01409DF86C
:10431000021040EA01209DF80310084320600020AD
:10432000E3E738B50446200E8DF80000200C8DF828
:104330000100200A8DF80200E0B28DF803006A4601
:1043400004214FF45870FFF76FFA38BD38B50446B2
:1043500014B94FF0FF3038BD6A4604214FF4717034
:10436000FFF79FFA10B14FF0FF30F4E79DF800001F
:1043700000069DF8011040EA01409DF8021040EA55
:1043800001209DF80310084300EB800080002060AE
:104390000020E0E738B504461420B4FBF0F4200E0A
:1043A0008DF80000200C8DF80100200A8DF8020025
:1043B000E0B28DF803006A4604214FF47170FFF7F4
:1043C00033FA38BD38B5044664B120208DF80000BA
:1043D00028208DF8010030208DF8020038208DF85B
:1043E000030004E0A3220421684600F0CEFE6A46E2
:1043F000042140F69E20FFF717FAFDF77DFE38BD39
:10440000E004002000004843000040460000C04592
:10441000000040450000C04438B5044664B1C020E7
:104420008DF80000C2208DF80100C4208DF8020034
:10443000C6208DF8030004E08B220421684600F0BA
:10444000A4FE6A46042140F69820FFF7EDF9FDF737
:1044500053FE38BD3EB504466CB1FDA1D1E9002044
:104460008968CDE9002002916A4609214FF49760DE
:10447000FFF7DAF93EBDF9A2D2E900109268CDE962
:10448000010200916A4609214FF49760FFF7CCF9C9
:10449000F0E73EB5044602208DF80000CA208DF8F2
:1044A0000100E3208DF8020009208DF803006A4620
:1044B00004216820FFF7B8F9A3208DF8000004F06C
:1044C000400048B1C0208DF80100C8208DF80200DE
:1044D000C2208DF8030006E0A3208DF801008DF8BE
:1044E00002008DF8030004F4C07048B1C4208DF8B8
:1044F0000400CC208DF80500C6208DF8060006E0EB
:10450000A3208DF804008DF805008DF80600A32087
:104510008DF807008DF808008DF809006A460A2119
:1045200040F6A720FFF780F904F0030018B120201F
:104530008DF8000002E0D8208DF800006A460121C5
:1045400040F6B620FFF770F904F0200018B1012002
:10455000FFF780FF02E00020FFF77CFF04F4C0704B
:1045600008B304F4807060B1B2208DF800008B2095
:104570008DF80100B6208DF802009B208DF8030015
:104580000BE0B0208DF8000080208DF80100B420F1
:104590008DF8020090208DF803006A46042140F651
:1045A000A220FFF741F904F0010020B3F8208DF8B4
:1045B00000006A4601214FF40B60FFF735F9FA213C
:1045C0000720FFF729FD0720FFF7ECFD0120FFF78B
:1045D0000CFE6420FFF71CFE4FF4FA70FFF72BFE71
:1045E000C821A148FFF73AFE2820FFF753FE0A2012
:1045F000FFF763FE08E0D8208DF800006A4601212D
:104600004FF40B60FFF710F904F0020018B1D92045
:104610008DF8000002E0D8208DF800006A460121E4
:1046200040F23D70FFF700F904F0040018B10120DA
:10463000FFF7F2FE02E00020FFF7EEFE04F01000AC
:1046400018B10120FFF7BEFE02E00020FFF7BAFE1E
:1046500044F0080085494881FDF74EFD002083495C
:10466000887304F0400018B10846807B801D887371
:1046700004F4C07020B17D48807B801D7B49887325
:1046800004F0140020B17948807B1030774988739A
:1046900004F0030020B17548807B001D73498873C6
:1046A00000203EBD014671484089088000207047C7
:1046B0002DE9F0410446E07800F0C006E07800F013
:1046C0003F05607800F0010098B1EF102846E91727
:1046D00005EB5171C910A5EBC101491C01F0FF08A0
:1046E0006248006820B161484146026838469047F8
:1046F00000BF607800F0080030B15C48406818B135
:10470000B0115A4A516888470020BDE8F08110B5C1
:1047100086B0044656A207CA03AB07C357A207CA0E
:104720008DE80700012C09D0022C0ED103AA0B2121
:1047300040F68220FFF778F806B010BD6A460B21DC
:1047400040F68220FFF770F8F6E74FF0FF30F3E70E
:104750002DE9F04F8DB00746884615469946DDE9AC
:10476000166B0024002030804049887B5A4605A9FA
:10477000FEF7BDFB18B1601E0DB0BDE8F08F3B48E1
:10478000807A00F01400002861D09DF81400000623
:104790009DF8151040EA01409DF8161040EA0120EE
:1047A0009DF81710084328609DF8180000069DF832
:1047B000191040EA01409DF81A1040EA01209DF8C6
:1047C0001B10084368609DF81C0000069DF81D1032
:1047D00040EA01409DF81E1040EA01209DF81F109C
:1047E0000843A8609DF8200000069DF8211040EACB
:1047F00001409DF8221040EA01209DF82310084353
:10480000E86004F11000C4B22868001401906868E0
:1048100000140290A86800140390E8680014049043
:1048200001984043029901FB0100039901FB01003B
:10483000049901FB010ABAF1706F02DBBAF1885FDB
:1048400022DDFDF759FC00203080401E94E721E076
:10485000B8AAB38DB4980D355D000000B8AAAAAA15
:10486000B088C3C5C700000009E3CA02E004002005
:10487000D8B1B9F38BA391B609B4D900DAB1B9F3C1
:104880008BA391B6DAB4DA00B6F9000040F4807078
:10489000308000BF3448807A00F0400020B305A982
:1048A000601C085C095D40EA012000B2A8F8000025
:1048B00005A9E01C095C05AAA01C105C41EA0020C7
:1048C00000B2A8F8020005A9601D095C201D105C5B
:1048D00041EA002000B2A8F80400A01DC4B2B6F955
:1048E000000040F0080030801F48408900F4C0708C
:1048F00008B305A9601C085C095D40EA012000B20C
:10490000388005A9E01C095C05AAA01C105C41EADE
:10491000002000B2788005A9601D095C201D105C94
:1049200041EA002000B2B880A01DC4B2B6F9000070
:1049300040F0700030800C48807A00F0030018B11D
:1049400005A90819FFF7B4FE4846FDF734FF00201B
:1049500012E7014604480160002070470146024802
:104960004160002070470000E0040020014691F9FA
:104970000020002A01DD00201EE091F90020002A1D
:1049800001DA042018E091F90120002A01DD01205C
:1049900012E091F90120002A01DA05200CE091F9DA
:1049A0000220002A01DD022006E091F90220002AFF
:1049B00001DA062000E00720704770B5054628465A
:1049C000FFF7D4FF0446E81CFFF7D0FF44EAC0001D
:1049D00084B2A81DFFF7CAFF44EA801084B22046C3
:1049E00070BD70B588B002A905A8FEF792FE044616
:1049F000072C3FD101A8FEF701F9059800F034FE1D
:104A00000646019900F038FC054600F04CFE059082
:104A1000069800F029FE0646019900F02DFC054697
:104A200000F041FE0690079800F01EFE0646019930
:104A300000F022FC054600F036FE079005A8FFF7BF
:104A400078F96846FEF7F7F8BDF800100298484379
:104A50000290BDF80010039848430390BDF8001081
:104A600004984843049002A8FFF7F6F9FEA001F06D
:104A700031F800BF08B070BD2DE9F04304460D4683
:104A8000DDE907670021012041E0DFF800C43CF8C0
:104A90001080A0F1010CDFF8F49329F81C8009F1D3
:104AA000160C3CF81090A0F1010CDFF8E08308F13F
:104AB000160828F81C9008F1160C3CF81090A0F18C
:104AC000010C08F1160828F81C9008F1160C3CF8A7
:104AD0001090A0F1010C08F1160828F81C9008F1BC
:104AE000160C3CF81090A0F1010C08F1160828F8FB
:104AF0001C9008F1160C3CF81090A0F1010C08F184
:104B0000160828F81C9000F1010C0CF0FF000A2890
:104B1000BBDBDFF878C3ACF81240ACF82850ACF837
:104B20003E20ACF85430ACF86A60ACF880700021DC
:104B3000002008E0DFF854C33CF910C0614400F1E4
:104B4000010C0CF0FF000A28F4DB4FF00A0C91FB7B
:104B5000FCFC0FFA8CFCDFF83483A8F814C00021A9
:104B600000200AE0DFF824C30CF1160C3CF910C059
:104B7000614400F1010C0CF0FF000A28F2DB4FF059
:104B80000A0C91FBFCFC0FFA8CF8DFF800C3ACF8C0
:104B90002A80002100200AE0DFF8F0C20CF12C0C82
:104BA0003CF910C0614400F1010C0CF0FF000A2830
:104BB000F2DB4FF00A0C91FBFCFC0FFA8CF8DFF8EB
:104BC000CCC2ACF84080002100200AE0DFF8BCC273
:104BD0000CF1420C3CF910C0614400F1010C0CF0E6
:104BE000FF000A28F2DB4FF00A0C91FBFCFC0FFAE5
:104BF0008CF8DFF898C2ACF85680002100200AE05B
:104C0000DFF888C20CF1580C3CF910C0614400F187
:104C1000010C0CF0FF000A28F2DB4FF00A0C91FBAC
:104C2000FCFC0FFA8CF8DFF864C2ACF86C80002151
:104C300000200AE0DFF854C20CF16E0C3CF910C001
:104C4000614400F1010C0CF0FF000A28F2DB4FF088
:104C50000A0C91FBFCFC0FFA8CF8DFF830C2ACF8C0
:104C60008280BDE8F08338B50446032302226B211D
:104C7000D0200094FCF764FB38BD38B5044602230D
:104C800004221B21D0200094FCF75AFB38BD38B514
:104C90000446022304221C21D0200094FCF750FB80
:104CA00038BD10B50446234606226B21D020FCF700
:104CB0007CFB10BD10B5764B01227521D020FCF78E
:104CC000CDFA7348007810BD10B5FFF7F3FF6828E0
:104CD00001D1012010BD0020FCE710B50446234699
:104CE00005226A21D020FCF760FB10BD10B50446F8
:104CF000234601223721D020FCF757FB10BD10B509
:104D00000220FFF7B0FF0320FFF7B7FF0020FFF7F7
:104D1000BEFF0020FFF7C5FF0020FFF7DEFF0020E9
:104D2000FFF7E4FF10BD38B5002000906B4601226C
:104D300075216820FCF734FA9DF8000068280ED031
:104D400000BF5448006800F4E06053490843001D68
:104D500050490860BFF3408F00BF00BFFEE7FDF77A
:104D60005AFC00284CD17820FDF7BDF820B94B48FB
:104D70000068401C494908607820FDF79BFA20B97B
:104D800046480068401C45490860C820FDF773FB91
:104D900020B942480068401C40490860FEF72EFFD9
:104DA00020B93E480068401C3C4908603C48FFF779
:104DB00004FE0446FEF72CFF20B938480068401C6A
:104DC0003649086040F27310FFF763FB20B933489F
:104DD0000068401C31490860C820FFF7D3F820B9AB
:104DE0002E480068401C2D490860FFF7FAFD01209D
:104DF000FEF74AFC20B929480068401C2749086092
:104E000038BD2DE9F04F8FB00CA826490DAB08AA8C
:104E1000CDE9001024492548FFF79AFC2148008875
:104E200000F4807000287DD0089800F01DFC044636
:104E30004FF09D4100F052FA1D490860099800F0BA
:104E400013FC04464FF09D4100F048FA19490860F0
:104E50000A9800F009FC04464FF09D4100F03EFA2C
:104E6000154908600B9829E073657474696E6720B2
:104E7000626961732073756363657366756C6C79C1
:104E8000202E2E2E2E2E2E0D0A000000FE040020B5
:104E9000F00400200CED00E00000FA0538000020CE
:104EA000CC000020A40000209E00002098000020DC
:104EB000BC000020C0000020C400002000F0D4FB93
:104EC00004464FF09D4100F009FA8B4908608B4879
:104ED00001684FF0804000F0CFF9069088480168E3
:104EE000069800F0C9F98246864801684FF04040B4
:104EF00000F0C2F9069080480168069800F0BCF9FD
:104F00008346514600F060F9079000F018FC804697
:104F100001F024F806464FF066327B4B00F0C3FAEE
:104F2000044600E0ADE000F01DFC784908607448DC
:104F300001684FF0804000F09FF9039070480168CD
:104F4000039800F099F982466E4801684FF040409E
:104F500000F092F903906B480168039800F08CF917
:104F60008346514600F082F981464FF07E5100F0B1
:104F70002BF9044600F0E3FBCDE904015F4801682A
:104F80004FF0804000F078F983465E48016858464B
:104F900000F072F981465A4801684FF0804000F0F5
:104FA0006BF9834654480168584600F065F982461B
:104FB000494600F009F9044600F0C1FB0746DDE967
:104FC000042301F013FA4FF066324F4BCDE906018E
:104FD00000F069FA054600F0C5FB4D4908604648F7
:104FE0000168006800F048F90390454801680068CE
:104FF00000F042F9029043480168006800F03CF973
:1050000083463E480168006800F036F95946019031
:1050100000F0DAF88246029900F028F981460399F7
:1050200000F024F9044600F08AFBCDE9040132487F
:1050300001683248006800F01FF982463048016874
:105040003048006800F018F98346514600F0BCF87B
:1050500081464FF0804100F00FF9044600F06FFBED
:105060000746DDE9042301F0C1F94FF06632264B13
:10507000CDE9060100F017FA054600F073FB25495B
:1050800008600FB0BDE8F08F2DE9F05F4221D0201D
:10509000FCF7C1F805464121D020FCF7BCF805EB30
:1050A0000024204600F0E0FA82464FF08E41504640
:1050B00000F07EFB05D24FF08F41504600F0D6F84D
:1050C00082461549504600F009F9834600F037FB47
:1050D0008046124A124B00F03FF906460022114B5F
:1050E00000F0E1F9044600F03DFB8246504600F036
:1050F000DAFABDE8F09F0000C8000020BC000020E4
:10510000C4000020C000002066A64C40A80000207B
:10511000AC000020B00000200000AA43A4703D0AAB
:10512000D7434240000024402DE9F0410024061BF3
:10513000254671F1000605DA01240027D0EB0700AF
:1051400067EB0101161E73F1000605DA0027D2EBAA
:105150000702012567EB030300F04AFB86460E4673
:1051600017469C46AC4204D00025D0EB050E65EBFB
:10517000010624B10020D2EB000760EB030C70465F
:1051800031463A466346BDE8F081D2B201E000F80C
:10519000012B491EFBD270470022F6E710B51346DB
:1051A0000A4604461946FFF7F0FF204610BD30B509
:1051B00004460020034600E05B1C934203D2E05CFF
:1051C000CD5C401BF8D030BDF0B480EA0102D40FB2
:1051D0004200B2EB410F02D20246084611464A0095
:1051E00042D0C30DDDB2C1F3C752AD1A202D35DA5E
:1051F000C1F3160141F4000204B15242C5F1200688
:1052000002FA06F12A411044B3EBD05F23D0C4B1B7
:10521000012DA0EBC35009DCF0BC4FF0004202EAC4
:10522000C352DBB200F5000000F04DBB400000F1BE
:10523000807000EBC350A0F1807040EAD17049004B
:1052400009E0490841EAC071A0EBC35000F5000035
:10525000400800EBC350F0BC00F02CBB61420122BF
:1052600002EB4101001BF6E7F0BC704781F0004102
:10527000AAE780F00040A7E780EA010210B502F03B
:105280000043400022D04A001FD0010E01EB126102
:10529000C0F35600C2F3560240F4000042F400028C
:1052A000A0FB022000047F39140400D0401C50EA07
:1052B000124001D44000491EC2B20C0604EBD010CB
:1052C000401C4008802A02D003E0002010BD20F0DE
:1052D0000100002900DA0020184310BD30B480EA34
:1052E000010202F0004530F0004221F0004013D0EE
:1052F00090B1C30DD40DC2F31601C0F31600E41A29
:1053000041F4000140F400027D34914201D3641C59
:1053100000E04900002C02DA30BC002070474FF456
:1053200000000023914201D3891A034340084FEA49
:105330004101F7D151B1914202D14FF0004105E056
:1053400002D24FF0010101E06FF0010103EBC45004
:10535000284430BC00F0AEBA2DE9FE4F804681EA09
:105360000300C00F0C46009021F0004123F00045DF
:10537000B8EB0200A94105D24046214690461C46A2
:105380000B46024623F00040104347D0270DC7F3D9
:105390000A00C3F30A510290401A019040286BDAC8
:1053A000C3F3130040F4801B0098924620B1002301
:1053B000D2EB030A63EB0B0B01985946C0F1400294
:1053C000504600F046FA06460D4650465946019AA8
:1053D00000F05EFA10EB08006141002487EA1152E8
:1053E00084EAE7731A4340D0009A62B3019A012A13
:1053F0004FEA075215DC001B61EB02014FF000423F
:1054000002EA0752CDE90042001C41F58011324604
:105410002B4600F095FA03B0BDE8F08F40462146D8
:10542000F9E7001B61EB0201001C41F58013001835
:105430005B412018A2F5001747EB030140EAD57045
:10544000B6196D4111E06D084FEA360645EAC075A0
:105450004FEA0752001B61EB0201001C41F580116D
:1054600049084FEA30000019514132462B4603B03B
:10547000BDE8F04F00F055BA00980122400000232B
:10548000D0EB020263EBE073009821464FEAE07430
:10549000B8EB000061EB0401E9E783F000435BE750
:1054A00081F0004158E72DE9FE4F81EA030404F042
:1054B000004421F0004100944FF0000B23F0004322
:1054C00050EA01045ED052EA03045BD0C3F30A54ED
:1054D000C1F30A552C44A4F2F3340194A0FB025406
:1054E000C1F3130141F48011C3F3130343F4801398
:1054F00001FB024400FB034E840A970A44EA8154EC
:1055000047EA8357A4FB076802958D0A05FB0785C8
:105510004FEA932C04FB0C542705029D4FEA0658D2
:1055200047EA1637B5EB08056EEB070C870E920EAF
:1055300047EA811742EA8312A7FB0201B6EB0B018F
:1055400064EB00042B0D43EA0C335E1844EB1C5053
:10555000DA465146E7FB0201C5F313044FEA0B3369
:1055600043EA14534FEA0432019C43EA0603A4F1D0
:105570000C040294009CCDE900B400F0E1F903B002
:10558000BDE8F08F00200146F9E72DE9F04D81EAF2
:10559000030404F0004B21F0004514464FF0000ACC
:1055A00023F0004150EA050220D054EA01021DD048
:1055B000C5F30A570246C5F31303C1F31300C1F341
:1055C0000A5640F4801543F48013A7EB0608101B1D
:1055D000D64608F2FD3873EB050002D308F1010846
:1055E00001E092185B41B8F1000F03DA0020014698
:1055F000BDE8F08D00204FF48011064684460EE091
:10560000171B73EB050705D3121B63EB050306435A
:105610004CEA010C49084FEA300092185B4150EA0D
:105620000107EDD152EA030012D082EA040083EAB6
:105630000501084305D0101BAB4106D2012200230F
:1056400006E000224FF0004302E06FF00102531029
:105650001AEB06004CEB085110EB0A0041EB0B0172
:10566000BDE8F04D00F05DB9C10F80EAE07008447C
:10567000CA079623002100F026B99623002211467E
:1056800000F021B90EB5C10F80EAE0700844CA07E6
:10569000002140F233438DE80E000A460B4600F02D
:1056A0004FF903B000BD00F0004220F00040C10DF2
:1056B000C0F3160040F400007F2901DA0020704793
:1056C000962903DCC1F19601C84001E09639884073
:1056D000002AF4D04042704720F00040C10DC0F3D2
:1056E000160040F400007F2901DA00207047962957
:1056F00003DCC1F19601C840704796398840704775
:1057000070B5C1F30A5201F000450024C1F3130142
:1057100040F2FF3341F480119A4201DA002070BD5B
:1057200040F233439A42A2F2334203DC524200F089
:105730009FF800E090402C43F1D0404270BD00F053
:10574000004230F000400AD0C10D01F56071C0F395
:10575000160042EA0151C208400711437047002079
:105760000146704701F0004330B421F0004150EA97
:10577000010206D00A0DA2F56072C1F31301002ADE
:1057800002DC30BC00207047440F44EAC104C10071
:10579000E01830BC00EBC25000F08CB8002801DBF0
:1057A000C0F10040002901DBC1F100418142704796
:1057B000002801DBC0F10040002901DBC1F10041FC
:1057C0008842704730B50B46014600202022012454
:1057D00009E021FA02F59D4205D303FA02F5491BBF
:1057E00004FA02F52844151EA2F10102F1DC30BDD5
:1057F0002DE9F05F0546002092469B468846064606
:10580000814640241BE0284641464746224600F098
:105810002FF853465A46C01A914110D311461846E4
:10582000224600F016F82D1A67EB01084F46224673
:105830000120002100F00DF817EB00094E41201E59
:10584000A4F10104DFDC484631462A464346BDE860
:10585000F09F202A04DB203A00FA02F10020704772
:105860009140C2F1200320FA03F31943904070479E
:10587000202A04DB203A21FA02F00021704721FAA5
:1058800002F3D040C2F1200291400843194670470C
:10589000202A06DBCB17203A41FA02F043EAE073F4
:1058A00006E041FA02F3D040C2F1200291400843E1
:1058B000194670470029A8BF7047401C490008BF1F
:1058C00020F00100704710B4B0FA80FC00FA0CF030
:1058D00050EA010404BF10BC704749B1CCF1200468
:1058E00021FA04F411FA0CF118BF012121430843F5
:1058F000A3EB0C01CB1D4FEA00614FEA102042BF21
:10590000002010BC704700EBC35010440029A4BF16
:1059100010BC7047401C490008BF20F0010010BCBB
:10592000704710B5141E73F1000408DA401C41F1F1
:10593000000192185B411A4301D120F0010010BD13
:105940002DE9F04D92469B4611B1B1FA81F202E089
:10595000B0FA80F220329046FFF77BFF04460F46F4
:1059600040EA0A0041EA0B0153465A46084313D065
:10597000114653EA010019D0C8F140025046FFF722
:1059800077FF05460E46504659464246FFF761FFEF
:10599000084305D0012004E020463946BDE8F08DDB
:1059A0000020054346EAE0762C4337430A98630516
:1059B000E40AA0EB08000022FD0A44EA47540A303A
:1059C00002D500200146E9E7010510196941DDE92A
:1059D000084500196941BDE8F04DA2E770B521F016
:1059E000004303430CD0C1F30A550024D5EB040552
:1059F00064EB0403D617AD1AB34102DB0020014665
:105A000070BD201841EB025170BD0000064C074DDF
:105A100006E0E06840F0010394E80700984710347E
:105A2000AC42F6D3FAF766FBA87D0008C87D0008F3
:105A30002DE9F04D00231A461B1A8A4103DB002092
:105A40000146BDE8F08DC1F30A52C1F3130141F4E0
:105A500080154FF0000BD10702D100186D41521E86
:105A60000027044640F2FF11384601EB620A3E4629
:105A70008046024600204FF48011FFF7F9FEC2195C
:105A80007141BB1846EB0100B4EB030C75EB000C45
:105A900004D3E41A65EB000517460E46241908F1F5
:105AA00001006D4180463428E3DDF91946EB06001C
:105AB000091BA84103D24FF0FF32134601E0002238
:105AC00013461BEB070046EB0A51BDE8F04DFFF70C
:105AD00028BF00000FB4054B10B503A9044A029873
