:020000040800F2
:1000000070080020CD010008D9050008DB050008B4
:10001000DF050008E3050008E70500080000000010
:10002000000000000000000000000000ED050008D6
:10003000EB05000800000000EF050008F1050008CE
:10004000F3050008F5050008F7050008F9050008A4
:10005000FB050008FD050008FF0500080106000873
:100060000306000805060008070600080906000840
:100070000B0600080D0600080F0600081106000810
:1000800013060008150600081706000819060008E0
:100090001B0600081D0600081F06000821060008B0
:1000A0002306000825060008270600082906000880
:1000B0002B0600082D0600082F0600083106000850
:1000C0003306000835060008370600083906000820
:1000D0003B0600083D0600083F06000841060008F0
:1000E00043060008450600084706000849060008C0
:1000F0004B0600084D0600084F0600085106000890
:10010000530600085506000857060008590600085F
:100110005B0600085D0600085F060008610600082F
:1001200063060008650600086706000869060008FF
:1001300000F002F800F03AF80AA090E8000C8244BF
:100140008344AAF10107DA4501D100F02FF8AFF29C
:10015000090EBAE80F0013F0010F18BFFB1A43F0A5
:10016000010318472806000048060000103A24BF83
:1001700078C878C1FAD8520724BF30C830C144BF0C
:1001800004680C607047000000230024002500264E
:10019000103A28BF78C1FBD8520728BF30C148BFEA
:1001A0000B6070471FB51FBD10B510BD00F0ADFA54
:1001B0001146FFF7F7FF00F08BFA00F0CBFA03B41B
:1001C000FFF7F2FF03BC00F0CFFA0000034800473E
:1001D00003480449044A054B7047000031010008F8
:1001E00070000020700800207004002070040020BF
:1001F0001049096801F038010E4A1160114609687A
:100200000143116070470B49096821F00801094A50
:10021000116011460968014311607047054909687A
:1002200021F01001034A1160114609680143116071
:100230007047000000200240DC48006840F00100E8
:10024000DA49086008464068D9490840D7494860FB
:1002500008460068D7490840D44908600846006845
:1002600020F4802008600846406820F4FE004860C2
:10027000002088607047CD49096821F48031CB4A5D
:1002800011601146096821F480211160B0F5803FAA
:1002900003D0B0F5802F0ED106E0C449096841F4BF
:1002A0008031C24A116007E0C049096841F4A021C9
:1002B000BE4A116000E000BF00BF704710B50146A4
:1002C0000022002300204A11012A02D1B74C2368E2
:1002D00006E0022A02D1B54C236A01E0B34C636AFE
:1002E00001F01F02012494401C4201D0012000E0D3
:1002F000002010BD38B5002000900024002500BF6C
:100300003120FFF7DBFF05460098401C00901DB927
:100310000098B0F5A06FF3D13120FFF7CFFF08B1FF
:10032000012400E00024204638BD014600209F4AF9
:10033000106820F0F80040EAC100106070479E4944
:100340000860704702460020984B586820F47C10E3
:1003500042EA01031843954B586070479649086676
:10036000704701460020914A506820F0030008437E
:10037000506070478D48406800F00C00704701469F
:1003800000208A4A506820F0F0000843506070470F
:1003900001460020854A506820F4E0600843506020
:1003A000704701460020814A506820F4605040EABE
:1003B000C1005060704729B17C4A527A02437B4B9E
:1003C0005A7204E0794A527A8243784B5A727047E3
:1003D0007A490860704701460020744A506820F44A
:1003E00040400843506070470021754A11706F4AC1
:1003F00082F82010012802D0042808D103E001214E
:100400006F4A117004E005216D4A117000E000BFD1
:1004100000BF70476B49086070476449096A01432F
:10042000624A11627047674944390860704730B5C5
:1004300000210022002400235C4D6D6805F00C01B2
:1004400021B1042905D0082923D105E05E4D0560BE
:1004500022E05D4D05601FE0544D6D6805F470129B
:10046000022505EB9242514D6D6805F480341CB9AC
:10047000564D554305600BE04C4D6D6815F4003F3B
:1004800003D0524D5543056002E04F4D5543056082
:1004900002E04D4D056000BF00BF444D6D6805F0A2
:1004A000F00109094A4D6B5C0568DD4045603F4D30
:1004B0006D6805F4E061090A454D6B5C4568DD40F7
:1004C00085603A4D6D6805F46051C90A404D6B5C1A
:1004D0004568DD40C560354D6D6805F44041890BC8
:1004E0003C4D6B5CC568B5FBF3F5056130BD29B1CA
:1004F0002E4A526902432D4B5A6104E02B4A52693D
:1005000082432A4B5A61704729B1284A92690243B3
:10051000264B9A6104E0254A92698243234B9A61F3
:10052000704729B1214AD2690243204BDA6104E0C5
:100530001E4AD26982431D4BDA61704729B11B4ABA
:10054000D2680243194BDA6004E0184AD268824349
:10055000164BDA60704729B1144A12690243134BF3
:100560001A6104E0114A12698243104B1A61704704
:1005700014494039086070470F49C86470470B49F7
:10058000C87170470948406A40F080700749486266
:10059000704701460020054A92680A4201D00120B6
:1005A00000E0002070470149887270470010024047
:1005B0000000FFF8FFFFF6FE00004242D800424272
:1005C000201002408004424200127A0000093D00DF
:1005D0007607000886070008704700BFFEE700BFE7
:1005E000FEE700BFFEE700BFFEE7704770477047B9
:1005F0007047704770477047704770477047704743
:100600007047704770477047704770477047704732
:100610007047704770477047704770477047704722
:100620007047704770477047704770477047704712
:100630007047704770477047704770477047704702
:1006400070477047704770477047704770477047F2
:1006500070477047704770477047704770477047E2
:1006600070477047704770477047000010B5FFF73C
:10067000E3FD4FF48030FFF7FEFDFFF73BFE04463D
:10068000012C24D10020FFF77AFE0020FFF777FE2F
:10069000A002FFF774FE0220FFF7AAFD1020FFF76B
:1006A000BDFD4FF4E0112004FFF74CFE0120FFF7E1
:1006B00055FE00BF3920FFF701FE0028FAD00220C6
:1006C000FFF74FFE00BFFFF755FE0828FBD110BD16
:1006D000FFF7CCFF07480068074908600548001D80
:1006E000006806490860034808300068044908604B
:1006F00000BFFEE7E8F7FF1F08000020040000200D
:1007000000000020704770477047754600F028F8D9
:10071000AE4605006946534620F00700854618B0EE
:1007200020B5FFF755FDBDE820404FF000064FF023
:1007300000074FF000084FF0000B21F00701AC4616
:10074000ACE8C009ACE8C009ACE8C009ACE8C00935
:100750008D4670470446AFF300802046FFF72FFD1B
:10076000004870470C00002001491820ABBEFEE78E
:10077000260002007047000000000102030401028D
:10078000030406070809020406080000AC07000875
:10079000000000200C0000006C010008B8070008F1
:1007A0000C00002064080000880100080000000020
:0807B000000000000000000041
:0400000508000131BD
:00000001FF
