:020000040800F2
:10000000980B00209D010008A1010008A301000831
:10001000A5010008A7010008A901000800000000D0
:10002000000000000000000000000000AB0100081C
:10003000AD01000800000000AF010008B101000898
:10004000B3010008B3010008B3010008B3010008C0
:10005000B3010008B3010008B3010008B3010008B0
:10006000B3010008B3010008B3010008B3010008A0
:10007000B3010008B3010008B3010008B301000890
:10008000B3010008B3010008B3010008B301000880
:10009000B3010008B3010008B3010008B301000870
:1000A000B3010008BD150008B3010008B301000842
:1000B000B3010008B3010008B3010008B301000850
:1000C000B3010008B3010008B3010008B301000840
:1000D000B3010008B301000891140008B30100083F
:1000E000B3010008B3010008B301000800F002F8F2
:1000F00000F03FF80AA090E8000C82448344AAF183
:100100000107DA4501D100F034F8AFF2090EBAE880
:100110000F0013F0010F18BFFB1A43F0010318473B
:100120006081000080810000103A24BF78C878C147
:10013000FAD8520724BF30C830C144BF04680C60ED
:10014000704700000023002400250026103A28BF35
:1001500078C1FBD8520728BF30C148BF0B60704739
:10016000642904F0BF85002070471FB51FBD10B57E
:1001700010BD04F089FF1146FFF7F7FF00F02AF8E1
:1001800004F0A7FF03B4FFF7F2FF03BC00F010FA7E
:1001900030BF72B662B680F30888704708480047DF
:1001A000FEE7FEE7FEE7FEE7FEE7FEE7FEE7FEE727
:1001B000FEE7FEE703480449044A054B7047000088
:1001C000ED00000898050020980B002098070020FB
:1001D00098070020092000F094F9482000F034F836
:1001E000022000F079F9012000F076F900F06EFAB3
:1001F00000F0A4FA00F09AFC4FF4E131482000F03E
:10020000FEF94FF41651242001F0D0F80B214EF6E0
:10021000602000F0CDFD47F230500A490880091DEA
:100220000880091D0880091D088000F039FE04F0CF
:10023000A2FA04F0B4FA41F61F41312000F044FD67
:1002400000BFFEE7340800404FF0E021096921F0CB
:1002500004014FF0E0221161C21700EB5272C2F3A9
:10026000C702224B1A701946097801EB4102C2EB12
:10027000C1114FF6FF7202EAC1011D4A1180704799
:1002800001461A4A12784A434FF0E0235A6100228D
:100290009A6101221A6100BF4FF0E022106910F04C
:1002A000010F02D010F4803FF6D000224FF0E0237F
:1002B0001A619A61704701460D4A12884A434FF00D
:1002C000E0235A6100229A6101221A6100BF4FF0B7
:1002D000E022106910F0010F02D010F4803FF6D038
:1002E00000224FF0E0231A619A6170471800002045
:1002F0001A000020A34A0A400243A34B1A60704729
:100300000146072323EA010212029F4B1B1D1868B6
:100310004FF6FF0318409D4B184310439A4B1B1D8B
:10032000186070472DE9F0410746884614461D467F
:100330002846FFF7E5FFC5F1040007FA00F60F2095
:10034000284100EA0800064306F00F06E21704EB16
:10035000D26252114FF0E02303EB8202D2F8002167
:100360002146E31704EBD3635B11A4EB431C012389
:1003700003FA0CF31A432046E31704EBD3635B1133
:100380004FF0E02C0CEB8303C3F800218048005DA4
:1003900040EA06107E490855BDE8F08170B5044674
:1003A0000B46CE1701EB9676C6F38700CE1701EB0E
:1003B0009676B610A1EB8606B606350E754B9B6990
:1003C00043F00103734EB3614FEAB63353F8203064
:1003D0000F26AE40B343704E46F82030334653F8F4
:1003E000203004FA05F61E436B4B43F820606B4B3C
:1003F0001B6801268E403343684E336012F0010FB4
:1004000008D0664B0C331B6801268E403343634E85
:100410000C36336012F0020F08D0604B08331E68B0
:1004200001238B401E435D4B08331E6070BD00B539
:10043000002058490861C860142048610020886184
:10044000C8610846006840F001000860084640683E
:10045000534908404F4948600846006851490840E0
:100460004C4908600846006820F48020086008466F
:10047000406820F4FE0048600020886000214FF0B2
:100480000060FFF737FF00BD10B53F480830006837
:1004900040F004003C49083108603E48C06940F023
:1004A00080503C49C8614048406840F480703E49F3
:1004B00048600846006840F004000860084600688C
:1004C00040F002000860FFF763FE10BD2F48001DDA
:1004D0002D49091D08607047014649062D4A926959
:1004E00042F001022B4B9A612B4A083A526822F0E3
:1004F000E062294B083B5A601A4652680A435A6028
:10050000704730B504460025FFF791FF2148006889
:1005100040F480301F49086000BF1E480068400C4E
:10052000FBD04FF480601B494860A01EC4B208464F
:10053000406840EA844048600846406840F48030A3
:1005400048601A48006840F03200184908601148B5
:10055000006840F080700F49086000BF0D480068D7
:10056000400EFBD00B48406840F00200094948604B
:1005700005E008484068C0F3870505F00305022D33
:10058000F7D130BD80FFFF1F08ED00E00000FA0545
:1005900000E400E0001002400800014000040140B7
:1005A0000000FFF8FFFFF6FE007000400020024050
:1005B000014600BF70473F4A1278012A0AD100BFA6
:1005C0003D4A128812F0400FFAD0C2B23A4B1B1DBE
:1005D0001A8009E000BF394A128812F0400FFAD0A1
:1005E000C2B2364B1B1D1A8070473449091D088062
:1005F00000BF3249098811F0400FFAD070472DE949
:10060000F05F05460E46300106F008F881462C4999
:1006100005FB01F006F002F88246494605F0B4FEFB
:100620000746384605F0C2FF84B2204605F0F6FFC3
:100630008346394606F037F982464FF0834106F08B
:1006400035F8814605F0B2FF80464FF6FF7000EAAC
:10065000041404EB080084B21A48806940F00400D6
:10066000184988610846806940F4804088611648CE
:10067000006820F47F60144908600846006840F470
:100680000B6008600F48C06840F480400D49C860A6
:100690000846C06820F48040C860084808300480DC
:1006A000001D008842F20C01084304490C31088007
:1006B000BDE8F09F010000200044004000380140E8
:1006C00040420F00001002400408014016488069B3
:1006D00040F00400144988611448006820F00F00BD
:1006E000124908600846006840F0030008600F489F
:1006F0000830006840F480700C4908310860704789
:100700000B490968491C0A4A116081420AD109490A
:1007100009686FEA0101084AC2F8A0114FF0000110
:10072000034A1160704700000010024004080140B5
:1007300020000020A00121420000214237488069AA
:1007400040F00400354988613548006820F0704069
:10075000334908600846006840F0004008603048AF
:100760000830006840F400402D49083108607047A7
:1007700001462C48006828B92B48007810B90120A0
:10078000294A107029480078B0B927480078012814
:1007900007D127480078401C254A10700120234AC1
:1007A000107023480078022806D10020204A1070DB
:1007B000204A1080022070471A480068012804D19E
:1007C0000020194A1070194A107019480078012841
:1007D0000ED118480088401C80B2164A108088420A
:1007E00006DD0020124A1070124A10800120E2E754
:1007F0000020E0E71048007838B10A48006820B9C6
:1008000000200D4908700120704706480068012843
:1008100001D1094908700020F6E7000000100240ED
:10082000040801403C012142240000202500002052
:1008300026000020280000202A00002010B50A46CB
:100840001AB10123FE4C236002E00023FC4C23601C
:100850004FF0000118E00023FA4C236010F0800FE5
:1008600004D0012304F10404236002E00023F64CC9
:1008700023604FF00103F34C23604FEA40634FEADB
:10088000136001F10103D9B20829E4DB0123EC4C28
:10089000236010BD30B500241CE004F1B001C8B2E3
:1008A0000021FFF7CBFF00210846FFF7C7FF00211B
:1008B0001020FFF7C3FF002508E0E44901EBC50164
:1008C000085D0121FFF7BAFF681CC5B2802DF4DB7B
:1008D000601CC4B2082CE0DB30BD00B500218D20C7
:1008E000FFF7ACFF00211420FFF7A8FF0021AF2085
:1008F000FFF7A4FF00BD00B500218D20FFF79EFF8C
:1009000000211020FFF79AFF0021AE20FFF796FF8D
:1009100000BD30B500240CE0002506E00020CB49E6
:1009200001EBC5010855681CC5B2802DF6DB601CC3
:10093000C4B2082CF0DBFFF7ADFF30BDF0B51446B4
:1009400000267F2801DC3F2900DDF0BD0B46CF17D4
:1009500001EB5777FF10C7F10707FAB2CF1701EB8A
:100960005777FF10A1EBC707FDB2C5F107070123B9
:10097000BB40DEB24CB1B54B03EBC0039B5C3343D1
:10098000B24F07EBC007BB5408E0B04B03EBC0030A
:100990009B5CB343AD4F07EBC007BB5400BFD4E72C
:1009A0002DE9F04F80460C4615461E46A346A5F19C
:1009B0002000C5B200273EE00C2E07D105EB450014
:1009C000A34901EB800010F8079004E0A14800EB78
:1009D000051010F807904FF0000A26E019F0800F7C
:1009E00005D021464046099AFFF7A8FF09E009987B
:1009F00008B9012000E00020024621464046FFF7EA
:100A00009DFF4FEA49604FEA1069601CC4B2A4EB35
:100A10000B00B04205D15C4608F1010000F0FF0870
:100A200006E00AF1010000F0FF0ABAF1080FD5DB79
:100A300000BF781CC7B2B742BEDBBDE8F08F10B56F
:100A40000246012000E050430B00A1F10104E1B295
:100A5000F9D110BD2DE9FF4F81B0074691461E46E2
:100A60000E9D4FF0000A002439E0301B401EC1B239
:100A70000A20FFF7E4FFB9FBF0F00A21B0FBF1F226
:100A800001FB1208BAF1000F16D1701EA04213DD4F
:100A9000B8F1000F0ED10120AB4605EBDB71491018
:100AA00001FB04710090C8B22B4620220299FFF787
:100AB00077FF12E04FF0010A0120AB4605EBDB7136
:100AC000491001FB04710090C8B208F13001CAB2AC
:100AD0002B460299FFF764FF00BF601CC4B2B4420A
:100AE000C3DB05B0BDE8F08F78B505460E46144669
:100AF00018E07A2D03DD002506F11000C6B23A2E6B
:100B000004DD002005460646FFF703FF01200090A4
:100B100022780C2331462846FFF742FF05F10800F2
:100B2000C5B2641C20780028E3D178BD10B54A48CE
:100B3000806940F00800484988614848006820F40E
:100B40007F00464908600846006840F408100860C5
:100B50004148806940F010003F498861084680693B
:100B600040F0010088613E48406820F07F403C49E9
:100B700048600846406840F00850486039480068BE
:100B800040F48070374908603348006A20F0010063
:100B9000314908623448008820F001003249088059
:100BA0003048006820F480702E49086000202F49EA
:100BB00008604FF06400FFF77EFB01202C49C1F86C
:100BC000BC010021AE20FFF739FE0021D520FFF740
:100BD00035FE00215020FFF731FE0021A820FFF74D
:100BE0002DFE00213F20FFF729FE0021D320FFF733
:100BF00025FE00210846FFF721FE00214020FFF7D7
:100C00001DFE00218D20FFF719FE00211420FFF7A3
:100C100015FE00212020FFF711FE00210220FFF722
:100C20000DFE0021A120FFF709FE0021C020FFF7E3
:100C300005FE0021DA20FFF701FE0021122019E055
:100C4000B8012242B0812142B481214290000020AB
:100C5000966A00080A6F000800100240040C014068
:100C60000010014000700040306C0040BC01224286
:100C700000002242FFF7E2FD00218120FFF7DEFDA8
:100C80000021EF20FFF7DAFD0021D920FFF7D6FD84
:100C90000021F120FFF7D2FD0021DB20FFF7CEFD80
:100CA00000213020FFF7CAFD0021A420FFF7C6FD78
:100CB0000021A620FFF7C2FD0021AF20FFF7BEFDF7
:100CC000FFF727FE10BD000070B505460C463548FD
:100CD000806940F400603349886133480580001F13
:100CE000048031482038008840F001002E49203926
:100CF00008800846008840F0400008802A482C38C8
:100D0000008840F0010028492C390880022319226C
:100D100003210120FFF706FB70BD70B504460D46A8
:100D20002048C06940F001001E49C861084680693A
:100D300040F0040088611D48006820F47F401B4992
:100D400008600846006840F402400860C8048485D2
:100D50000585808B40F48070C90488830846808BA9
:100D600088830846808B88830846008C0884084660
:100D7000008C40F4805008840846808940F01000C0
:100D800088810846808940F00100888108460088F3
:100D900040F00100088001231C2203211846FFF7C0
:100DA000C1FA70BD001002402C2C01400008014027
:100DB000384AD26942F00402364BDA611A46926927
:100DC00042F008029A61344A126822F07F42324BA4
:100DD0001A601A46126842F03B421A601A1D1268E5
:100DE00022F0FF021B1D1A601A46126842F0BB0275
:100DF0001A602A4A1080121F1180284A143A128859
:100E000042F4E042254B143B1A801A46128842F005
:100E100070021A801A1D128842F4E0421B1D1A80CB
:100E20001A46128842F070021A801A1F128842F481
:100E300000621B1F1A801A46128842F008021A80AC
:100E40001A1D128842F400621B1D1A801A4612886D
:100E500042F008021A801A1D128842F010021B1D6F
:100E60001A801A46128842F001021A801A46128825
:100E700042F480521A801A46128842F480721A8014
:100E8000DA13064B2C3B1A801A46128842F00102F4
:100E90001A80704700100240000C01402C080040EE
:100EA000FE48806940F00800FC498861FC48006801
:100EB00020F47F40FA4908600846006840F44C502E
:100EC0000860704710B5F648006820F47040F44997
:100ED00008600846006840F4405008600120F1496D
:100EE0000860F148D0F82C0108B9002010BD01209D
:100EF000EE490860FFF7C4F90020EB49C1F8AC01E6
:100F0000EB48006808B10020F0E70120FFF7B8F9CE
:100F10000020E64908604FF00100E7E710B5E0481F
:100F2000006820F47040DE4908600846006840F41C
:100F3000405008600020DD490860DB49C1F8AC0181
:100F40004FF00100FFF79CF90120D8490860D6490D
:100F5000C1F8AC01FFF794F910BD10B50024D048DA
:100F6000006820F47040CE4908600846006840F4EC
:100F7000004008600120CB490860FFF781F901209B
:100F8000C949C1F8A801FFF77BF90AE0601CC4B2A7
:100F9000322C03DDFFF7C2FF002010BD0120FFF758
:100FA0006FF9C34800680028F0D1C04908604FF0CD
:100FB0000100F2E710B50020BC490860B84800689D
:100FC00020F47040B64908600846006840F440507C
:100FD00008604FF00000B449C1F8AC014FF00100C7
:100FE000FFF74EF90120B1490860FFF749F90020E9
:100FF000AD49C1F8A80110BD10B50020AB4908608B
:10100000A748006820F47040A549086008460068B9
:1010100040F4405008604FF00100A349C1F8AC0112
:10102000FFF72EF90120A1490860FFF729F90020F8
:101030009D49C1F8A80110BD70B5044698480068E4
:1010400020F47040964908600846006840F440501B
:101050000860002095490860054619E0E0099149BB
:1010600008604FEA44604FEA10644FF00100FFF758
:1010700007F901208C49C1F8A801FFF701F9002008
:101080008A4908604FF00100FFF7FAF8681CC5B202
:10109000082DE3DB70BD2DE9F04105460E461746ED
:1010A0009846FFF70FFF10B90120BDE8F0816906EF
:1010B000080EFFF7C1FFFFF750FF18B9FFF72EFF2B
:1010C0000120F2E73046FFF7B7FFFFF746FF0024A5
:1010D0000BE018F80400FFF7AFFFFFF73EFF18B969
:1010E000FFF71CFF0020E0E7641CBC42F1DBFFF7C8
:1010F00015FF0020D9E770B5054600246848006850
:1011000020F47040664908600846006840F40040DA
:101110000860002616E00020644908604FF00200D5
:10112000FFF7AEF801206049C1F8A8016006040E7F
:101130005F48006808B1601CC4B20220FFF7A0F845
:10114000701CC6B2082EE6DB15B1FFF733FF01E0D5
:10115000FFF752FF204670BD2DE9F04106460F46CD
:1011600014461D46FFF7AEFE10B90120BDE8F08120
:101170007106080EFFF760FFFFF7EFFE18B9FFF7E3
:10118000CDFE0120F2E73846FFF756FFFFF7E5FEF8
:10119000FFF798FE012101EB4601C8B2FFF74CFFB3
:1011A000FFF7DBFE0DE0012C04D10020FFF7A3FFC9
:1011B000287003E00120FFF79EFF28706D1C601E61
:1011C000C4B2002CEFD1FFF7A9FE0020CEE770B526
:1011D00005460E460024FFF775FE2846FFF72CFF54
:1011E000641CFFF7BAFE3046FFF726FF641CFFF7CA
:1011F000B4FEFFF767FE691CC8B2FFF71DFF641C51
:10120000FFF7ABFE0020FFF776FF0446FFF786FEF0
:10121000204670BD2DE9F0410746884615461E461A
:101220000024FFF74FFE3846FFF706FFFFF795FE55
:101230004046FFF701FFFFF790FEFFF743FE791CE2
:10124000C8B2FFF7F9FEFFF788FE00BF0DE0681E89
:10125000A04204D00120FFF74EFF305503E00020EC
:10126000FFF749FF3055601CC4B2AC42EFDBFFF71B
:1012700055FE2046BDE8F0812DE9F04180460D463F
:1012800016461F460024FFF71DFE4046FFF7D4FE1A
:10129000FFF763FE2846FFF7CFFE0BE00010024089
:1012A000040C0140AC81214200802142A8812142EE
:1012B0002C812142FFF751FE00BF06E0385DFFF7A9
:1012C000BBFEFFF74AFE601CC4B2B442F6DBFFF778
:1012D00025FE0120BDE8F08170B505460E46144696
:1012E00031462846FFF773FF2070012070BD37B5E7
:1012F00004460D4602AB012229462046FFF7BCFFFB
:101300003EBD2DE9F8430746884614461D46089E13
:101310006A4641463846FFF7DFFF28B3601CFF21CD
:1013200001FA00F0C4F108012944491EFF220A41D4
:10133000104300F0FF09C5F1080006FA00F0C6B23C
:10134000C4F1070006419DF8000000EA0900009082
:101350009DF80000304300909DF80020414638463B
:10136000FFF7C5FFBDE8F8830020FBE7F8B50646A8
:101370000F4614461D466A4639463046FFF7ACFF15
:101380002DB10120A0409DF80010084305E0012088
:10139000A0409DF8001021EA0000C0B200909DF826
:1013A000002039463046FFF7A2FFF8BD2DE9F05F77
:1013B00005460E46300105F031F98146364905FBF8
:1013C00001F005F02BF98246494604F0DDFF07469F
:1013D000384605F0EBF884B2204605F01FF9834645
:1013E000394605F060FA82464FF0834105F05EF918
:1013F000814605F0DBF880464FF6FF7000EA0414E2
:1014000004EB080084B22548806940F004002349B9
:1014100088610846C06940F40030C861204800680F
:1014200020F47F401E4908600846006840F40B40E5
:1014300008601B480C30006840F0040018490C316B
:1014400008601648006940F40030144908610846F5
:10145000006920F40030086112480480001D0088F3
:1014600042F20C0108430F49091D08800846008814
:1014700040F4807008800846008840F02000088012
:101480000223262203210846FEF74CFFBDE8F09F09
:10149000044808380088704740420F00001002409E
:1014A00000080140084400400146002901DA484292
:1014B00000E00846704730B505460C462846FFF761
:1014C000F3FFBD4908802046FFF7EEFFBA49091D2A
:1014D00008801046FFF7E8FFB74908310880184632
:1014E000FFF7E2FFB4490C31088030BD10B5B349B5
:1014F000B348006805F0A6F815D3B249B0480068B3
:1015000005F0A0F90FD3B048007801280BD0AB4903
:10151000AE48006805F096F805D3AA49AB480068C4
:1015200005F090F901D2012400E00024204610BD0E
:101530004FF47A60A6490968002902DA0021A44A1A
:101540001160A3490968814201DDA1490860A149F0
:101550000968002902DA00219E4A11609D49096844
:10156000814201DD9B4908609B490968002902DA34
:101570000021994A116098490968814201DD964924
:10158000086096490968002902DA0021934A11602F
:1015900092490968814201DD90490860704710B5A1
:1015A000FFF728F90446012C07D18748007808B9CD
:1015B000012000E000208449087010BD2DE9F05F93
:1015C0008748008810F0010F7DD08548008820F002
:1015D0000100834908804FF4C870FFF791F8FFF7C6
:1015E000DEFF8048B0F90000C000642190FBF1F7F5
:1015F000384604F0FBFF0546744801687A4805F058
:1016000055F883467748B0F90200C000642190FB8A
:10161000F1FA504604F0EAFF8046694801687248D2
:1016200005F044F88246714905F03DF9814641468E
:1016300004F03CFE0746594605F040F906462946A7
:1016400004F034FE044604F095FF614908606548E3
:10165000B0F90000C000642190FBF1F7384604F0B7
:10166000C5FF0546594801685F4805F01FF88346E5
:101670005C48B0F90200C000642190FBF1FA5046CA
:1016800004F0B4FF80464E480168574805F00EF854
:101690008246564904F00AFE8146414605F00EF99D
:1016A0000746594604F002FE0646294605F006F9AB
:1016B000044604F05FFF474908604A48B0F900005B
:1016C000C000642100E075E090FBF1F7384604F0BB
:1016D0008DFF05463D480168434804F0E7FF834617
:1016E0004048B0F90200C000642190FBF1FA504676
:1016F00004F07CFF8046324801683B4804F0D6FF86
:1017000082463A4905F0CFF88146414604F0CEFDC5
:101710000746594604F0CAFD0646294605F0CEF8AC
:10172000044604F027FF2C4908602E48B0F9000059
:10173000C000642190FBF1F7384604F057FF0546DE
:1017400022480168284804F0B1FF83462548B0F9D3
:101750000200C000642190FBF1FA504604F046FFFD
:10176000804617480168204804F0A0FF82461F49C0
:1017700004F09CFD8146414605F0A0F80746594615
:1017800005F09CF80646294604F090FD044604F056
:10179000F1FE12490860FFF7CBFEFFF7A7FE48B93C
:1017A0000E4803680C4802680A4801680848006847
:1017B000FFF781FEBDE8F09F34080040000020C222
:1017C0008800002000002042020000208C00002041
:1017D000080000200C000020100000201400002051
:1017E000102C0140780000200000A0400000FA44C6
:1017F00038B50446FB4890F82400C0B114B102206B
:10180000009001E000200090F64A1268D17BF54A72
:10181000526810786B460122FFF73DFC10B14FF083
:10182000FF3038BD9DF80010EE48417423E0ED48CC
:10183000807A10B94FF0FF30F3E724B1E948407CDB
:1018400008B10020EDE714B10120009001E0002074
:101850000090E44A1268D17BE24A526810786B46E5
:101860000122FFF718FC10B14FF0FF30D9E79DF8C7
:101870000010DC4841740020D3E738B5002419E09B
:10188000D8480068C07AA04204D0D6480068407D9D
:10189000A04200D10CE0D349496808786B46012288
:1018A0002146FFF759FC10B14FF0FF3038BD00BFA3
:1018B000601CC4B2CB4840680079A042E0DC002044
:1018C000F4E770B504460D46C6480068C07AA042E9
:1018D00004D0C4480068407DA04202D14FF0FF30E0
:1018E00070BDC04840680079A04202DC4FF0FF3074
:1018F000F6E7BC49496808782B4601222146FFF7E4
:101900002BFCEDE738B50446B64890F82300A0421A
:1019100001D1002038BD14B13020009001E000203A
:101920000090B048807C20B19DF8000040F002009B
:101930000090AC4890F8220020B19DF8000040F0E3
:1019400080000090A74A1268117DA64A526810785C
:101950006B460122FFF79FFB10B14FF0FF30D9E734
:10196000A04880F823400020D4E738B5044614F09E
:10197000700F02D00120009005E014B1002000900B
:1019800001E040200090974A1268917C954A526885
:1019900010786B460122FFF77EFB20B100219148B1
:1019A0008172481E38BD9DF8000020F040018D482E
:1019B00001730020009014F0400F04D19DF8000046
:1019C00040F00400009014F0200F04D19DF80000B6
:1019D00040F00200009014F0100F04D19DF80000B8
:1019E00040F00100009014F0080F04D19DF80000B1
:1019F00040F0380000907B4A1268D17C794A5268E6
:101A000010786B460122FFF746FB20B10021754894
:101A10008172481EC6E724B1082C02D00020FFF7CF
:101A200071FF70488472002101753220FEF743FC7B
:101A30000020B7E738B504466A48807CA04201D14F
:101A4000002038BD002C46D0664A12681179654ADC
:101A5000526810786B460122FFF77EFB10B14FF001
:101A6000FF30EEE79DF8000020F0200000905D4A76
:101A7000126811795B4A526810786B460122FFF7B1
:101A80000AFB10B14FF0FF30DBE70320FEF713FC39
:101A900002200090534890F8220020B19DF80000E9
:101AA00040F0800000904F4890F8230020B19DF84E
:101AB000000040F0300000904A4A1268117D494A07
:101AC000526810786B460122FFF7E5FA002851D0E2
:101AD0004FF0FF30B5E7434A12681179414A526826
:101AE00010786B460122FFF737FB10B14FF0FF3043
:101AF000A7E73C48807A10F0010F05D09DF8000060
:101B000040F02000009004E09DF8000020F020004C
:101B10000090344A12681179324A526810786B4644
:101B20000122FFF7B8FA10B14FF0FF3089E7032028
:101B3000FEF7C1FB2B4890F8220010B180200090E6
:101B400001E000200090274890F8230020B19DF884
:101B5000000040F030000090224A1268117D214AB6
:101B6000526810786B460122FFF795FA10B14FF0DA
:101B7000FF3066E71B488474002062E708B5194807
:101B8000807A10B94FF0FF3008BD00200090154A50
:101B90001268D17B134A526810786B460122FFF716
:101BA0007AFA10B14FF0FF30EEE70E4A1268517921
:101BB0000C4A526810786B460122FFF76CFA10B19C
:101BC0004FF0FF30E0E7074A12681179054A526882
:101BD00010786B460122FFF75EFA28B14FF0FF3014
:101BE000D2E700002C000020F74890F824000028DD
:101BF00050D00C200090F44A12681179F24A5268D1
:101C000010786B460122FFF746FA10B14FF0FF3013
:101C1000BAE7C0200090EC48807A10F0010F04D0A1
:101C20009DF8000040F020000090E74A126811790A
:101C3000E54A526810786B460122FFF72CFA10B182
:101C40004FF0FF30A0E7E048407C10B10220009048
:101C500001E000200090DC4A1268D17BDA4A526829
:101C600010786B460122FFF716FA10B14FF0FF30E3
:101C70008AE700200090D44A12685179D24A52680B
:101C800010786B460122FFF706FA002852D04FF079
:101C9000FF3079E704200090CB4A12681179CA4AD4
:101CA000526810786B460122FFF7F5F910B14FF03A
:101CB000FF3069E7C448807C20B9C348807A10F0BF
:101CC000010F02D14020009001E060200090BE4A48
:101CD00012681179BC4A526810786B460122FFF7EE
:101CE000DAF910B14FF0FF304EE7B748407C10B141
:101CF0000120009001E000200090B34A1268D17BDF
:101D0000B14A526810786B460122FFF7C4F910B14E
:101D10004FF0FF3038E7AC4A12685179AA4A52684E
:101D20001078A94B10330122FFF7B5F910B14FF02D
:101D3000FF3029E7002027E770B50446002624F08D
:101D40000104A14890F8240008B1002070BD9E480D
:101D5000807A10B94FF0FF30F8E79B48057C807A15
:101D60002040994908740846007CA04202D04FF0F8
:101D7000FF3600E0002614B99348007D18B1012019
:101D8000FFF736FD02E00020FFF732FD3CB1FFF720
:101D9000F5FE20B18C4805744FF0FF30D6E7304691
:101DA000D4E738B504468848807A10B94FF0FF3040
:101DB00038BDBC2C02DB0120009015E0622C02DB58
:101DC0000220009010E02A2C02DB032000900BE0A0
:101DD000142C02DB0420009006E00A2C02DB052014
:101DE000009001E0062000907748C07A9DF800102E
:101DF000884201D10020DBE7734A12689178724A69
:101E0000526810786B460122FFF745F910B14FF088
:101E1000FF30CDE79DF800106B48C1720020C7E786
:101E200038B50446282C02DD4FF0FF3038BDDCB950
:101E30000020FFF767FD00208DF8000007208DF8D7
:101E40000100614A1268917C5F4A526810786B46C3
:101E50000222FFF720F910B14FF0FF30E6E7002132
:101E6000594801750020E1E70120FFF74BFD2020D4
:101E70008DF80000012C06D100208DF8010005200E
:101E8000FFF78FFF17E0052C06DC01208DF801001D
:101E90000520FFF786FF0EE0142C06DC02208DF8EB
:101EA00001000A20FFF77DFF05E003208DF8010007
:101EB0001420FFF776FF9DF80100072101EB801049
:101EC000C0B28DF80100404A1268917C3E4A5268C7
:101ED00010786B460222FFF7DEF810B14FF0FF30AA
:101EE000A4E708213848817200210173012101759E
:101EF0000020FFF721FF002098E738B5044632485C
:101F0000807A10B94FF0FF3038BD2F4890F8240088
:101F100010B14FF0FF30F7E72B48007D50B134B1DE
:101F2000282C04DCE0B2FFF77BFF0020ECE7002068
:101F3000FFF776FF042C01DA042404E0B4F57A7F7D
:101F400001DD4FF47A744FF47A7090FBF4F0401E88
:101F5000C0B200901C4A126851781B4A526810782F
:101F60006B460122FFF797F810B14FF0FF30CBE737
:101F70009DF80000401C4FF47A7191FBF0F081B2A3
:101F80001148C1810146C9894810FFF70AFF0020A6
:101F9000BAE738B504460C48807A10B94FF0FF30E4
:101FA00038BD022C06D0042C07D0082C08D0102CE9
:101FB0000FD10BE0002000900EE0082000900BE015
:101FC0001020009008E000002C0000201820009055
:101FD00002E04FF0FF30E3E700BFF948407A9DF898
:101FE0000010B0EBE10F01D10020D9E7F44A1268EC
:101FF000D179F34A526810786B460122FFF74BF80B
:1020000010B14FF0FF30CBE79DF80000C110EC4855
:1020100041720020C4E738B50446E948807A10B917
:102020004FF0FF3038BDFA2C09D0B4F5FA7F09D053
:10203000B4F57A7F09D0B4F5FA6F0CD108E000202E
:1020400000900BE00820009008E01020009005E0D0
:102050001820009002E04FF0FF30E3E700BFD848BF
:10206000007A9DF80010B0EBE10F01D10020D9E714
:10207000D34A12689179D24A526810786B4601228D
:10208000FFF709F810B14FF0FF30CBE79DF80000E3
:10209000C010CB4908720020C4E71CB580208DF821
:1020A0000000C74A1268917CC54A526810786B4696
:1020B0000122FEF7F0FF10B14FF0FF301CBD64208D
:1020C000FEF7F9F800208DF80000BD4A1268917CF7
:1020D000BB4A526810786B460122FEF7DCFF10B154
:1020E0004FF0FF30EAE7B64A1268917DB44A526871
:1020F00010786B460622FFF72FF810B14FF0FF3033
:10210000DCE79DF80500C007400F9DF8031001F0C3
:10211000010140EA41009DF8011001F0010140EA8F
:10212000010494B1012C03D10121A548C17431E00F
:10213000022C03D10021A248C1742BE02146A1A0AA
:1021400002F090FD4FF0FF30B8E79D4A1268D17859
:102150009B4A526810786B460122FEF7FDFF10B1D2
:102160004FF0FF30AAE79DF8000000F00F042CB9F3
:102170009E4802F077FD4FF0FF309FE7042C06D118
:102180009BA002F06FFD01218D48C17402E0002187
:102190008B48C174FF218A488172FF2088490872E8
:1021A000FF2187484172C1724FF6FF71C181FF2143
:1021B000017481740121017380F82210002180F8DC
:1021C0002310417501751630016041608160163839
:1021D00080F8241080F82510C1844FF4FA60FFF7CE
:1021E0001AFF10B14FF0FF3068E70220FFF7D1FE71
:1021F00010B14FF0FF3061E72A20FFF7D2FD10B198
:102200004FF0FF305AE73220FFF777FE10B14FF062
:10221000FF3053E70020FFF78FFD10B14FF0FF3084
:102220004CE70020FFF706FC10B14FF0FF3045E708
:102230000020FFF79AFB002040E770477CB504467A
:102240000D465F48807A10F0700F02D14FF0FF30DA
:102250007CBD5B4A1268117B594A526810786B4604
:102260000622FEF779FF10B14FF0FF30F0E79DF83E
:1022700001009DF8001040EA012000B220809DF886
:1022800003009DF8021040EA012000B260809DF832
:1022900005009DF8041040EA012000B2A08015B1AD
:1022A0002846FFF7CAFF0020D2E77CB504460D465A
:1022B0004348807A10F0080F02D14FF0FF307CBD08
:1022C0003F4A1268517B3E4A526810786B4606229C
:1022D000FEF742FF10B14FF0FF30F0E79DF801002C
:1022E0009DF8001040EA012000B220809DF8030014
:1022F0009DF8021040EA012000B260809DF80500C0
:102300009DF8041040EA012000B2A08015B12846D3
:10231000FFF793FF0020D2E72DE9FE4F05460C465C
:102320002748807A18B94FF0FF30BDE8FE8F244A65
:102330001268917B224A5268107802AB0222FEF7A3
:102340000BFF10B14FF0FF30EFE79DF809009DF84B
:10235000081040EA012006B214B12046FFF76DFFD5
:1023600017494968C88804F059F915490190496826
:10237000B1F9080004F03AF98346304604F036F922
:102380005946009004F09AFA8246019903F0FCFF46
:1023900081461F4903F08AFF80464FF08F4104F0C9
:1023A00085F9074604F0E6F828600020BDE710B57F
:1023B00088B004461CB94FF0FF3008B010BD29E0CA
:1023C0002C000020556E737570706F7274656420F8
:1023D000736F6674776172652070726F6475637471
:1023E000207265762025642E0A0000004C750008D6
:1023F00048616C662073656E736974697669747977
:10240000207061727420666F756E642E0D0A000074
:1024100000000C42206830B9606820B9A06810B98B
:10242000002008B010BDFA494968087806AB0322BD
:102430001146FEF791FE10B14FF0FF30F1E79DF825
:102440001800082101EB201000F00F00ADF800008B
:102450009DF8190001EB201000F00F00ADF802000C
:102460009DF81A0001EB201000F00F00ADF80400F9
:1024700020684100BDF90000403091FBF0F000B24F
:10248000ADF8100060684100BDF90200403091FBDA
:10249000F0F000B2ADF81200A0684100BDF90400F0
:1024A000403091FBF0F000B2ADF81400D849496813
:1024B000087806AB06221146FEF74EFE10B14FF02B
:1024C000FF30AEE79DF819009DF8181040EA012092
:1024D00000B2ADF808009DF81B009DF81A1040EA04
:1024E000012000B2ADF80A009DF81D009DF81C10F7
:1024F00040EA012000B2ADF80C00BDF81000BDF8B4
:102500000810084400B2ADF81000BDF81200BDF884
:102510000A10084400B2ADF81200BDF81400BDF86E
:102520000C10084400B2ADF81400BDF81000000A09
:102530008DF81800BDF81000C0B28DF81900BDF874
:102540001200000A8DF81A00BDF81200C0B28DF812
:102550001B00BDF81400000A8DF81C00BDF8140023
:10256000C0B28DF81D00AA494968087806AB06225A
:102570001146FEF790FD10B14FF0FF3051E70020FB
:102580004FE70146A248007A30B1012807D002285F
:1025900009D003280FD10AE0FA2008800EE04FF49A
:1025A000FA7008800AE04FF47A70088006E04FF471
:1025B000FA60088002E00020088000BF00BF002011
:1025C000704701469248407A30B1012807D002286E
:1025D00008D003280CD108E0022008700BE004208A
:1025E000087008E00820087005E01020087002E07C
:1025F0004FF0FF30704700BF8548C07C18B10878A5
:102600004006000E08700020F4E701468048C07ABA
:10261000082817D2DFE800F01704070A0D10131876
:10262000BC20088013E06220088010E02A20088087
:102630000DE0142008800AE00A20088007E0052049
:10264000088004E000BF00BF0020088000BF00BF7A
:102650000020704701466E4890F8240010B14FF0FA
:10266000FF3070476A48C08908800020F9E70146BA
:1026700000200880401E704701464FF0FF30704731
:1026800001466348007A30B1012807D0022808D0FB
:1026900003280CD108E05F4808600BE05E48086042
:1026A00008E05E48086005E05D48086002E04FF021
:1026B000FF30704700BF0020FBE701465448407AD6
:1026C00030B1012808D002280AD0032810D10BE02D
:1026D0004FF4804008800EE041F69C7008800AE0CC
:1026E0004FF48050088006E04FF40060088002E05C
:1026F0004FF0FF30704700BF4548C07C10B10888DC
:10270000401008800020F5E701464148007C087031
:102710000020704701463E48807A10B101200870C1
:1027200001E0002008700020704738B504463848A2
:10273000807A10B94FF0FF3038BD354A1268117CED
:10274000334A526810786B460222FEF705FD10B13D
:102750004FF0FF30F0E79DF801009DF8001040EACF
:10276000012000B220800020E6E72DE9FE4F074659
:10277000884692461D46DDF830B0002600242448E5
:1027800090F8240010B1601EBDE8FE8F0020287074
:102790001F48807A10B94FF0FF30F5E71C48007CE5
:1027A00010B94FF0FF30EFE71948007C10F0400FF0
:1027B00001D0B01CC6B21648007C10F0200F01D02A
:1027C000B01CC6B21248007C10F0100F01D0B01C33
:1027D000C6B20F48007C10F0080F01D0B01DC6B281
:1027E0000B4A1268917A0A4A526810786B460222A4
:1027F000FEF7B2FC10B14FF0FF30C5E79DF80100C5
:102800009DF8001040EA0129B1450BDA0020BBE732
:102810002C000020000003430000834233330342B6
:1028200033338341FA4840684088B9EB600F17DDC5
:10283000F74A1268517CF64A526810786B460122BA
:10284000FEF78AFC10B14FF0FF309DE79DF80000C5
:1028500010F0100F04D0FFF791F96FF0010093E72B
:102860005046FFF7EAFCEA4A1268D17AE84A526811
:1028700010786B463246FEF76FFC10B14FF0FF3018
:1028800082E799FBF6F0401E8BF8000000202870CC
:10289000B4422AD0DE48007C10F0080F25D0601C1E
:1028A0001DF800001DF8041040EA012000B2A8F84D
:1028B0000000E01C1DF80010A01C1DF8000041EAFB
:1028C000002000B2A8F80200601D1DF80010201DB5
:1028D0001DF8000041EA002000B2A8F804002878A2
:1028E00040F008002870A01D84B2B44213D0C8483C
:1028F000007C10F0400F0ED0601C1DF800001DF889
:10290000041040EA012000B23880287840F04000EE
:102910002870A01C84B2B44213D0BD48007C10F0D3
:10292000200F0ED0601C1DF800001DF8041040EAB6
:10293000012000B27880287840F020002870A01C88
:1029400084B2B44213D0B248007C10F0100F0ED005
:10295000601C1DF800001DF8041040EA012000B2C0
:10296000B880287840F010002870A01C84B20020A5
:102970000AE7F8B504460F461646A54890F8240025
:1029800010B94FF0FF30F8BDA148807A10B94FF070
:10299000FF30F8E79E4A1268917A9D4A5268107893
:1029A0006B460222FEF7D8FB10B14FF0FF30EAE78A
:1029B0009DF801009DF8001040EA0125A54203DAC8
:1029C00000203070401EDEE7914840684088B5EB3B
:1029D000600F17DD8E4A1268517C8D4A526810785C
:1029E0006B460122FEF7B8FB10B14FF0FF30CAE78B
:1029F0009DF8000010F0100F04D0FFF7BFF86FF043
:102A00000100C0E7E2B2824B1B68D97A804B5B6859
:102A100018783B46FEF7A0FB10B14FF0FF30B2E74D
:102A200095FBF4F0401E30700020ACE7014678487A
:102A300080F82210002070477CB50546744949682B
:102A4000087801AB04220D21FEF786FB08B10720B0
:102A50007CBD9DF80700C0F301109DF8041001F043
:102A6000E00140EAE1008DF800009DF80700C0F3A6
:102A700081009DF8051001F0E00140EAE1008DF8C9
:102A800001009DF8070000F003009DF8061001F01A
:102A9000E00140EAE1008DF8020000241CE01DF88E
:102AA000040018B9002045F8240013E0594845F8FF
:102AB000240006E055F82400574903F0F7FD45F8D7
:102AC00024001DF80400401E10F0FF000DF8040063
:102AD000F0D100BF601CC4B2032CE0DB0020B7E7DC
:102AE0002DE9FE4F06460F4600256846FFF7A4FF76
:102AF000002440E056F8240057F82410B0EB010AF7
:102B000001D4514601E0CAF10001084603F06EFD10
:102B100083464FF08F4103F037FC80465DF8240078
:102B2000002103F0F3FC16D05DF82410404603F0BA
:102B30002BFC82464FF07E5103F0C0FE814629F007
:102B4000004A3648416A504603F07CFE12D201200A
:102B5000A04005430EE03148C169404603F072FDD4
:102B600005D32E48016A404603F06CFE02D20120D4
:102B7000A0400543641C032CBCDB2846BDE8FE8F47
:102B80002DE9FC5F06460F46002521494968087873
:102B900001AB03220D21FEF7DFFA10B10720BDE8DB
:102BA000FC9F9DF8040000F01F008DF804009DF8C4
:102BB000050000F01F008DF805009DF8060000F0EC
:102BC0001F008DF80600002460E056F8240057F836
:102BD0002410B0EB010B01D4594601E0CBF1000108
:102BE000084603F003FD4FF08F41009003F0CCFB4B
:102BF000814601A8005DC0B30849086803F00EFDD6
:102C000083465946064803F0BFFB80460FE00000AC
:102C10002C0000207B14AE3E1D5A843F2475000812
:102C200000B04C45FE49404603F040FD804601A8F7
:102C3000005D401E10F0FF0001A90855F2D1414689
:102C4000484603F0A1FB83464FF07E5103F036FE69
:102C500082462AF0004BF3488169584603F0F2FDA2
:102C600013D20120A04005430FE0FFE7ED480169C2
:102C7000484603F0E7FC05D3EA484169484603F0BB
:102C8000E1FD02D20120A0400543641C032C9CDB23
:102C9000284684E72DE9F04F87B005460C4691465B
:102CA00001208DF8100000208DF81100DE4A126816
:102CB000917CDD4A5268107804AB0222FEF7EBF9F2
:102CC00020B14FF0FF3007B0BDE8F08FC820FDF70E
:102CD000F2FA00208DF81000D34A1268D17BD24A54
:102CE0005268107804AB0122FEF7D5F910B14FF00D
:102CF000FF30E8E7CC4A12685179CB4A5268107825
:102D000004AB0122FEF7C7F910B14FF0FF30DAE74C
:102D1000C54A1268917CC44A5268107804AB0122FB
:102D2000FEF7B9F910B14FF0FF30CCE7BE4A126898
:102D3000D17DBD4A5268107804AB0122FEF7ABF991
:102D400010B14FF0FF30BEE7B74A12681179B64AAA
:102D50005268107804AB0122FEF79DF910B14FF0D4
:102D6000FF30B0E70C208DF81000AF4A12681179DF
:102D7000AD4A5268107804AB0122FEF78CF910B10D
:102D80004FF0FF309FE70F20FDF795FAA648806AC5
:102D9000407A8DF81000A44A12689178A24A5268CD
:102DA000107804AB0122FEF776F910B14FF0FF3036
:102DB00089E79D48806A007A8DF810009A4A126867
:102DC0005178994A5268107804AB0122FEF763F9F2
:102DD00010B14FF0FF3076E7B9F1000F07D09248FD
:102DE000806A807A40F0E0008DF8100004E08E48A0
:102DF000806A807A8DF810008B4A126891798A4A2D
:102E00005268107804AB0122FEF745F910B14FF07B
:102E1000FF3058E7B9F1000F07D08348806AC07AC5
:102E200040F0E0008DF8100003E07E48C07A8DF895
:102E300010007D4A1268D1797B4A5268107804AB41
:102E40000122FEF728F910B14FF0FF303BE7B9F14E
:102E5000000F02D0C820FDF72EFA40208DF8100098
:102E6000714A12681179704A5268107804AB0122D5
:102E7000FEF711F910B14FF0FF3024E778208DF8FC
:102E80001000694A12685179674A5268107804AB99
:102E90000122FEF700F910B14FF0FF3013E761494E
:102EA0008889FDF708FA00208DF810005E4A126844
:102EB00051795D4A5268107804AB0122FEF7EBF8B5
:102EC00010B14FF0FF30FEE6574A1268917A564A29
:102ED0005268107804AB0222FEF73EF910B14FF0B1
:102EE000FF30F0E69DF811009DF8101040EA012B2C
:102EF0000C209BFBF0F0C6B20020A8606860286040
:102F0000A06060602060824665E0474A1268D17A1E
:102F1000454A5268107804AB0C22FEF71DF910B137
:102F20004FF0FF30CFE69DF811009DF8101040EAF9
:102F3000012000B2ADF808009DF813009DF81210B2
:102F400040EA012000B2ADF80A009DF815009DF896
:102F5000141040EA012000B2ADF80C00BDF90810D1
:102F6000206808442060BDF90A1060680844606069
:102F7000BDF90C10A0680844A0609DF817009DF8EA
:102F8000161040EA012000B2ADF800009DF81900CB
:102F90009DF8181040EA012000B2ADF802009DF83B
:102FA0001B009DF81A1040EA012000B2ADF80400A1
:102FB000BDF90010286808442860BDF9021068684F
:102FC00008446860BDF90410A8680844A8600AF1C4
:102FD000010000F0FF0AB24597DB1248D0F800C0AC
:102FE0002868C117090441EA10410704624600231A
:102FF000384601F012FE32460023CDE9020101F00D
:103000000CFE28600748D0F800C06868C1170904A2
:1030100041EA1041070462460023384606E00000FA
:1030200054E3853F247500082C00002001F0F5FDD5
:1030300032460023CDE9020101F0EFFD6860FE4851
:10304000D0F800C0A868C117090441EA104107047C
:1030500062460023384601F0E0FD32460023CDE908
:10306000020101F0DAFDA860F348D0F804C021683D
:10307000C817000440EA11480F046246002338468E
:10308000414601F0CAFD32460023CDE9020101F0BC
:10309000C4FD2060E848D0F804C06068C117090486
:1030A00041EA1041070462460023384601F0B5FDAD
:1030B00032460023CDE9020101F0AFFD6060DE4839
:1030C000D0F804C0A068C117090441EA1041070400
:1030D00062460023384601F0A0FD32460023CDE9C8
:1030E000020101F09AFDA060A068002804DDA0683C
:1030F000A0F58030A06003E0A06800F58030A060FB
:103100000020E0E538B50446CC4890F82400A04201
:1031100001D1002038BD24B3C84890F8250010B96B
:103120004FF0FF30F6E70020FEF762FB0020FEF7CD
:1031300081FCC249C88CFEF7E0FE00200090BF4928
:10314000496808786B4601222321FDF7A4FF01217D
:10315000BA4880F824100120FEF74AFBFEF70EFD66
:1031600013E00020FEF744FBB448007C0090B34914
:10317000496808786B4601222321FDF78CFF002166
:10318000AE4880F82410FEF7F9FC0020C2E72DE9D4
:10319000F04F8DB083460F4602200C90A74890F860
:1031A000240020B10020FFF7ADFF012600E000263B
:1031B00003A8FFF7E6F905A8FFF703FA01A8FFF750
:1031C00024FA02A8FFF746FA9C4890F80AA004A83F
:1031D000FFF79AFA002407E0002239465846FFF725
:1031E00059FD00B902E0641C022CF5DB00BF022C83
:1031F00001D1002528E0002407E0012206A909A842
:10320000FFF748FD00B902E0641C022CF5DB00BFAB
:10321000022C01D1002517E006A93846FFF760FC13
:1032200000F0FF0809A95846FFF7AAFC00F0FF09C3
:103230000025B9F1000F01D145F00105B8F1000FEB
:1032400001D145F0020500BFFF207C490872FF2133
:103250007A484172C1724FF6FF71C181FF218172BC
:10326000017401210173BDF80C00FEF7D4FE9DF836
:103270001400FEF78EFEBDF80400FEF792FDBDF8C7
:103280000800FEF73AFE5046FEF76FFB9DF810006F
:10329000FEF752FD16B10120FFF734FF28460DB0AE
:1032A000BDE8F08FF8B504460D46164616B94FF046
:1032B000FF30F8BD6148807A10B94FF0FF30F8E771
:1032C00020128DF80000E0B28DF801009DF8010099
:1032D00028445A4949684989884202DD4FF0FF3045
:1032E000E7E7564A1268117E544A526810786B46D6
:1032F0000222FDF7D0FE10B14FF0FF30D9E7EAB25D
:103300004E4B1B68597D4D4B5B6818783346FDF773
:10331000C2FE10B14FF0FF30CBE70020C9E7F8B58F
:1033200004460D46164616B94FF0FF30F8BD434827
:10333000807A10B94FF0FF30F8E720128DF80000C6
:10334000E0B28DF801009DF8010028443B4949682E
:103350004989884202DD4FF0FF30E7E7374A1268BB
:10336000117E364A526810786B460222FDF793FEB2
:1033700010B14FF0FF30D9E7EAB2304B1B68597DEE
:103380002E4B5B6818783346FDF7E6FE10B14FF020
:10339000FF30CBE70020C9E72DE9F04385B00546B3
:1033A0000E4690469946254890F8250020B14FF0EA
:1033B000FF3005B0BDE8F08316B94FF0FF30F8E7F5
:1033C000002423E0281B102801DD102000E0281B2A
:1033D00087B2321939462046FFF764FF10B14FF02B
:1033E000FF30E6E701AA39462046FFF798FF10B103
:1033F0004FF0FF30DDE730193A4601A901F0AEFC8D
:1034000010B16FF00100D4E7E01984B2AC42D9DB0F
:103410004FEA28208DF8000008F0FF008DF8010029
:10342000064A1268917E054A526810786B4602225D
:10343000FDF731FE38B103E0247500082C000020B0
:103440004FF0FF30B5E701218A4880F82510A0F839
:1034500026900020ADE70146864890F824000870C9
:103460000020704702464FF0FF30704701464FF092
:10347000FF307047F8B505460F461446002C70D053
:10348000B5F5FF5F01DDFF2605E0202D01DA0126FD
:1034900001E0C5F3471607B90127282C02DD4FF0DC
:1034A000FF30F8BD7348407D28BB724890F8240077
:1034B00038B10020FFF726FE01216E4880F8201069
:1034C00003E000216B4880F820106A481630FFF7AF
:1034D00058F868481830FFF774F866481A30FFF754
:1034E00094F864481C30FFF7B5F86248817A817718
:1034F0001F30FFF709F90020FEF77AF90020FEF7E8
:103500008FFC00208DF800005A4A12689178594AC1
:10351000526810786B460122FDF7BDFD10B14FF0E7
:10352000FF30BEE740208DF80000524A1268D17B80
:10353000504A526810786B460122FDF7ACFD00B18D
:1035400065E08DF800608DF801704A4A1268117AC2
:10355000484A526810786B460222FDF79CFD08B17C
:1035600055E047E00520FCF7A6FE4248407A0721D7
:1035700001EBC000C0B28DF800003E4A1268D1795C
:103580003C4A526810786B460122FDF784FD00B179
:103590003DE020208DF80000012C03D100208DF8A3
:1035A00001000EE0052C03DC01208DF8010008E08D
:1035B000142C03DC02208DF8010002E003208DF8BA
:1035C00001009DF80100072101EB8010C0B28DF8C9
:1035D0000100284A1268917C264A526810786B468E
:1035E0000222FDF758FD00B111E00121214841758B
:1035F000002056E71F4A1632002103E0505C00B15C
:1036000005E0491C0C29F9D34FF0FF3049E7FF20B2
:1036100018490872FF2117484172C1724FF6FF71B5
:10362000C181FF2181720174012101730146887FEC
:10363000FEF79BF90F49C88AFEF7EDFC0D49087E9D
:10364000FEF7A7FC0B49488BFEF7ABFB0949888BBB
:10365000FEF753FC0749C87FFEF76EFB054890F85C
:10366000200010B10120FFF74DFD002101484175F8
:10367000002016E72C00002010B5C8234FF480620C
:10368000F74940F6F630FFF787FE10BD10B586B05B
:103690000446F4A000680390F3A000680290F3A031
:1036A00000680190F2A00068009004F0030003A9F4
:1036B000085C8DF8140003A8C4F3C101405C8DF8C8
:1036C000150003A8C4F38111405C8DF8160004F0C6
:1036D000030002A9085C8DF8100002A8C4F3C10120
:1036E000405C8DF8110002A8C4F38111405C8DF894
:1036F000120005AA032140F22640FFF7D3FD18B1BE
:103700004FF0FF3006B010BD04AA032140F22A405A
:10371000FFF7C8FD10B14FF0FF30F3E701980590B7
:103720000098049014F0040F0BD09DF8140040F0A2
:1037300001008DF814009DF8100040F001008DF894
:10374000100014F0200F0BD09DF8150040F0010080
:103750008DF815009DF8110040F001008DF8110062
:1037600014F4807F0BD09DF8160040F001008DF816
:1037700016009DF8120040F001008DF8120005AA15
:1037800003214FF48860FFF78DFD10B14FF0FF303B
:10379000B8E704AA032140F23140FFF783FD10B1DE
:1037A0004FF0FF30AEE7B34804810020AAE71FB511
:1037B0000446B048007A00F0030054F8200001905D
:1037C000AC48007A10F0040F02D0019840420190FA
:1037D000A848007AC0F3C10054F820000290A54820
:1037E000007A10F0200F02D0029840420290A148C7
:1037F000007AC0F3811054F8200003909D4800899E
:1038000010F4807F02D00398404203909A490198B7
:1038100080FB0101800F40EA8100019096490298E7
:1038200080FB0110820042EA917002909249039855
:1038300080FB0110820042EA917003900198000E13
:103840008DF800000198000C8DF801000198000A25
:103850008DF802000198C0B28DF803006A46042179
:103860004FF47470FFF71EFD18B14FF0FF3004B035
:1038700010BD0298000E8DF800000298000C8DF823
:1038800001000298000A8DF802000298C0B28DF87B
:1038900003006A4604214FF47570FFF703FD10B171
:1038A0004FF0FF30E3E70398000E8DF80000039817
:1038B000000C8DF801000398000A8DF802000398AF
:1038C000C0B28DF803006A4604214FF47670FFF70A
:1038D000E9FCCCE770B588B0064601A8FEF7EDFE1E
:1038E000BDF804000021C90341EA5045C403614802
:1038F000007A00F0030056F8200005905D48007A39
:1039000010F0040F02D00598404205905948007A03
:10391000C0F3C10056F8200006905648007A10F017
:10392000200F02D00698404206905248007AC0F319
:10393000811056F8200007904E48008910F4807FCF
:1039400002D00798404207900598C117A0FB0423B6
:1039500001FB043100FB0510810041EA92700590E3
:103960000698C117A0FB042301FB043100FB0510DE
:10397000810041EA927006900798C117A0FB0423CA
:1039800001FB043100FB0510810041EA92700790B1
:103990000598000E8DF808000598000C8DF80900B8
:1039A0000598000A8DF80A000598C0B28DF80B0042
:1039B0000698000E8DF80C000698000C8DF80D008E
:1039C0000698000A8DF80E000698C0B28DF80F0018
:1039D0000798000E8DF810000798000C8DF8110064
:1039E0000798000A8DF812000798C0B28DF81300EE
:1039F00002AA0C214FF42570FFF754FC08B070BDEB
:103A000030B585B004461DA207CA02AB07C3C82C57
:103A100003DD4FF0FF3005B030BDC82090FBF4F05F
:103A2000401E85B2280A8DF80000E8B28DF801002A
:103A30006A46022140F21620FFF734FC10B14FF025
:103A4000FF30E8E702AA0C2140F6C120FFF72AFC6C
:103A500010B14FF0FF30DEE7064884810020DAE73E
:103A60009A7500084CCD6C000CC92C0036567600B7
:103A7000264666009004002009E3CA02FEF2ABC4A9
:103A8000AAF1DFDFBBAFDFDF0146FC488089088099
:103A9000002070472DE9FC4706460F4616F0070F39
:103AA00002D0B7F5C86F03DD4FF0FF30BDE8FC87EB
:103AB000384602F0B3FD8146F14902F065FC8046CC
:103AC0006846FEF77EFD9DF80000022806D0042817
:103AD00016D0082826D0102848D135E04FF08D4167
:103AE000404602F0E3FD814602F060FD84B2E54904
:103AF000404602F0DBFD814602F058FD85B238E019
:103B00004FF08C41404602F0D1FD814602F04EFD5F
:103B100084B2DD49404602F0C9FD814602F046FD0F
:103B200085B226E04FF08B41404602F0BFFD814652
:103B300002F03CFD84B2D549404602F0B7FD814613
:103B400002F034FD85B214E04FF08A41404602F0A5
:103B5000ADFD814602F02AFD84B2CD49404602F017
:103B6000A5FD814602F022FD85B202E04FF0FF3054
:103B70009CE700BF20128DF80400E0B28DF805002C
:103B800028128DF80600E8B28DF8070016F0010F34
:103B900014D001AA02214FF4EA70FFF783FB10B1A1
:103BA0004FF0FF3082E70DF1060202214FF49270D0
:103BB000FFF778FB10B14FF0FF3077E716F0020FF8
:103BC00014D001AA02214FF4EC70FFF76BFB10B187
:103BD0004FF0FF306AE70DF1060202214FF49470B6
:103BE000FFF760FB10B14FF0FF305FE716F0040FF6
:103BF00014D001AA02214FF4EE70FFF753FB10B16D
:103C00004FF0FF3052E70DF1060202214FF496709B
:103C1000FFF748FB10B14FF0FF3047E7002045E7C2
:103C200038B504460020009014F0010F04D09DF830
:103C3000000040F03000009014F0020F04D09DF816
:103C4000000040F00C00009014F0040F04D09DF828
:103C5000000040F0030000906A4601214FF4A47078
:103C6000FFF720FB38BD38B50446012C01DA0124EA
:103C700002E0042C00DD0424601EC0B200906A46FD
:103C8000012140F24F10FFF70DFB38BD38B5044657
:103C9000052094FBF0F085B228128DF80000E8B200
:103CA0008DF801006A4602214FF4EF70FFF7FAFA2F
:103CB00038BD38B50446052094FBF0F085B22812D3
:103CC0008DF80000E8B28DF801006A4602214FF439
:103CD000ED70FFF7E7FA38BDF8B505460E464FF42C
:103CE0007A7095FBF0F000FB06F4200E8DF80000D2
:103CF000200C8DF80100200A8DF80200E0B28DF84A
:103D000003006A4604214FF4AE70FFF7CBFAF8BD0A
:103D100038B50446052094FBF0F084B220128DF8EB
:103D20000000E0B28DF801006A4602214FF4AD7048
:103D3000FFF7B8FA38BD38B50446052094FBF0F01B
:103D400084B220128DF80000E0B28DF801006A46BE
:103D500002214FF4AC70FFF7A5FA38BD38B5044620
:103D600014B94FF0FF3038BD6A4604214FF4587043
:103D7000FFF7D5FA10B14FF0FF30F4E79DF80000DF
:103D800000069DF8011040EA01409DF8021040EA4B
:103D900001209DF80310084320600020E3E738B5B8
:103DA0000446200E8DF80000200C8DF80100200A3A
:103DB0008DF80200E0B28DF803006A4604214FF44A
:103DC0005870FFF76FFA38BD38B5044614B94FF094
:103DD000FF3038BD6A4604214FF47170FFF79FFA37
:103DE00010B14FF0FF30F4E79DF8000000069DF899
:103DF000011040EA01409DF8021040EA01209DF8C0
:103E00000310084300EB8000800020600020E0E702
:103E100038B504461420B4FBF0F4200E8DF80000F1
:103E2000200C8DF80100200A8DF80200E0B28DF818
:103E300003006A4604214FF47170FFF733FA38BD6E
:103E400038B5044664B120208DF8000028208DF894
:103E5000010030208DF8020038208DF8030004E0C6
:103E6000A3220421684600F0A5FF6A46042140F61B
:103E70009E20FFF717FAFDF781FE38BD9004002061
:103E800000004843000040460000C0450000404597
:103E90000000C04438B5044664B1C0208DF800006D
:103EA000C2208DF80100C4208DF80200C6208DF8D4
:103EB000030004E08B220421684600F07BFF6A4681
:103EC000042140F69820FFF7EDF9FDF757FE38BDC5
:103ED0003EB504466CB1FCA1D1E900208968CDE96A
:103EE000002002916A4609214FF49760FFF7DAF942
:103EF0003EBDF8A2D2E900109268CDE9010200911E
:103F00006A4609214FF49760FFF7CCF9F0E73EB518
:103F1000044602208DF80000CA208DF80100E3203D
:103F20008DF8020009208DF803006A4604216820FC
:103F3000FFF7B8F9A3208DF8000014F0400F09D066
:103F4000C0208DF80100C8208DF80200C2208DF835
:103F5000030006E0A3208DF801008DF802008DF823
:103F6000030014F4C07F09D0C4208DF80400CC20D5
:103F70008DF80500C6208DF8060006E0A3208DF818
:103F800004008DF805008DF80600A3208DF80700C9
:103F90008DF808008DF809006A460A2140F6A7202E
:103FA000FFF780F914F0030F03D020208DF80000F4
:103FB00002E0D8208DF800006A46012140F6B620C4
:103FC000FFF770F914F0200F03D00120FFF780FFF6
:103FD00002E00020FFF77CFF14F4C07F21D014F42E
:103FE000807F0CD0B2208DF800008B208DF801006E
:103FF000B6208DF802009B208DF803000BE0B02066
:104000008DF8000080208DF80100B4208DF80200AA
:1040100090208DF803006A46042140F6A220FFF7A5
:1040200041F914F0010F24D0F8208DF800006A4601
:1040300001214FF40B60FFF735F9FA210720FFF754
:1040400029FD0720FFF7ECFD0120FFF70CFE64209F
:10405000FFF71CFE4FF4FA70FFF72BFEC821A048B3
:10406000FFF73AFE2820FFF753FE0A20FFF763FE12
:1040700008E0D8208DF800006A4601214FF40B605B
:10408000FFF710F914F0020F03D0D9208DF80000CB
:1040900002E0D8208DF800006A46012140F23D7010
:1040A000FFF700F914F0040F03D00120FFF7F2FE30
:1040B00002E00020FFF7EEFE14F0100F03D0012005
:1040C000FFF7BEFE02E00020FFF7BAFE44F0080052
:1040D00084494881FDF752FD00208249887314F01D
:1040E000400F03D00846807B801D887314F4C07F86
:1040F00004D07C48807B801D7A49887314F0140FAB
:1041000004D07848807B10307649887314F0030F10
:1041100004D07448807B001D7249887300203EBD26
:104120000146704840890880002070472DE9F04121
:104130000446E07800F0C006E07800F03F056078C3
:1041400010F0010F13D0EF102846E91705EB51715D
:10415000C910A5EBC101491C01F0FF0861480068C6
:1041600020B16048414602683846904700BF6078F9
:1041700010F0080F06D05B48406818B1B011594ADA
:10418000516888470020BDE8F08110B586B004462C
:1041900055A207CA03AB07C356A207CA8DE807009A
:1041A000012C09D0022C0ED103AA0B2140F682204B
:1041B000FFF778F806B010BD6A460B2140F6822062
:1041C000FFF770F8F6E74FF0FF30F3E72DE9F04F17
:1041D0008DB00746884615469946DDE9166B0024E2
:1041E000002030803F49887B5A4605A9FEF7C1FB75
:1041F00018B1601E0DB0BDE8F08F3A48807A10F01B
:10420000140F7DD09DF8140000069DF8151040EAAB
:1042100001409DF8161040EA01209DF81710084350
:1042200028609DF8180000069DF8191040EA01402A
:104230009DF81A1040EA01209DF81B1008436860A1
:104240009DF81C0000069DF81D1040EA01409DF8F5
:104250001E1040EA01209DF81F100843A8609DF839
:10426000200000069DF8211040EA01409DF8221030
:1042700040EA01209DF823100843E86004F1100093
:10428000C4B2286800140190686800140290A868FD
:1042900000140390E86800140490019840430299C8
:1042A00001FB0100039901FB0100049901FB010AD4
:1042B000BAF1706F02DBBAF1885F22DDFDF75EFCB8
:1042C00000203080401E95E7B8AAB38DB4980D3514
:1042D0005D000000B8AAAAAAB088C3C5C700000044
:1042E00009E3CA0290040020D8B1B9F38BA391B6B8
:1042F00009B4D900DAB1B9F38BA391B6DAB4DA0014
:1043000005E0B6F9000040F48070308000BF34480A
:10431000807A10F0400F24D005A9601C085C095D6C
:1043200040EA012000B2A8F8000005A9E01C095CE1
:1043300005AAA01C105C41EA002000B2A8F8020007
:1043400005A9601D095C201D105C41EA002000B237
:10435000A8F80400A01DC4B2B6F9000040F008009F
:1043600030801F48408910F4C07F21D005A9601C0F
:10437000085C095D40EA012000B2388005A9E01C14
:10438000095C05AAA01C105C41EA002000B27880FC
:1043900005A9601D095C201D105C41EA002000B2E7
:1043A000B880A01DC4B2B6F9000040F070003080A3
:1043B0000B48807A10F0030F03D005A90819FFF706
:1043C000B5FE4846FDF739FF002013E701460448D3
:1043D000016000207047014601484160002070479D
:1043E00090040020014691F90020002A01DD002000
:1043F0001EE091F90020002A01DA042018E091F96A
:104400000120002A01DD012012E091F90120002A9B
:1044100001DA05200CE091F90220002A01DD0220DA
:1044200006E091F90220002A01DA062000E00720C8
:10443000704770B505462846FFF7D4FF0446E81CD0
:10444000FFF7D0FF44EAC00084B2A81DFFF7CAFFFF
:1044500044EA801084B2204670BD70B588B002A9CD
:1044600005A8FEF794FE0446072C3FD101A8FEF7ED
:1044700007F9059802F0BAF80646019902F016F914
:10448000054602F077F80590069802F0AFF8064668
:10449000019902F00BF9054602F06CF806900798B6
:1044A00002F0A4F80646019902F000F9054602F070
:1044B00061F8079005A8FFF77AF96846FEF7FDF85E
:1044C000BDF80010029848430290BDF80010039810
:1044D00048430390BDF8001004984843049002A894
:1044E000FFF7F8F9FDA000F0BDFB00BF08B070BDFC
:1044F0002DE9F04304460D46DDE907670021012060
:1045000041E0DFF8FCC33CF81080A0F1010CDFF8BB
:10451000F09329F81C8009F1160C3CF81090A0F1DA
:10452000010CDFF8DC8308F1160828F81C9008F16C
:10453000160C3CF81090A0F1010C08F1160828F8B0
:104540001C9008F1160C3CF81090A0F1010C08F139
:10455000160828F81C9008F1160C3CF81090A0F1F1
:10456000010C08F1160828F81C9008F1160C3CF80C
:104570001090A0F1010C08F1160828F81C9000F129
:10458000010C0CF0FF000A28BBDBDFF874C3ACF8A9
:104590001240ACF82850ACF83E20ACF85430ACF8DF
:1045A0006A60ACF880700021002008E0DFF850C39A
:1045B0003CF910C0614400F1010C0CF0FF000A2826
:1045C000F4DB4FF00A0C91FBFCFC0FFA8CFCDFF8DB
:1045D0003083A8F814C0002100200AE0DFF820C3CF
:1045E0000CF1160C3CF910C0614400F1010C0CF008
:1045F000FF000A28F2DB4FF00A0C91FBFCFC0FFADB
:104600008CF8DFF8FCC2ACF82A80002100200AE018
:10461000DFF8ECC20CF12C0C3CF910C0614400F145
:10462000010C0CF0FF000A28F2DB4FF00A0C91FBA2
:10463000FCFC0FFA8CF8DFF8C8C2ACF8408000210F
:1046400000200AE0DFF8B8C20CF1420C3CF910C0BF
:10465000614400F1010C0CF0FF000A28F2DB4FF07E
:104660000A0C91FBFCFC0FFA8CF8DFF894C2ACF852
:104670005680002100200AE0DFF884C20CF1580CBB
:104680003CF910C0614400F1010C0CF0FF000A2855
:10469000F2DB4FF00A0C91FBFCFC0FFA8CF8DFF810
:1046A00060C2ACF86C80002100200AE0DFF850C244
:1046B0000CF16E0C3CF910C0614400F1010C0CF0DF
:1046C000FF000A28F2DB4FF00A0C91FBFCFC0FFA0A
:1046D0008CF8DFF82CC2ACF88280BDE8F08338B5E6
:1046E0000446032302226B21D0200094FCF709FE2C
:1046F00038BD38B50446022304221B21D020009483
:10470000FCF7FFFD38BD38B50446022304221C2106
:10471000D0200094FCF7F5FD38BD10B504462346C3
:1047200006226B21D020FCF721FE10BD10B5754B81
:1047300001227521D020FCF76DFD7248007810BD74
:1047400010B5FFF7F3FF682801D1012010BD00204C
:10475000FCE710B50446234605226A21D020FCF769
:1047600005FE10BD10B50446234601223721D02096
:10477000FCF7FCFD10BD10B50220FFF7B0FF0320D1
:10478000FFF7B7FF0020FFF7BEFF0020FFF7C5FFD0
:104790000020FFF7DEFF0020FFF7E4FF10BD38B573
:1047A000002000906B46012275216820FCF7D4FCA4
:1047B00055A000F057FA9DF8000068280ED000BF01
:1047C0005A48006800F4E06059490843001D574901
:1047D0000860BFF3408F00BF00BFFEE7FDF75DFC40
:1047E00000283CD17820FDF7C0F810B946A000F0B1
:1047F00039FA7820FDF7A0FA10B94EA000F032FA8D
:10480000C820FDF77AFB10B954A000F02BFAFEF790
:1048100033FF10B95BA000F025FA6748FFF709FEE7
:104820000446FEF733FF10B964A000F01BFA40F213
:104830007310FFF76CFB10B96AA000F013FAC820E0
:10484000FFF7DEF810B971A000F00CFAFFF705FED3
:104850000120FEF757FC10B975A000F003FA38BD2F
:104860002DE9F04F8DB00AA87A490BAB06AACDE925
:10487000001079497948FFF7A9FC7648008810F4C0
:10488000807F2AD0069801F0B1FE04464FF09D418A
:1048900001F07AFD72490860079801F0A7FE04460E
:1048A0004FF09D4101F070FD6E490860089801F0DD
:1048B0009DFE04464FF09D4101F066FD6A49086087
:1048C000099801F093FE04464FF09D4101F05CFD14
:1048D0006649086062480168CAE04DE17365747416
:1048E000696E6720626961732073756363657366BF
:1048F000756C6C79202E2E2E2E2E2E0D0A000000A7
:10490000AE040020A00400206D70755F7365745FB5
:1049100073656E736F7220636F6D706C6574652064
:104920002E2E2E2E2E2E0D0A000000000CED00E083
:104930000000FA056D70755F636F6E66696775726A
:10494000655F6669666F20636F6D706C6574652066
:104950002E2E2E2E2E2E0D0A000000006D70755F7B
:104960007365745F73616D706C655F7261746520EF
:10497000636F6D706C657465202E2E2E2E2E2E0D9D
:104980000A000000646D705F6C6F61645F6D6F742E
:10499000696F6E5F6472697665725F6669726D7762
:1049A00061726520636F6D706C657465202E2E2EAC
:1049B0002E2E2E0D0A00000068000020646D705F2E
:1049C0007365745F6F7269656E746174696F6E2070
:1049D000636F6D706C657465202E2E2E2E2E2E0D3D
:1049E0000A000000646D705F656E61626C655F66F1
:1049F00065617475726520636F6D706C6574652098
:104A00002E2E2E2E2E2E0D0A00000000646D705FDB
:104A10007365745F6669666F5F7261746520636F4A
:104A20006D706C657465202E2E2E2E2E2E0D0A00B4
:104A30006D70755F7365745F646D705F73746174BE
:104A40006520636F6D706C657465202E2E2E2E2E82
:104A50002E0D0A00840000207E0000207800002037
:104A6000580000205C00002060000020640000204E
:104A70004FF0804001F01AFE04905C4801680498F1
:104A800001F014FE82465A4801684FF0404001F0A0
:104A90000DFE049057480168049801F007FE834614
:104AA000514601F003FC059001F0D4FB804600F074
:104AB00087FB06464FF066324F4B01F0F1F8044693
:104AC00000F0B4FE4D490860484801684FF080404E
:104AD00001F0ECFD019045480168019801F0E6FD08
:104AE0008246434801684FF0404001F0DFFD0190ED
:104AF0003F480168019801F0D9FD8346514601F015
:104B0000DDFE81464FF07E5101F0D0FB044601F0FE
:104B1000A1FBCDE904013A4801684FF0804001F063
:104B2000C5FD834632480168584601F0BFFD814605
:104B30002E4801684FF0804001F0B8FD83462D48B3
:104B40000168584601F0B2FD8246494601F0AEFBCD
:104B5000044601F07FFBCDE90201DDE9042300F00A
:104B60007FFD07464FF06632234B01F099F805466A
:104B700000F05CFE234908600DB0BDE8F08F2DE920
:104B8000F05F4221D020FCF722FB05464121D020D6
:104B9000FCF71DFB05EB0024204601F027FD8246B3
:104BA0004FF08E41504601F04DFE05D24FF08F413F
:104BB000504601F083FE82461349504601F0E4FB63
:104BC000834601F047FB8046104A114B00F060FE1F
:104BD000064600220F4B01F063F8044600F026FE63
:104BE0008246504601F0C6FCBDE8F09F6000002000
:104BF0005C0000206400002066A64C408800002075
:104C0000580000208C0000200000AA43A4703D0A38
:104C1000D743424000002440704710B54C1084EA4E
:104C2000530404D54042C1F1000138BF491E1B4264
:104C300004D55242C3F1000338BF5B1E00F0C6F832
:104C400014F0804F04D04042C1F1000138BF491E2A
:104C500014F0004F04D05242C3F1000338BF5B1E72
:104C600010BD00000FB4044910B503AA029800F06B
:104C70008BF910BC5DF814FB1C0000202DE9F041FD
:104C80000E460446002020622046E168884730B383
:104C9000252805D0D4E901219047206A401CF2E77D
:104CA000E168204600278847050018D0A5F141009B
:104CB000192802D820354FF400673246294620468D
:104CC0002760FBF74DFA40B1012804D0F61D26F00D
:104CD00007060836D8E7361DD6E72846DAE7206A01
:104CE000BDE8F0812DE9F0410646002410687529E1
:104CF000314616A511D0AFF30080002803DAC0F1C9
:104D0000000013A507E031688A0701D511A502E06C
:104D1000490704D510A5012401E0AFF3008000216C
:104D20000A2306F1240707E0B0FBF3F203FB1200AD
:104D3000303078541046491C0028F5D123462A46C5
:104D40003046BDE8F04100F0C3B8000000000000AC
:104D50002D0000002B0000002000000040EA0103AD
:104D600010B59B070FD1042A0DD310C808C9121F14
:104D70009C42F8D020BA19BA884201D9012010BD4E
:104D80004FF0FF3010BD1AB1D30703D0521C07E01B
:104D9000002010BD10F8013B11F8014B1B1B07D17F
:104DA00010F8013B11F8014B1B1B01D1921EF1D1F0
:104DB000184610BD02F0FF0343EA032242EA024212
:104DC00000F0F6B8704770477047704753EA020C1E
:104DD00000F069802DE9F04B4FF00006002B1FBF5B
:104DE000B3FA83F503FA05F424FA05F65E4012BF20
:104DF0001643B2FA82F502FA05F4C5F120051EBF8A
:104E000022FA05FC44EA0C04203556EA044C4FEA29
:104E1000144418BF641C4FF000084FF00009904282
:104E200071EB030C39D3002919BFB1FA81F701FAEC
:104E300007F6B0FA80F700FA07F6C7F120071EBFA1
:104E400020FA07FC46EA0C062037B6FBF4FCA7EB79
:104E50000507103F07F01F0BCBF120060CFA0BFBE8
:104E60002CFA06F644BFB3460026202FA4BF5E46A8
:104E70004FF0000B5BEA060C08BF4FF0010B19EB7B
:104E80000B09ABFB027C48EB0608C01B06FB02CCFF
:104E90000BFB03CC71EB0C01C1E70B46024641460C
:104EA0004846BDE8F08B13B54FF000004FF000010D
:104EB000AFF30080BDE81C40704710B500F098F8D3
:104EC000006810BD10B5044600F092F8046010BDF3
:104ED0002DE9F0470D4699469246044600F1240814
:104EE0000168880604D5E06921F01001216000E026
:104EF0000120A84202DDA0EB050700E00027A16920
:104F000007EB050202EB0900A1EB0000A06120788D
:104F1000C00602D42046AFF30080002608E0D4E9A2
:104F200001211AF806009047206A401C761C206276
:104F30004E45F4DB2078C0060AD52046AFF300804A
:104F400006E0D4E9012130209047206A401C20620D
:104F5000381EA7F10107F4DC07E0D4E9012118F8B5
:104F600005009047206A401C2062281EA5F101051B
:104F7000F3DC2046AFF300802078000602D5022043
:104F8000BDE8F0870120FBE7074B70B50D467B4479
:104F900000F037F80446284600F046F810B14FF00C
:104FA000FF3070BD204670BD25B6FFFF4FF00002F8
:104FB0000429C0F0128010F0030C00F03B80CCF10B
:104FC000040CBCF1020F18BF00F8012BA8BF20F899
:104FD000022BA1EB0C0100F02DB85FEAC17C24BFCD
:104FE00000F8012B00F8012B48BF00F8012B704797
:104FF000004870473405002001694A1C02610878A6
:10500000704700B58FB0CDE9013100210591054908
:105010007944CDE9031011466846FFF72FFE0FB023
:1050200000BD0000E5FFFFFF007B00F0800070473F
:105030004FF0000200B5134694469646203922BF31
:10504000A0E80C50A0E80C50B1F12001BFF4F7AF7C
:10505000090728BFA0E80C5048BF0CC05DF804EB5E
:10506000890028BF40F8042B08BF704748BF20F8CC
:10507000022B11F0804F18BF00F8012B7047000081
:1050800000487047340500207546FFF7F9FFAE462B
:1050900005006946534620F00700854618B020B544
:1050A000FBF788F8BDE820404FF000064FF00007FE
:1050B0004FF000084FF0000B21F00701AC46ACE8C0
:1050C000C009ACE8C009ACE8C009ACE8C0098D462D
:1050D00070470446AFF300802046FBF753F84900C1
:1050E00050EAC12018BF04204A0D18BF40F001004B
:1050F00040F2FF72B2EB515F08BF40F0020001289E
:1051000008BF052070472DE9F0414F1E00EBC70195
:105110000446D1E9000115461E4637F006020DD0BF
:105120002A46334600F0BCFD7F1E04EBC703D3E9DB
:10513000002300F0ADFB37F00602F1D1022F25D09D
:10514000042F13D0062F18BFBDE8F0812A4633463E
:1051500000F0A6FDD4E90A2300F09AFB2A46334664
:1051600000F09EFDD4E9082300F092FB2A46334666
:1051700000F096FDD4E9062300F08AFB2A46334668
:1051800000F08EFDD4E9042300F082FB2A4633466A
:1051900000F086FDD4E9022300F07AFB2A4633466C
:1051A00000F07EFDD4E90023BDE8F04100F070BBC3
:1051B000024A0020110701F028BC000001FDFFFF9A
:1051C0002DE9F04D904F21F0004A86B005460C467F
:1051D000BA4530DBAAEB070028430CD08B48824548
:1051E00001DC1CD1DDB106B02846BDE8F04D4FF022
:1051F000010201F00ABC864A864B284600F050FDA9
:1052000007460E46844A854B2846214600F048FD55
:1052100006B03A463346BDE8F04D00F039BB0120F8
:10522000FFF750FE06B00022BDE8F04D13461046D1
:10523000114600F0DDBB7A48824542DABAF1795F67
:105240000BDA2846FFF74BFF042808BFFFF7B0FF33
:10525000284606B02146BDE8F08D2A460B4610468A
:1052600000F01EFD834602466E480E460B460621A0
:105270007844FFF748FF5A46334600F011FD804658
:1052800069488A465A46334604217844FFF73BFF73
:105290005A46334600F004FD00223B4600F0F8FA7F
:1052A00002460B464046514600F0A2FB2A462346E2
:1052B00000F0F6FC06B02A462346BDE8F04D00F0AB
:1052C000E7BA284624F0004100223D463B4600F064
:1052D000E5FD4FF0FF3201F098FB064602465348C9
:1052E0000F460B4606217844FFF70DFF32463B463A
:1052F00000F0D6FCCDE900014D4832463B46042182
:105300007844FFF700FF32463B4600F0C9FC00221C
:105310002B4600F0BDFA834602913046394600F034
:105320005FFA804643480D46504517DCDDE9000131
:105330005A46029B00F05CFB42462B4600F0B0FC54
:1053400042462B4600F0A4FA012201F05EFB304AEF
:10535000304B00F095FE304A304B4CE04FF0000AE5
:1053600052460B46404600F093FACDE903105246F0
:105370002B461046194600F093FC32463B4600F09F
:105380008DFDDDE9033200F033FB06460F46DDE913
:1053900000015A46029B00F02BFB8346009101223C
:1053A0003046394601F031FB194A1A4B00F076FDC0
:1053B00006460F4601224046294601F026FB5A4682
:1053C000009B00F06DFC32463B4600F059FE07465C
:1053D0000E4601225046294601F017FB0E4DDFF81C
:1053E00058802A46434600F059FD3A46334600F0BD
:1053F00055FD2A46434600F051FD002CD8BF81F0F0
:10540000004106B0BDE8F08D0000F03F0000F07FE5
:10541000075C143326A6913C182D4454FB21F93F18
:105420000000E03F1C2F0000322F0000A62E0000DD
:10543000BC2E00003333EF3FFB21E93F2DE9F84F4D
:1054400004460D4621F0004000917449814213DC6E
:105450007349884201DC08D13CB120462946BDE8A9
:10546000F84F4FF0010201F0D0BA6E48002DCCBFCA
:105470006D496E49BDE8F88F6D49814211DD6D4976
:105480008142D8BF4FF0FF366DDD20462946FFF739
:1054900026FE042808BFFFF78BFE20462946BDE8FC
:1054A000F88F6549654F25F00045814233DD644939
:1054B000814219DD002632464FF0804320462946BE
:1054C00000F0E6F980468A4601222046294601F08E
:1054D0009CFA00223B4600F0D3FD4246534600F0C2
:1054E00087FA04460D463EE001260022BA463B46B6
:1054F0002046294600F0CCF980460F46002253464C
:105500002046294600F0BCFD42463B4600F070FABA
:1055100004460D4627E04B4981421BDDDFF8288118
:105520000226002243462046294600F0B9FB00220D
:105530003B4600F0ADF907468A4600224346204626
:10554000294600F09DFD3A46534600F051FA0446C4
:105550000D4608E0032622462B4600203B4900F07A
:1055600047FA04460D4622462B461046194600F0DF
:1055700097FB8B46824602460B4600F091FB07469E
:105580000246334888460B4606217844FFF7BBFDA8
:1055900052465B4600F084FB82462E488B463A46D4
:1055A000434605217844FFF7AEFD3A46434600F0F6
:1055B00077FB02460B46002E504659460CDA00F0A7
:1055C00067F922462B4600F06BFB01B022462B46C2
:1055D000BDE8F04F00F062BC00F05AF922462B46BD
:1055E00000F05EFB1C4A7A4402EBC603D3E90023B9
:1055F00000F046FD22462B4600F042FD174A7A4451
:1056000002EBC603D3E9002300F048FC009A002A0D
:10561000B8BF81F00041BDE8F88F000000001044E1
:105620000000F07F182D4454FB21F93FFB21F9BF06
:105630000000DC3F0000203E0000F33F0000F03F90
:105640000000E63F008003400000F83F0000F0BF8C
:10565000BA2C0000782C0000162C0000DE2B000075
:105660002DE9F04D9446CCF1000423F000464CEABD
:105670000404524F46EAD4749A46884621F0004208
:10568000BC4206D8454240EA050442EAD474BC4212
:1056900004D9BDE8F04D624600F0FAB8AAF14055D1
:1056A000A5F17F6555EA0C040BD0022404EAAA7424
:1056B000434DDFF810E144EAD87452EA000B04D0FD
:1056C0000CE0BDE8F04DFFF7B9BE002C14BF012C73
:1056D000BDE8F08D022C30D0032C32D056EA0C0BF2
:1056E0000AD0BE4220D1BA4209D126F0804622F02B
:1056F00080423346114617E000291ADB25E0DFF827
:10570000C8B0FB44002C04BFDBE90001BDE8F08D0C
:10571000012C02BFDBE9000181F00041BDE8F08D02
:10572000022C0AD0032C0CD0BA4212D1B8F1000FCF
:105730000BDA23482549BDE8F08D28462449BDE809
:10574000F08D28467146BDE8F08D1D482149BDE821
:10575000F08D921B12153C2AC4BF19481D490EDC5E
:10576000BAF1000FBEBF12F13C0F0020014606DB6C
:10577000624600F03DF921F00041FFF75FFE002C8A
:1057800008BFBDE8F08D012C04BF81F00041BDE8E9
:10579000F08D114A114B022C07D000F071FC2A4603
:1057A000BDE8F04D0A4B00F06BBC00F069FC2A46E6
:1057B000BDE8F04D064B00F071BB00000000F07F2B
:1057C000182D4454FB2109C0722B0000FB21F9BFA6
:1057D000FB210940FB21F93F075C143326A6A13CBD
:1057E0002DE9F04106460F4600F064FB04000D462B
:1057F00018BF0120284320F00040C0F17F6000F175
:10580000E040C00F0ED0301C18BF0120384320F0FC
:105810000040C0F17F6000F1E040C00F04BF0120F4
:10582000FFF750FB20462946BDE8F08121F00042F9
:10583000A2F16052B2F5801F01F0004328BFD2F1FF
:105840007F6C0BD95FEA001C43EAC20242EB507046
:1058500018BF704728BF20F001007047B2F5801FC5
:10586000BCBF184670474FEA410C1CF5001F02D21E
:10587000084600F0E2BF70B500F0BCFA00000089F5
:10588000FFF7F6BF4FF00040A0F580007047000022
:1058900010B591EA030F48BF83F0004300F1F8838D
:1058A000841A71EB030C05D2121943EB0C03001B95
:1058B00061EB0C01DFF824E14FEA1154A4EB135C17
:1058C0001EEA430F18BF9EEA445F73D023EA0E031B
:1058D000DCF1200E21EA045143F4801332D322FA82
:1058E0000CFE10EB0E0023FA0CFE41EB0E01CCF186
:1058F000200E03FA0EFE10EB0E0051F10001B1F57F
:10590000801FCCF1200E32D201EB045112FA0EF2BC
:10591000BDE8104058BF7047401C38BF5FEA4202E4
:1059200018BF7047002814BF20F0010041F10001AA
:105930004FEA410313F5001F38BF7047A1F1C04182
:1059400000F0A6BA012A43EB0302ACF1200CDCF113
:105950001F0E32BF4FF0000E23FA0CF310EB0300C2
:1059600041EB0451B4EB115FD0D0A1EB045101F530
:10597000801149085FEA300001EB04510ED350F169
:10598000000038BF12FA0EFE08D1BDE81040C9E78A
:10599000401C38BF5FEA4202CAD1C3E7BDE81040ED
:1059A0004FEA410313F5001F38BF7047A1F1C04112
:1059B00000F06EBA9EEA445F08D011EA5E0FBDE8BF
:1059C000104004BF01F0004100207047BDE81040C6
:1059D00070B500F00FFA00BF64FBBE3E0000E0FFB0
:1059E00002494FF0000000F0DEBF00BF0000F87F6A
:1059F0002DE9C04130B4DFF8A0C23CEA111418BF51
:105A00003CEA131400F0EC8081EA03051CEA11144F
:105A100044EAD57418BF1CEA131500F0C780A4EB44
:105A200005044FF0004545EAC12145EAC32341EA98
:105A3000505143EA525304F17F74994204F5003403
:105A40004FEAC0204FEAC22208BF904200F09C807B
:105A50004FEA13650FF24016765D4FEA134506FBD9
:105A600005F7C7F1807706FB07F74FEAD737A7FBA3
:105A700003687642C8F58038A7FB06CE38BFA8F188
:105A8000010807FB08E64FF0000EA6FB028CE6FBC0
:105A900003CEDCF1000CCEF1004E38BFAEF1010EAA
:105AA000A6FB0C584FF000074FF00005E6FB0E87F1
:105AB000A1FB08C6A0FB07CE16EB0E0645F10005BC
:105AC000E1FB076515F1E04E7EBFA4F580345FEA87
:105AD00046066D4116F1800745F100054FEA17278C
