:020000040800F2
:1000000060080020B1010008AB090008AD09000834
:10001000B1090008B5090008B9090008000000008E
:10002000000000000000000000000000BF09000800
:10003000BD09000800000000C1090008C30900084C
:10004000C5090008C7090008C9090008CB0900084C
:10005000CD090008CF090008D1090008D30900081C
:10006000D5090008D7090008D9090008DB090008EC
:10007000DD090008DF090008E1090008E3090008BC
:10008000E5090008E7090008E9090008EB0900088C
:10009000ED090008EF090008F1090008F30900085C
:1000A000F5090008F7090008F9090008FB0900082C
:1000B000FD090008FF090008010A0008030A0008FA
:1000C000050A0008070A0008090A00080B0A0008C8
:1000D0000D0A00080F0A0008110A0008130A000898
:1000E000150A0008170A0008190A00081B0A000868
:1000F0001D0A00081F0A0008210A0008230A000838
:10010000250A0008270A0008290A00082B0A000807
:100110002D0A00082F0A0008310A0008330A0008D7
:10012000350A0008370A0008390A00083B0A0008A7
:1001300000F002F800F02CF80AA090E8000C8244CD
:100140008344AAF10107DA4501D100F021F8AFF2AA
:10015000090EBAE80F0013F0010F18BFFB1A43F0A5
:10016000010318471C0B00002C0B00000023002487
:1001700000250026103A28BF78C1FBD8520728BFB7
:1001800030C148BF0B6070471FB51FBD10B510BD13
:1001900000F035FD1146FFF7F7FF00F0B0FC00F06E
:1001A00053FD03B4FFF7F2FF03BC00F057FD00005E
:1001B0000348004703480449044A054B70470000C0
:1001C0003101000860000020600800206004002069
:1001D000600400201049096801F038010E4A1160DE
:1001E000114609680143116070470B49096821F005
:1001F0000801094A116011460968014311607047FE
:100200000549096821F01001034A11601146096887
:1002100001431160704700000020024010B5044601
:10022000C549601A8C422FD009DCC448201810D070
:10023000B0F5806F16D0B0F5006F4AD11BE0B0F575
:10024000806F2AD0B0F5006F30D0B0F5406F40D14C
:1002500035E00121042000F0F9FA0021042000F02B
:10026000F5FA37E00121082000F0F0FA002108201B
:1002700000F0ECFA2EE00121102000F0E7FA002156
:10028000102000F0E3FA25E00121202000F0DEFA42
:100290000021202000F0DAFA1CE00121402000F0CB
:1002A000D5FA0021402000F0D1FA13E0012180208E
:1002B00000F0CCFA0021802000F0C8FA0AE0012109
:1002C000080200F0C3FA00214FF4807000F0BEFA7B
:1002D00000E000BF00BF10BD10B50121084600F0CE
:1002E000B5FA0021012000F0B1FA10BD2DE9F0416E
:1002F000024600250026002000230024002791F854
:1003000003C00CF00F0591F803C01CF0100F03D0D0
:1003100091F802C04CEA050591F800C0BCF1000F4D
:1003200031D0146800202BE04FF0010C0CFA00F3E0
:10033000B1F800C00CEA03069E4220D183004FF0C2
:100340000F0C0CFA03F7BC4305FA03FC4CEA040457
:1003500091F803C0BCF1280F06D14FF0010C0CFA44
:1003600000FCC2F814C00AE091F803C0BCF1480FC9
:1003700005D14FF0010C0CFA00FCC2F810C0401C73
:100380000828D1D31460B1F800C0BCF1FF0F34DDF0
:10039000546800202EE000F1080C4FF0010808FA24
:1003A0000CF3B1F800C00CEA03069E4221D1830091
:1003B0004FF00F0C0CFA03F7BC4305FA03FC4CEAB0
:1003C000040491F803C0BCF1280F05D100F1080C1A
:1003D00008FA0CF8C2F8148091F803C0BCF1480F79
:1003E00007D100F1080C4FF0010808FA0CF8C2F828
:1003F0001080401C0828CED35460BDE8F0814FF631
:10040000FF710180022181700421C1707047024692
:10041000002093680B4201D0012000E000207047CB
:100420000146886880B2704702460020D3680B42BC
:1004300001D0012000E0002070470146C86880B26A
:10044000704701617047416170470AB1016100E086
:1004500041617047C16070474FF480320A43826146
:100460008161826182698269704702460020344B53
:1004700018684FF68073184040EA02100843304B6A
:10048000186070472F49C8617047F0B50A460023CD
:100490000024002100252A4E7168C0F3034583B271
:1004A00000F44016B6F5401F08D121F07061244ECB
:1004B000766826F07066224F7E6012E000F48016A7
:1004C000B6F5801F06D1032606FA05F4A14341F0D4
:1004D000706106E0460D360103FA06F6B14341F0BD
:1004E000706122B1460D360103FA06F63143144E0F
:1004F0007160F0BD30B500228B071C0F0F2303FA8B
:1005000004F20F4B08338C1053F8243093430C4CF7
:1005100008348D1044F8253023468C1053F82430CD
:100520008C07240F00FA04F42343054C08348D1083
:1005300044F8253030BD00000014014000F8FEBF33
:100540000000014000002042DC48006840F001004B
:10055000DA49086008464068D9490840D7494860E8
:1005600008460068D7490840D44908600846006832
:1005700020F4802008600846406820F4FE004860AF
:10058000002088607047CD49096821F48031CB4A4A
:1005900011601146096821F480211160B0F5803F97
:1005A00003D0B0F5802F0ED106E0C449096841F4AC
:1005B0008031C24A116007E0C049096841F4A021B6
:1005C000BE4A116000E000BF00BF704710B5014691
:1005D0000022002300204A11012A02D1B74C2368CF
:1005E00006E0022A02D1B54C236A01E0B34C636AEB
:1005F00001F01F02012494401C4201D0012000E0C0
:10060000002010BD38B5002000900024002500BF58
:100610003120FFF7DBFF05460098401C00901DB914
:100620000098B0F5A06FF3D13120FFF7CFFF08B1EC
:10063000012400E00024204638BD014600209F4AE6
:10064000106820F0F80040EAC100106070479E4931
:100650000860704702460020984B586820F47C10D0
:1006600042EA01031843954B586070479649086663
:10067000704701460020914A506820F0030008436B
:10068000506070478D48406800F00C00704701468C
:1006900000208A4A506820F0F000084350607047FC
:1006A00001460020854A506820F4E060084350600D
:1006B000704701460020814A506820F4605040EAAB
:1006C000C1005060704729B17C4A527A02437B4B8B
:1006D0005A7204E0794A527A8243784B5A727047D0
:1006E0007A490860704701460020744A506820F437
:1006F00040400843506070470021754A11706F4AAE
:1007000082F82010012802D0042808D103E001213A
:100710006F4A117004E005216D4A117000E000BFBE
:1007200000BF70476B49086070476449096A01431C
:10073000624A11627047674944390860704730B5B2
:1007400000210022002400235C4D6D6805F00C019F
:1007500021B1042905D0082923D105E05E4D0560AB
:1007600022E05D4D05601FE0544D6D6805F4701288
:10077000022505EB9242514D6D6805F480341CB999
:10078000564D554305600BE04C4D6D6815F4003F28
:1007900003D0524D5543056002E04F4D554305606F
:1007A00002E04D4D056000BF00BF444D6D6805F08F
:1007B000F00109094A4D6B5C0568DD4045603F4D1D
:1007C0006D6805F4E061090A454D6B5C4568DD40E4
:1007D00085603A4D6D6805F46051C90A404D6B5C07
:1007E0004568DD40C560354D6D6805F44041890BB5
:1007F0003C4D6B5CC568B5FBF3F5056130BD29B1B7
:100800002E4A526902432D4B5A6104E02B4A526929
:1008100082432A4B5A61704729B1284A92690243A0
:10082000264B9A6104E0254A92698243234B9A61E0
:10083000704729B1214AD2690243204BDA6104E0B2
:100840001E4AD26982431D4BDA61704729B11B4AA7
:10085000D2680243194BDA6004E0184AD268824336
:10086000164BDA60704729B1144A12690243134BE0
:100870001A6104E0114A12698243104B1A617047F1
:1008800014494039086070470F49C86470470B49E4
:10089000C87170470948406A40F080700749486253
:1008A000704701460020054A92680A4201D00120A3
:1008B00000E0002070470149887270470010024034
:1008C0000000FFF8FFFFF6FE00004242D80042425F
:1008D000201002408004424200127A0000093D00CC
:1008E0006A0C00087A0C0008042808D14FF0E021B7
:1008F000096941F004014FF0E022116107E04FF077
:10090000E021096921F004014FF0E02211617047F4
:100910004FF0E02148617047012808D14FF0E021F5
:10092000096941F001014FF0E02211610EE0811CE4
:1009300008D14FF0E021096921F001014FF0E022D8
:10094000116103E000214FF0E0229161704740B156
:100950004FF0E021096941F002014FF0E0221161FE
:1009600007E04FF0E021096921F002014FF0E02299
:10097000116170474FF0E0208069704710B5014663
:10098000002200230020CB10022B03D14FF0E024E3
:10099000226902E04FF0E024E26901248C40144215
:1009A00001D0012000E0002010BD704700BFFEE72D
:1009B00000BFFEE700BFFEE700BFFEE770477047DD
:1009C000704770477047704770477047704770476F
:1009D000704770477047704770477047704770475F
:1009E000704770477047704770477047704770474F
:1009F000704770477047704770477047704770473F
:100A0000704770477047704770477047704770472E
:100A1000704770477047704770477047704770471E
:100A2000704770477047704770477047704770470E
:100A300070477047704770477047704710B56FF048
:100A40000100FFF769FF0420FFF74EFF0020FFF7CA
:100A500063FF6748FFF75CFF0120FFF75DFF10BDF4
:100A600008B50F20ADF8000048208DF80300694656
:100A70006048FFF73BFCF020ADF8000003208DF844
:100A8000020010208DF8030069465A48FFF72EFC3B
:100A900008BD10B5FFF758FD4FF48030FFF773FD28
:100AA000FFF7B0FD0446012C24D10020FFF7EFFD35
:100AB0000020FFF7ECFDA002FFF7E9FD0220FFF7A1
:100AC00089FB1020FFF79CFB4FF4E0112004FFF797
:100AD000C1FD0120FFF7CAFD00BF3920FFF776FDF9
:100AE0000028FAD00220FFF7C4FD00BFFFF7CAFDBF
:100AF0000828FBD101210420FFF78EFE10BD08B5A8
:100B000000200090FFF7C5FFFFF7AAFFFFF796FF51
:100B10006CE01020FFF732FF012867D13548FFF75E
:100B20007FFC00F00F00009024B1012C08D0022CB3
:100B30005BD154E0BDF800000F2800D0012454E040
:100B4000BDF80000002848D001212A48FFF75FFCCB
:100B500060B910212748FFF75AFCC0F10100C5B267
:100B60002A4610212348FFF770FC34E00221214877
:100B7000FFF74DFC60B920211E48FFF748FCC0F18B
:100B80000100C5B22A4620211A48FFF75EFC22E088
:100B900004211848FFF73BFC60B940211548FFF7D6
:100BA00036FCC0F10100C5B22A4640211148FFF7CA
:100BB0004CFC10E008210F48FFF729FC58B98021B0
:100BC0000C48FFF724FCC0F10100C5B22A46802181
:100BD0000848FFF73AFC022400E0002405E0BDF8D5
:100BE00000000F2800D1002400BF00BF91E70000E3
:100BF00000F91500000801407047704770477546BE
:100C000000F028F8AE4605006946534620F007007C
:100C1000854618B020B5FFF7CDFABDE820404FF06B
:100C200000064FF000074FF000084FF0000B21F0D6
:100C30000701AC46ACE8C009ACE8C009ACE8C009A3
:100C4000ACE8C0098D4670470446AFF300802046EB
:100C5000FFF7A7FA0048704700000020014918205C
:100C6000ABBEFEE726000200704700000000010254
:100C70000304010203040607080902040608000031
:100C8000900C000800000020600800006C010008C3
:0400000508000131BD
:00000001FF
