:020000040800F2
:1000000008040020C1010008991100089B11000894
:100010009F110008A3110008A711000800000000AC
:10002000000000000000000000000000AD1100080A
:10003000AB11000800000000AF110008B11100086A
:10004000B3110008B5110008B7110008C911000864
:10005000CB110008CD110008CF110008D111000804
:10006000D3110008D5110008D7110008D9110008D4
:10007000DB110008DD110008DF110008E1110008A4
:10008000E3110008E5110008E7110008E911000874
:10009000EB110008ED110008EF110008F111000844
:1000A000F3110008F5110008F7110008F911000814
:1000B000FB110008FD110008FF11000801120008E3
:1000C00003120008051200080712000809120008B0
:1000D0000B1200080D1200080F1200081112000880
:1000E0001312000815120008171200081912000850
:1000F0001B1200081D1200081F1200082112000820
:1001000023120008251200082712000829120008EF
:100110002B1200082D1200082F12000831120008BF
:10012000331200083512000837120008391200088F
:10013000DFF80CD001F082FB004800478D15000865
:100140000804002030BF704720BF704740BF704791
:10015000BFF36F8F7047BFF34F8F7047BFF35F8F51
:10016000704701DF7047EFF31480704780F3148805
:10017000BFF36F8F7047EFF30980704780F30988F2
:100180007047EFF30880704780F30888704762B6C5
:10019000704772B67047EFF31080704771B67047C2
:1001A00061B67047EFF31380704780F31188704792
:1001B000EFF31280704740BA704700BA70470000F2
:1001C00000480047310100081049096801F0380172
:1001D0000E4A1160114609680143116070470B49CE
:1001E000096821F00801094A1160114609680143B4
:1001F000116070470549096821F01001034A116038
:100200001146096801431160704700000020024058
:1002100010B50446C549601A8C422FD009DCC44889
:10022000201810D0B0F5806F16D0B0F5006F4AD10D
:100230001BE0B0F5806F2AD0B0F5006F30D0B0F57C
:10024000406F40D135E00121042000F0F9FA00218F
:10025000042000F0F5FA37E00121082000F0F0FA60
:100260000021082000F0ECFA2EE00121102000F01F
:10027000E7FA0021102000F0E3FA25E00121202018
:1002800000F0DEFA0021202000F0DAFA1CE0012163
:10029000402000F0D5FA0021402000F0D1FA13E010
:1002A0000121802000F0CCFA0021802000F0C8FA63
:1002B0000AE00121080200F0C3FA00214FF4807027
:1002C00000F0BEFA00E000BF00BF10BD10B5012174
:1002D000084600F0B5FA0021012000F0B1FA10BD87
:1002E0002DE9F041024600250026002000230024CD
:1002F000002791F803C00CF00F0591F803C01CF023
:10030000100F03D091F802C04CEA050591F800C027
:10031000BCF1000F31D0146800202BE04FF0010C2D
:100320000CFA00F3B1F800C00CEA03069E4220D19B
:1003300083004FF00F0C0CFA03F7BC4305FA03FCE3
:100340004CEA040491F803C0BCF1280F06D14FF029
:10035000010C0CFA00FCC2F814C00AE091F803C0CA
:10036000BCF1480F05D14FF0010C0CFA00FCC2F8AB
:1003700010C0401C0828D1D31460B1F800C0BCF1F3
:10038000FF0F34DD546800202EE000F1080C4FF020
:10039000010808FA0CF3B1F800C00CEA03069E420B
:1003A00021D183004FF00F0C0CFA03F7BC4305FA80
:1003B00003FC4CEA040491F803C0BCF1280F05D1FA
:1003C00000F1080C08FA0CF8C2F8148091F803C088
:1003D000BCF1480F07D100F1080C4FF0010808FAF2
:1003E0000CF8C2F81080401C0828CED35460BDE839
:1003F000F0814FF6FF710180022181700421C170EC
:1004000070470246002093680B4201D0012000E0B3
:10041000002070470146886880B27047024600207D
:10042000D3680B4201D0012000E000207047014654
:10043000C86880B2704701617047416170470AB176
:10044000016100E041617047C16070474FF4803244
:100450000A438261816182618269826970470246D2
:100460000020344B18684FF68073184040EA0210A1
:100470000843304B186070472F49C8617047F0B58A
:100480000A4600230024002100252A4E7168C0F38B
:10049000034583B200F44016B6F5401F08D121F0A1
:1004A0007061244E766826F07066224F7E6012E0FE
:1004B00000F48016B6F5801F06D1032606FA05F46F
:1004C000A14341F0706106E0460D360103FA06F6DD
:1004D000B14341F0706122B1460D360103FA06F6D0
:1004E0003143144E7160F0BD30B500228B071C0FF4
:1004F0000F2303FA04F20F4B08338C1053F8243007
:1005000093430C4C08348D1044F8253023468C104E
:1005100053F824308C07240F00FA04F42343054CCD
:1005200008348D1044F8253030BD0000001401401F
:1005300000F8FEBF0000014000002042DC480068D7
:1005400040F00100DA49086008464068D94908408F
:10055000D749486008460068D7490840D449086030
:100560000846006820F4802008600846406820F4AF
:10057000FE004860002088607047CD49096821F47A
:100580008031CB4A11601146096821F48021116045
:10059000B0F5803F03D0B0F5802F0ED106E0C449FE
:1005A000096841F48031C24A116007E0C049096816
:1005B00041F4A021BE4A116000E000BF00BF7047B7
:1005C00010B501460022002300204A11012A02D161
:1005D000B74C236806E0022A02D1B54C236A01E039
:1005E000B34C636A01F01F02012494401C4201D005
:1005F000012000E0002010BD38B50020009000244C
:10060000002500BF3120FFF7DBFF05460098401CA6
:1006100000901DB90098B0F5A06FF3D13120FFF71D
:10062000CFFF08B1012400E00024204638BD014678
:1006300000209F4A106820F0F80040EAC1001060D6
:1006400070479E490860704702460020984B5868E2
:1006500020F47C1042EA01031843954B5860704720
:1006600096490866704701460020914A506820F07C
:1006700003000843506070478D48406800F00C004C
:100680007047014600208A4A506820F0F000084375
:100690005060704701460020854A506820F4E060B1
:1006A00008435060704701460020814A506820F49A
:1006B000605040EAC1005060704729B17C4A527ACC
:1006C00002437B4B5A7204E0794A527A8243784B58
:1006D0005A7270477A490860704701460020744A90
:1006E000506820F440400843506070470021754A2C
:1006F00011706F4A82F82010012802D0042808D116
:1007000003E001216F4A117004E005216D4A117068
:1007100000E000BF00BF70476B4908607047644944
:10072000096A0143624A11627047674944390860A7
:10073000704730B500210022002400235C4D6D6815
:1007400005F00C0121B1042905D0082923D105E0C9
:100750005E4D056022E05D4D05601FE0544D6D6803
:1007600005F47012022505EB9242514D6D6805F4B7
:1007700080341CB9564D554305600BE04C4D6D68F7
:1007800015F4003F03D0524D5543056002E04F4D34
:100790005543056002E04D4D056000BF00BF444D6C
:1007A0006D6805F0F00109094A4D6B5C0568DD4094
:1007B00045603F4D6D6805F4E061090A454D6B5C8D
:1007C0004568DD4085603A4D6D6805F46051C90AA1
:1007D000404D6B5C4568DD40C560354D6D6805F486
:1007E0004041890B3C4D6B5CC568B5FBF3F5056179
:1007F00030BD29B12E4A526902432D4B5A6104E0A3
:100800002B4A526982432A4B5A61704729B1284AC0
:1008100092690243264B9A6104E0254A9269824319
:10082000234B9A61704729B1214AD2690243204B78
:10083000DA6104E01E4AD26982431D4BDA617047D7
:1008400029B11B4AD2680243194BDA6004E0184A06
:10085000D2688243164BDA60704729B1144A126994
:100860000243134B1A6104E0114A12698243104B90
:100870001A61704714494039086070470F49C864CD
:1008800070470B49C87170470948406A40F0807052
:1008900007494862704701460020054A92680A42AB
:1008A00001D0012000E000207047014988727047A4
:1008B000001002400000FFF8FFFFF6FE0000424279
:1008C000D8004242201002408004424200127A00C6
:1008D00000093D003E1D00084E1D000810B5012016
:1008E000FFF7C8FF0020FFF7C5FF10BD22490860D1
:1008F00070472149091F086070471F49843108600B
:100900007047014600201D4A10884FF67F42104074
:1009100008431A4A1080704701460020174A108881
:100920004FF6807210400843144A10807047134AF3
:100930002C3A81527047014610482C38085A7047AB
:100940000D489C300068C0B270470C4808300088E1
:1009500040F0010009490831088070470648A0307E
:100960000068C0B2704705480830008840F00200B7
:10097000024908310880704704860D422C6C004003
:100980000020411EEE4A11606FF07042ED49C1F83F
:1009900084204FF0FF314FF0E022C2F880126FF058
:1009A0007042E9490A6000BF04E00022E74941F8CB
:1009B0002020401C0F28F8D3704700204FF0206102
:1009C000E34A11600021121D1160E249121D1160FD
:1009D0000021121D1160121D116000BF05E00022F0
:1009E000DB49143141F82020401C0328F7D30021B3
:1009F000D74A20321160491E121D1160121D11606C
:100A0000121D11607047D3490143D14A0832116069
:100A10007047F0B500210022002300250F24C6787E
:100A2000002E36D0CA4E0836366806F4E066C6F5A3
:100A3000E066310AC1F10405CC40467806FA05F1BA
:100A400086782640314309010678B607F60EB14094
:100A5000BE4E0778BF1056F827200678B607F70E67
:100A6000FF2606FA07F39A4319400A43B74E077860
:100A7000BF1046F82720067806F01F070126BE4063
:100A800007787F114FF0E02C0CEB8707C7F8006167
:100A90000BE0067806F01F070126BE40A84F90F82D
:100AA00000C04FEA6C1C47F82C60F0BD00210170BB
:100AB00041708170C170704710B5FFF76AFB10BDBF
:100AC00010B5FFF764FB10BD10B5FFF767FB10BD55
:100AD00010B5FFF765FB10BD10B504462001FFF708
:100AE00064FB10BD10B5FFF763FB10BD98480068AC
:100AF000C0F30930704710B501460020002201F014
:100B00001F04012303FA04F28D4B80334C1153F878
:100B100024301340934201D1012000E0002010BD99
:100B20008D490860704700F01F0201219140864AFC
:100B3000121F431142F82310704785480068C0F324
:100B40000900704710B501460020002201F01F0483
:100B5000012303FA04F27C4B7C334C1153F824300C
:100B60001340934201D1012000E0002010BD7848DD
:100B7000001F00687047794A0A400243744B1B1DEE
:100B80001A6070477348001D71490831086070474A
:100B90007048401C6E4908310860704739B16C4A92
:100BA0000C32126802436A4B0C331A6006E0684A42
:100BB0000C3212688243664B0C331A60704710B5D2
:100BC000002200F01F04012303FA04F239B1604B44
:100BD00020331B6813435E4C2034236006E05C4BDB
:100BE00020331B6893435A4C2034236010BDF0B56A
:100BF00003460C4615460020FF2200260021544FD4
:100C000008373F6807F4E067C7F5E067390AC1F1C4
:100C10000400CA4004FA00F105EA02073943090159
:100C200003F0C0008009C3F30122D700B9404FEAA6
:100C3000C20CFF2707FA0CF6454F143757F82070FF
:100C4000B743DFF80CC10CF1140C4CF82070674668
:100C500057F820700F434CF82070F0BD10B50246D5
:100C6000002000230021910A01F00F01012404FA61
:100C700001F1374C2034246804EA01038B4201D18E
:100C8000012000E0002010BD002100F01F01304ACB
:100C9000126801238B401A432D4B1A60704710B520
:100CA000002100F01F012A4A12684B1E01249C40BB
:100CB0002243274B1A6010BD10B5024600200023C6
:100CC0000021C2F38331012404FA01F1204C2034C5
:100CD000246804EA01038B4201D1012000E00020D6
:100CE00010BD30B50146002000220023C1F381422F
:100CF000C1F301531AB9164C2834206811E0012AB7
:100D00000CD1134C24342468DD0024FA05F0022BA6
:100D100002D000F00F0004E0C0B202E00C4C2C3412
:100D2000206830BD014600200022C1F380521AB96C
:100D3000074B3033186802E0054B343318687047AE
:100D400080E100E000E100E084E200E000E400E097
:100D500004ED00E00000FA0500EF00E080FFFF1F57
:100D600010B501210807FFF778FD00214FF08050F2
:100D7000FFF773FD10BD28490862704726490861D6
:100D8000704701460020254A106820F0E000084323
:100D90001060704722490860704770B505460E46DE
:100DA00000241E48046824F003042C4304601D48FA
:100DB000006840F004001B490860012E02D1FFF7D3
:100DC000C1F901E0FFF7C0F970BD10B51348006824
:100DD00040F00400114908600846006840F0020035
:100DE00008601048006840F004000E490860FFF7F2
:100DF000A9F910BD01460020084A52680A4201D0F4
:100E0000012000E0002070470449096841EA8001A0
:100E1000024A11607047000000000E42007000405E
:100E2000A0000E4210ED00E010B50446D749601A4C
:100E30008C422BD006DCD648201813D0B0F5806F3A
:100E400038D119E0B0F5806F2AD0B0F56C4F31D1B0
:100E500001218803FFF7F4FC00214FF48040FFF7E5
:100E6000EFFC28E001214804FFF7F7FC00214FF4D4
:100E70000030FFF7F2FC1EE001218804FFF7EDFCD3
:100E800000214FF48020FFF7E8FC14E00121C804A2
:100E9000FFF7E3FC00214FF40020FFF7DEFC0AE03F
:100EA00001210805FFF7D9FC00214FF48010FFF75E
:100EB000D4FC00E000BF00BF10BD2DE9F04786B0B4
:100EC00005460E460024A24600BF00BF00272F465D
:100ED0002C8A4CF6FF700440F08804432C82AC89C5
:100EE0004EF6F3100440B0883189084371890843F5
:100EF0000443AC81AC8A4FF6FF400440B089044300
:100F0000AC8201A8FFF715FCA248874202D1DDF8A8
:100F100010A001E0DDF80CA00AEBCA0000EB0A10FB
:100F200031688900B0FBF1F86420B8FBF0F00401EF
:100F30002009642101FB1089322000EB0910B0FB6D
:100F4000F1F000F00F0004432C8106B0BDE8F087FB
:100F50004FF41651016000218180C18001810C2174
:100F6000418100218181704710B502460020108A1E
:100F70004FF2FF0318400B884C8823438C8823438F
:100F8000CC8823431843108210BD0021018041808A
:100F90008180C180704721B1828942F400528281F0
:100FA00004E082894DF6FF731A4082817047F0B5E4
:100FB000034600240026002500201846C1F34214F1
:100FC00001F01F06012707FA06F5012C01D10C30AC
:100FD00004E0022C01D1103000E014301AB107688F
:100FE0002F43076002E00768AF430760F0BD1AB106
:100FF000838A0B43838202E0838A8B438382704718
:10100000028A4FF6F0731A400282028A0A43028271
:10101000704782894FF2FF731A40828182890A43A6
:101020008281704721B1828942F00202828104E00C
:1010300082894FF6FD731A4082817047028A4FF60B
:10104000DF731A400282028A0A430282704721B18A
:10105000028A42F48042028204E0028A4BF6FF7365
:101060001A4002827047C1F308028280704701462D
:101070008888C0F308007047818941F001018181AF
:101080007047028BD2B20283028B42EA01220283B2
:101090007047028B02F47F420283028B0A43028371
:1010A000704721B1828A42F02002828204E0828A63
:1010B0004FF6DF731A408282704721B1828A42F074
:1010C0001002828204E0828A4FF6EF731A40828215
:1010D000704721B1828A42F00802828204E0828A4B
:1010E0004FF6F7731A4082827047828A4FF6FB737D
:1010F0001A408282828A0A438282704721B1828AA0
:1011000042F00202828204E0828A4FF6FD731A40A6
:10111000828270470246002013880B4201D00120D2
:1011200000E000207047CA430280704770B5024655
:101130000B460024002100250020C3F3421503F0D4
:101140001F01012606FA01F1012D02D196893140D5
:1011500006E0022D02D1168A314001E0968A314024
:101160001C12012606FA04F41688344011B10CB1A1
:10117000012000E0002070BD10B5002200230A12FB
:1011800001249440A3B2DC43048010BD004C004015
:1011900000BCFFBF00380140704700BFFEE700BF42
:1011A000FEE700BFFEE700BFFEE7704770477047ED
:1011B00070477047704710B520A000F071FB00F039
:1011C0004FF8FFF7D0FB10BD70477047704770476E
:1011D0007047704770477047704770477047704757
:1011E0007047704770477047704770477047704747
:1011F0007047704770477047704770477047704737
:101200007047704770477047704770477047704726
:101210007047704770477047704770477047704716
:101220007047704770477047704770477047704706
:101230007047704770477047704700000D0A2041A3
:101240002074616D706572206576656E74206973B7
:1012500020636F6D696E672121200D0A0000000078
:1012600010B5F4A000F01CFB0420FFF764FB04465B
:101270002146F7A000F014FB0820FFF75CFB0446B2
:101280002146F7A000F00CFB0C20FFF754FB0446AE
:101290002146F7A000F004FB1020FFF74CFB0446AA
:1012A0002146F7A000F0FCFA1420FFF744FB0446A7
:1012B0002146F7A000F0F4FA1820FFF73CFB0446A3
:1012C0002146F7A000F0ECFA1C20FFF734FB04469F
:1012D0002146F7A000F0E4FA2020FFF72CFB04469B
:1012E0002146F7A000F0DCFA2420FFF724FB044697
:1012F0002146F7A000F0D4FA2820FFF71CFB044693
:101300002146F7A000F0CCFA10BD10B504462146E6
:101310000420FFF70CFBF64800885A3081B2082001
:10132000FFF705FBF248001D00885A3081B2082003
:10133000FFF7FDFAEE48083000883C3081B2082003
:10134000FFF7F5FAEA480C300088801D81B20820CA
:10135000FFF7EDFAE64810300088783081B20820B7
:10136000FFF7E5FAE24814300088FF3081B2082028
:10137000FFF7DDFADE4818300088B43081B208206B
:10138000FFF7D5FADA481C3000881E3081B20820F9
:10139000FFF7CDFAD64820300088D43081B208203B
:1013A000FFF7C5FA10BD10B504460420FFF7C3FAD5
:1013B000A04201D0012010BD0820FFF7BCFACC49A3
:1013C00009885A31884201D00220F4E70C20FFF747
:1013D000B2FAC74909885A31884201D00320EAE7A6
:1013E0001020FFF7A8FAC24909885A31884201D073
:1013F0000420E0E71420FFF79EFABD4909885A311E
:10140000884201D00520D6E71820FFF794FAB849A2
:1014100009885A31884201D00620CCE71C20FFF70A
:101420008AFAB34909885A31884201D00720C2E7B5
:101430002020FFF780FAAE4909885A31884201D04E
:101440000820B8E72420FFF776FAA94909885A311D
:10145000884201D00920AEE72820FFF76CFAA449A2
:1014600009885A31884201D00A20A4E70020A2E767
:1014700010B50120FFF77FFCFFF767FA0120FFF7A7
:1014800035FA0120FFF739FA0120FFF732FA10BDD3
:101490001FB54FF4165000900020ADF80400ADF8D1
:1014A0000800ADF80C000C20ADF80A006946914820
:1014B000FFF703FD01218F48FFF76DFD1FBD08B544
:1014C00002208DF8000000208DF801008DF8020048
:1014D00001208DF803006846FFF79BFA08BD08B5A8
:1014E0004FF40070ADF8000018208DF803000320C1
:1014F0008DF8020069468048FEF7F2FE4FF48060E6
:10150000ADF8000004208DF8030069467A48FEF724
:10151000E7FE08BD10B5FFF711F84FF48030FFF774
:101520002CF8FFF769F80446012C24D10020FFF7BE
:10153000A8F80020FFF7A5F8A002FFF7A2F8022004
:10154000FEF742FE1020FEF755FE4FF4E011200496
:10155000FFF77AF80120FFF783F800BF3920FFF783
:101560002FF80028FAD00220FFF77DF800BFFFF720
:1015700083F80828FBD101214FF0C050FFF753F941
:10158000012144F20400FFF741F910BDFFF7C2FF4B
:10159000FFF7A5FFFFF793FFFFF77AFFFFF768FF5D
:1015A0004AF23C50FFF7FFFE40B954A000F078F932
:1015B0005DA000F075F9FFF753FE0DE05CA000F0B0
:1015C0006FF9FFF7C2F94AF23C50FFF79EFE61A0A7
:1015D00000F066F9FFF744FE00BFFEE710B50420F7
:1015E000FFF7A9F908B1012010BD0820FFF7A3F902
:1015F00008B10220F8E70C20FFF79DF908B103209D
:10160000F2E71020FFF797F908B10420ECE7142067
:10161000FFF791F908B10520E6E71820FFF78BF9ED
:1016200008B10620E0E71C20FFF785F908B1072084
:10163000DAE7ABE00A4E6F77207468652064617466
:101640006120696E20445278206172653A0D0A006B
:1016500044523120203D30782530345809000000B4
:1016600044523220203D30782530345809000000A3
:1016700044523320203D3078253034580900000092
:1016800044523420203D3078253034580900000081
:1016900044523520203D3078253034580900000070
:1016A00044523620203D307825303458090000005F
:1016B00044523720203D307825303458090000004E
:1016C00044523820203D307825303458090000003D
:1016D00044523920203D307825303458090000002C
:1016E000445231303D307825303458090000000034
:1016F000046C004000380140000801400D0A5468A5
:101700006520646174617320617265206173207467
:101710006865697220696E697469616C20737461AF
:101720007475732E200D0A000A0D0A0D00000000CA
:101730000D0A546865206461746173206861766580
:10174000206265656E206368616E6765642E200D9A
:101750000A0000000D0A5265636F76657220746896
:1017600065206461746173206F6620445258207450
:101770006F20746865697220696E697469616C2094
:101780007374617475732E200D0A00002020FFF71A
:10179000D2F808B1082027E72420FFF7CCF808B1D9
:1017A000092021E72820FFF7C6F808B10A201BE727
:1017B000002019E770B504460D46E1B20548FFF771
:1017C00052FC00BF40210348FFF7A4FC0028F9D0D9
:1017D000204670BD003801402DE9F05F054600202D
:1017E00092469B4688460646814640241BE0284692
:1017F00041464746224600F042F853465A46C01A30
:10180000914110D311461846224600F029F82D1AAE
:1018100067EB01084F4622460120002100F020F826
:1018200017EB00094E41201EA4F10104DFDC4846FD
:1018300031462A464346BDE8F09F0000064C074D5E
:1018400006E0E06840F0010394E807009847103490
:10185000AC42F6D3FEF770FC541D0008741D00085E
:10186000202A04DB203A00FA02F100207047914060
:10187000C2F1200320FA03F3194390407047202A55
:1018800004DB203A21FA02F00021704721FA02F32A
:10189000D040C2F120029140084319467047000031
:1018A0000FB4054B10B503A9044A029800F018F8CC
:1018B00010BC5DF814FB0000B51700080000002004
:1018C00002E008C8121F08C1002AFAD17047704709
:1018D000002001E001C1121F002AFBD17047000067
:1018E0002DE9FF4F8DB00F4605460026DEE1252885
:1018F00074D100246D1CF149A246A14601222B7827
:10190000203B02FA03F0084202D004436D1CF6E7C4
:1019100028782A2810D06FF02F022878A0F1300103
:10192000092915D80AEB8A0102EB410144F00204AF
:1019300000EB010A6D1CF0E757F804ABBAF1000F99
:1019400003DA44F40054CAF1000A44F002046D1CA6
:1019500028782E2817D115F8010F44F004042A28FE
:101960000ED06FF02F022878A0F1300109290AD893
:1019700009EB890102EB410100EB01096D1CF2E763
:1019800057F8049B6D1C28786C280FD006DC4C2877
:1019900017D068280DD06A2814D104E0742810D01C
:1019A0007A280FD10DE044F400140AE044F48014C6
:1019B00001E044F440146978814202D16D1C04F5C1
:1019C00080146D1C2A786E2A20D00DDC632A33D057
:1019D00005DC002A6FD0582A12D1A2E011E0642A57
:1019E0006AD0692A0CD167E0732A2FD004DC6F2AF1
:1019F0006FD0702A04D199E0752A6BD0782A6AD00A
:101A00001046DDE90F129047761C4EE1C4F30250F8
:101A1000022806D003280AD0042801CF0AD0066085
:101A200043E101CF4FEAE671C0E900613DE101CF3A
:101A300006803AE1067038E117F8040B8DF80000D3
:101A400000208DF80100EB46012003E057F804BBAD
:101A50004FF0FF3061074FF0000102D40DE008F1B4
:101A60000101884649450FDA8045F8DB1BF808106C
:101A70000029F4D108E008F1010188468142FADB2F
:101A80001BF808100029F6D1DDE90F23AAEB0800A6
:101A90008146214600F03BF9304400EB080604E0A3
:101AA000DDE90F121BF8010B9047B8F10108F7D2DE
:101AB00021464846F4E0FDE00A21C4F302534FF00A
:101AC000000B0891022B07D001CFC117032B09D0BF
:101AD0000AE034E023E024E0FF1D27F00707F7E8E1
:101AE000020105E000B2C117042B01D140B2C117B9
:101AF000002907DA4FF0000CD0EB0C006CEB010171
:101B00002D2302E0230504D52B238DF82430012357
:101B100003E0E30701D02023F7E7984650E00A21CD
:101B20000EE010204FF0000B08900CE010214FF059
:101B3000000B44F004044FF00809089103E0082169
:101B40004FF0000B0891C4F30253022B04D001CFD5
:101B50000021032B06D006E0FF1D27F00707F7E85A
:101B6000020103E080B2042B00D1C0B24FF00008A4
:101B7000230725D5702A2AD0DDF820C08CF0100C60
:101B80005CEA0B0C09D150EA010306D030238DF832
:101B900024308DF8252002239846DDF820C08CF0F3
:101BA000080C5CEA0B0C0BD150EA010301D163076E
:101BB00006D530238DF824304FF00108A9F1010932
:101BC000582A09D03EA20B9208AA0A9211E040239B
:101BD0008DF824300123DFE73EA2F4E75B46089A44
:101BE000FFF7FAFD0B9B9B5C0A9AA2F101020A9295
:101BF000137050EA0102F1D10A98ADEB000000F138
:101C0000200B600702D524F4803401E04FF0010975
:101C1000D94502DDA9EB0B0000E0002000EB0B0131
:101C200041440890AAEB010AE00306D4DDE90F2342
:101C30002146504600F06BF80644002008E009A950
:101C400011F80900DDE90F129047761C09F1010037
:101C500081464045F3DBE0030CD5DDE90F23214647
:101C6000504600F054F8064404E0DDE90F1230203D
:101C70009047761C0899481E08900029F5DC08E07A
:101C80000A980A990078491C0A91DDE90F129047D9
:101C9000761CBBF10001ABF1010BF1DC2146504693
:101CA000DDE90F2300F020F806446D1C2878002899
:101CB0007FF41DAE11B03046BDE8F08F0928010059
:101CC00030313233343536373839616263646566B2
:101CD0000000000030313233343536373839414274
:101CE00043444546000000002DE9F041044600252C
:101CF0001E461746880405D406E039462020B04722
:101D000005F10105641EF8D52846BDE8F0812DE9EE
:101D1000F041044600251E469046C80301D53027F1
:101D200000E02027880405D506E041463846B04744
:101D300005F10105641EF8D52846BDE8F0810000D4
:101D4000000001020304010203040607080902045B
:101D500006080000741D00080000002004000000B8
:101D6000C0180008781D00080400002004040000CA
:081D7000D0180008000000007B
:0400000508000131BD
:00000001FF
